{
  "_format": "hh-sol-artifact-1",
  "contractName": "ReplayTrackingContractV3",
  "sourceName": "contracts/ReplayTrackingContractV2.sol",
  "abi": [
    {
      "inputs": [],
      "stateMutability": "nonpayable",
      "type": "constructor"
    },
    {
      "anonymous": false,
      "inputs": [
        {
          "indexed": true,
          "internalType": "address",
          "name": "previousOwner",
          "type": "address"
        },
        {
          "indexed": true,
          "internalType": "address",
          "name": "newOwner",
          "type": "address"
        }
      ],
      "name": "OwnershipTransferred",
      "type": "event"
    },
    {
      "anonymous": false,
      "inputs": [
        {
          "indexed": false,
          "internalType": "address",
          "name": "account",
          "type": "address"
        }
      ],
      "name": "Paused",
      "type": "event"
    },
    {
      "anonymous": false,
      "inputs": [
        {
          "indexed": true,
          "internalType": "bytes32",
          "name": "role",
          "type": "bytes32"
        },
        {
          "indexed": true,
          "internalType": "bytes32",
          "name": "previousAdminRole",
          "type": "bytes32"
        },
        {
          "indexed": true,
          "internalType": "bytes32",
          "name": "newAdminRole",
          "type": "bytes32"
        }
      ],
      "name": "RoleAdminChanged",
      "type": "event"
    },
    {
      "anonymous": false,
      "inputs": [
        {
          "indexed": true,
          "internalType": "bytes32",
          "name": "role",
          "type": "bytes32"
        },
        {
          "indexed": true,
          "internalType": "address",
          "name": "account",
          "type": "address"
        },
        {
          "indexed": true,
          "internalType": "address",
          "name": "sender",
          "type": "address"
        }
      ],
      "name": "RoleGranted",
      "type": "event"
    },
    {
      "anonymous": false,
      "inputs": [
        {
          "indexed": true,
          "internalType": "bytes32",
          "name": "role",
          "type": "bytes32"
        },
        {
          "indexed": true,
          "internalType": "address",
          "name": "account",
          "type": "address"
        },
        {
          "indexed": true,
          "internalType": "address",
          "name": "sender",
          "type": "address"
        }
      ],
      "name": "RoleRevoked",
      "type": "event"
    },
    {
      "anonymous": false,
      "inputs": [
        {
          "indexed": true,
          "internalType": "string",
          "name": "userId",
          "type": "string"
        },
        {
          "indexed": true,
          "internalType": "uint256",
          "name": "day",
          "type": "uint256"
        },
        {
          "indexed": true,
          "internalType": "uint256",
          "name": "month",
          "type": "uint256"
        },
        {
          "indexed": false,
          "internalType": "uint256",
          "name": "year",
          "type": "uint256"
        },
        {
          "indexed": false,
          "internalType": "string",
          "name": "assetId",
          "type": "string"
        },
        {
          "indexed": false,
          "internalType": "uint256",
          "name": "totalDuration",
          "type": "uint256"
        },
        {
          "indexed": false,
          "internalType": "uint256",
          "name": "totalRewardsConsumer",
          "type": "uint256"
        },
        {
          "indexed": false,
          "internalType": "uint256",
          "name": "totalRewardsContentOwner",
          "type": "uint256"
        }
      ],
      "name": "TransactionAdded",
      "type": "event"
    },
    {
      "anonymous": false,
      "inputs": [
        {
          "indexed": false,
          "internalType": "address",
          "name": "account",
          "type": "address"
        }
      ],
      "name": "Unpaused",
      "type": "event"
    },
    {
      "inputs": [],
      "name": "ADMIN_ROLE",
      "outputs": [
        {
          "internalType": "bytes32",
          "name": "",
          "type": "bytes32"
        }
      ],
      "stateMutability": "view",
      "type": "function"
    },
    {
      "inputs": [],
      "name": "DEFAULT_ADMIN_ROLE",
      "outputs": [
        {
          "internalType": "bytes32",
          "name": "",
          "type": "bytes32"
        }
      ],
      "stateMutability": "view",
      "type": "function"
    },
    {
      "inputs": [
        {
          "components": [
            {
              "internalType": "string",
              "name": "userId",
              "type": "string"
            },
            {
              "internalType": "uint256",
              "name": "day",
              "type": "uint256"
            },
            {
              "internalType": "uint256",
              "name": "month",
              "type": "uint256"
            },
            {
              "internalType": "uint256",
              "name": "year",
              "type": "uint256"
            },
            {
              "internalType": "uint256",
              "name": "totalDuration",
              "type": "uint256"
            },
            {
              "internalType": "uint256",
              "name": "totalRewardsConsumer",
              "type": "uint256"
            },
            {
              "internalType": "uint256",
              "name": "totalRewardsContentOwner",
              "type": "uint256"
            },
            {
              "internalType": "string",
              "name": "assetId",
              "type": "string"
            }
          ],
          "internalType": "struct ReplayLibrary.Transaction[]",
          "name": "transactions",
          "type": "tuple[]"
        }
      ],
      "name": "batchInsertRecords",
      "outputs": [],
      "stateMutability": "nonpayable",
      "type": "function"
    },
    {
      "inputs": [
        {
          "internalType": "bytes32",
          "name": "",
          "type": "bytes32"
        },
        {
          "internalType": "uint256",
          "name": "",
          "type": "uint256"
        }
      ],
      "name": "dailyTransactions",
      "outputs": [
        {
          "internalType": "string",
          "name": "userId",
          "type": "string"
        },
        {
          "internalType": "uint256",
          "name": "day",
          "type": "uint256"
        },
        {
          "internalType": "uint256",
          "name": "month",
          "type": "uint256"
        },
        {
          "internalType": "uint256",
          "name": "year",
          "type": "uint256"
        },
        {
          "internalType": "uint256",
          "name": "totalDuration",
          "type": "uint256"
        },
        {
          "internalType": "uint256",
          "name": "totalRewardsConsumer",
          "type": "uint256"
        },
        {
          "internalType": "uint256",
          "name": "totalRewardsContentOwner",
          "type": "uint256"
        },
        {
          "internalType": "string",
          "name": "assetId",
          "type": "string"
        }
      ],
      "stateMutability": "view",
      "type": "function"
    },
    {
      "inputs": [
        {
          "internalType": "bytes32",
          "name": "role",
          "type": "bytes32"
        }
      ],
      "name": "getRoleAdmin",
      "outputs": [
        {
          "internalType": "bytes32",
          "name": "",
          "type": "bytes32"
        }
      ],
      "stateMutability": "view",
      "type": "function"
    },
    {
      "inputs": [
        {
          "internalType": "string",
          "name": "userId",
          "type": "string"
        },
        {
          "internalType": "uint256",
          "name": "day",
          "type": "uint256"
        },
        {
          "internalType": "uint256",
          "name": "month",
          "type": "uint256"
        },
        {
          "internalType": "uint256",
          "name": "year",
          "type": "uint256"
        },
        {
          "internalType": "string",
          "name": "assetId",
          "type": "string"
        }
      ],
      "name": "getTransactionsByDay",
      "outputs": [
        {
          "components": [
            {
              "internalType": "string",
              "name": "userId",
              "type": "string"
            },
            {
              "internalType": "uint256",
              "name": "day",
              "type": "uint256"
            },
            {
              "internalType": "uint256",
              "name": "month",
              "type": "uint256"
            },
            {
              "internalType": "uint256",
              "name": "year",
              "type": "uint256"
            },
            {
              "internalType": "uint256",
              "name": "totalDuration",
              "type": "uint256"
            },
            {
              "internalType": "uint256",
              "name": "totalRewardsConsumer",
              "type": "uint256"
            },
            {
              "internalType": "uint256",
              "name": "totalRewardsContentOwner",
              "type": "uint256"
            },
            {
              "internalType": "string",
              "name": "assetId",
              "type": "string"
            }
          ],
          "internalType": "struct ReplayLibrary.Transaction[]",
          "name": "",
          "type": "tuple[]"
        }
      ],
      "stateMutability": "view",
      "type": "function"
    },
    {
      "inputs": [
        {
          "internalType": "string",
          "name": "userId",
          "type": "string"
        },
        {
          "internalType": "uint256",
          "name": "day",
          "type": "uint256"
        },
        {
          "internalType": "uint256",
          "name": "month",
          "type": "uint256"
        },
        {
          "internalType": "uint256",
          "name": "year",
          "type": "uint256"
        }
      ],
      "name": "getTransactionsByUserAndDate",
      "outputs": [
        {
          "components": [
            {
              "internalType": "string",
              "name": "userId",
              "type": "string"
            },
            {
              "internalType": "uint256",
              "name": "day",
              "type": "uint256"
            },
            {
              "internalType": "uint256",
              "name": "month",
              "type": "uint256"
            },
            {
              "internalType": "uint256",
              "name": "year",
              "type": "uint256"
            },
            {
              "internalType": "uint256",
              "name": "totalDuration",
              "type": "uint256"
            },
            {
              "internalType": "uint256",
              "name": "totalRewardsConsumer",
              "type": "uint256"
            },
            {
              "internalType": "uint256",
              "name": "totalRewardsContentOwner",
              "type": "uint256"
            },
            {
              "internalType": "string",
              "name": "assetId",
              "type": "string"
            }
          ],
          "internalType": "struct ReplayLibrary.Transaction[]",
          "name": "",
          "type": "tuple[]"
        }
      ],
      "stateMutability": "view",
      "type": "function"
    },
    {
      "inputs": [
        {
          "internalType": "string",
          "name": "userId",
          "type": "string"
        }
      ],
      "name": "getTransactionsByUserId",
      "outputs": [
        {
          "components": [
            {
              "internalType": "string",
              "name": "userId",
              "type": "string"
            },
            {
              "internalType": "uint256",
              "name": "day",
              "type": "uint256"
            },
            {
              "internalType": "uint256",
              "name": "month",
              "type": "uint256"
            },
            {
              "internalType": "uint256",
              "name": "year",
              "type": "uint256"
            },
            {
              "internalType": "uint256",
              "name": "totalDuration",
              "type": "uint256"
            },
            {
              "internalType": "uint256",
              "name": "totalRewardsConsumer",
              "type": "uint256"
            },
            {
              "internalType": "uint256",
              "name": "totalRewardsContentOwner",
              "type": "uint256"
            },
            {
              "internalType": "string",
              "name": "assetId",
              "type": "string"
            }
          ],
          "internalType": "struct ReplayLibrary.Transaction[]",
          "name": "",
          "type": "tuple[]"
        }
      ],
      "stateMutability": "view",
      "type": "function"
    },
    {
      "inputs": [
        {
          "internalType": "string",
          "name": "userId",
          "type": "string"
        },
        {
          "internalType": "string",
          "name": "assetId",
          "type": "string"
        }
      ],
      "name": "getTransactionsByUserIdAndAssetId",
      "outputs": [
        {
          "components": [
            {
              "internalType": "string",
              "name": "userId",
              "type": "string"
            },
            {
              "internalType": "uint256",
              "name": "day",
              "type": "uint256"
            },
            {
              "internalType": "uint256",
              "name": "month",
              "type": "uint256"
            },
            {
              "internalType": "uint256",
              "name": "year",
              "type": "uint256"
            },
            {
              "internalType": "uint256",
              "name": "totalDuration",
              "type": "uint256"
            },
            {
              "internalType": "uint256",
              "name": "totalRewardsConsumer",
              "type": "uint256"
            },
            {
              "internalType": "uint256",
              "name": "totalRewardsContentOwner",
              "type": "uint256"
            },
            {
              "internalType": "string",
              "name": "assetId",
              "type": "string"
            }
          ],
          "internalType": "struct ReplayLibrary.Transaction[]",
          "name": "",
          "type": "tuple[]"
        }
      ],
      "stateMutability": "view",
      "type": "function"
    },
    {
      "inputs": [
        {
          "internalType": "string",
          "name": "userId",
          "type": "string"
        }
      ],
      "name": "getUserHistories",
      "outputs": [
        {
          "components": [
            {
              "internalType": "uint256",
              "name": "totalDuration",
              "type": "uint256"
            },
            {
              "internalType": "uint256",
              "name": "totalRewardsConsumer",
              "type": "uint256"
            },
            {
              "internalType": "uint256",
              "name": "totalRewardsContentOwner",
              "type": "uint256"
            }
          ],
          "internalType": "struct ReplayTrackingContractV3.UserHistory[]",
          "name": "",
          "type": "tuple[]"
        }
      ],
      "stateMutability": "view",
      "type": "function"
    },
    {
      "inputs": [
        {
          "internalType": "bytes32",
          "name": "role",
          "type": "bytes32"
        },
        {
          "internalType": "address",
          "name": "account",
          "type": "address"
        }
      ],
      "name": "grantRole",
      "outputs": [],
      "stateMutability": "nonpayable",
      "type": "function"
    },
    {
      "inputs": [
        {
          "internalType": "bytes32",
          "name": "role",
          "type": "bytes32"
        },
        {
          "internalType": "address",
          "name": "account",
          "type": "address"
        }
      ],
      "name": "hasRole",
      "outputs": [
        {
          "internalType": "bool",
          "name": "",
          "type": "bool"
        }
      ],
      "stateMutability": "view",
      "type": "function"
    },
    {
      "inputs": [
        {
          "internalType": "string[]",
          "name": "userIds",
          "type": "string[]"
        },
        {
          "internalType": "uint256[]",
          "name": "totalDurations",
          "type": "uint256[]"
        },
        {
          "internalType": "uint256[]",
          "name": "totalRewardsConsumers",
          "type": "uint256[]"
        },
        {
          "internalType": "uint256[]",
          "name": "totalRewardsContentOwners",
          "type": "uint256[]"
        }
      ],
      "name": "insertUserHistory",
      "outputs": [],
      "stateMutability": "nonpayable",
      "type": "function"
    },
    {
      "inputs": [
        {
          "internalType": "string",
          "name": "",
          "type": "string"
        }
      ],
      "name": "nonces",
      "outputs": [
        {
          "internalType": "uint256",
          "name": "",
          "type": "uint256"
        }
      ],
      "stateMutability": "view",
      "type": "function"
    },
    {
      "inputs": [],
      "name": "owner",
      "outputs": [
        {
          "internalType": "address",
          "name": "",
          "type": "address"
        }
      ],
      "stateMutability": "view",
      "type": "function"
    },
    {
      "inputs": [],
      "name": "pause",
      "outputs": [],
      "stateMutability": "nonpayable",
      "type": "function"
    },
    {
      "inputs": [],
      "name": "paused",
      "outputs": [
        {
          "internalType": "bool",
          "name": "",
          "type": "bool"
        }
      ],
      "stateMutability": "view",
      "type": "function"
    },
    {
      "inputs": [],
      "name": "renounceOwnership",
      "outputs": [],
      "stateMutability": "nonpayable",
      "type": "function"
    },
    {
      "inputs": [
        {
          "internalType": "bytes32",
          "name": "role",
          "type": "bytes32"
        },
        {
          "internalType": "address",
          "name": "account",
          "type": "address"
        }
      ],
      "name": "renounceRole",
      "outputs": [],
      "stateMutability": "nonpayable",
      "type": "function"
    },
    {
      "inputs": [
        {
          "internalType": "bytes32",
          "name": "role",
          "type": "bytes32"
        },
        {
          "internalType": "address",
          "name": "account",
          "type": "address"
        }
      ],
      "name": "revokeRole",
      "outputs": [],
      "stateMutability": "nonpayable",
      "type": "function"
    },
    {
      "inputs": [
        {
          "internalType": "bytes4",
          "name": "interfaceId",
          "type": "bytes4"
        }
      ],
      "name": "supportsInterface",
      "outputs": [
        {
          "internalType": "bool",
          "name": "",
          "type": "bool"
        }
      ],
      "stateMutability": "view",
      "type": "function"
    },
    {
      "inputs": [
        {
          "internalType": "uint256",
          "name": "",
          "type": "uint256"
        }
      ],
      "name": "transactionKeys",
      "outputs": [
        {
          "internalType": "bytes32",
          "name": "",
          "type": "bytes32"
        }
      ],
      "stateMutability": "view",
      "type": "function"
    },
    {
      "inputs": [
        {
          "internalType": "address",
          "name": "newOwner",
          "type": "address"
        }
      ],
      "name": "transferOwnership",
      "outputs": [],
      "stateMutability": "nonpayable",
      "type": "function"
    },
    {
      "inputs": [],
      "name": "unpause",
      "outputs": [],
      "stateMutability": "nonpayable",
      "type": "function"
    },
    {
      "inputs": [
        {
          "internalType": "bytes32",
          "name": "",
          "type": "bytes32"
        },
        {
          "internalType": "uint256",
          "name": "",
          "type": "uint256"
        }
      ],
      "name": "userHistories",
      "outputs": [
        {
          "internalType": "uint256",
          "name": "totalDuration",
          "type": "uint256"
        },
        {
          "internalType": "uint256",
          "name": "totalRewardsConsumer",
          "type": "uint256"
        },
        {
          "internalType": "uint256",
          "name": "totalRewardsContentOwner",
          "type": "uint256"
        }
      ],
      "stateMutability": "view",
      "type": "function"
    }
  ],
  "bytecode": "0x60806040523480156200001157600080fd5b5062000032620000266200009960201b60201c565b620000a160201b60201c565b60008060146101000a81548160ff021916908315150217905550620000616000801b336200016560201b60201c565b620000937fa49807205ce4d355092ef5a8a18f56e8913cf4a201fbe287825b095693c21775336200016560201b60201c565b620002c1565b600033905090565b60008060009054906101000a900473ffffffffffffffffffffffffffffffffffffffff169050816000806101000a81548173ffffffffffffffffffffffffffffffffffffffff021916908373ffffffffffffffffffffffffffffffffffffffff1602179055508173ffffffffffffffffffffffffffffffffffffffff168173ffffffffffffffffffffffffffffffffffffffff167f8be0079c531659141344cd1fd0a4f28419497f9722a3daafe3b4186f6b6457e060405160405180910390a35050565b6200017782826200025660201b60201c565b6200025257600180600084815260200190815260200160002060000160008373ffffffffffffffffffffffffffffffffffffffff1673ffffffffffffffffffffffffffffffffffffffff16815260200190815260200160002060006101000a81548160ff021916908315150217905550620001f76200009960201b60201c565b73ffffffffffffffffffffffffffffffffffffffff168173ffffffffffffffffffffffffffffffffffffffff16837f2f8788117e7eff1d82e926ec794901d17c78024a50270940304540a733656f0d60405160405180910390a45b5050565b60006001600084815260200190815260200160002060000160008373ffffffffffffffffffffffffffffffffffffffff1673ffffffffffffffffffffffffffffffffffffffff16815260200190815260200160002060009054906101000a900460ff16905092915050565b61410f80620002d16000396000f3fe608060405234801561001057600080fd5b50600436106101735760003560e01c8063715018a6116100de578063a217fddf11610097578063d547741f11610071578063d547741f14610460578063d5ee8be11461047c578063e84c164d146104b3578063f2fde38b146104e357610173565b8063a217fddf146103e2578063b24fce8814610400578063bca4de1a1461043057610173565b8063715018a61461033257806375b238fc1461033c5780638456cb591461035a5780638da5cb5b146103645780638e8c723a1461038257806391d14854146103b257610173565b806336568abe1161013057806336568abe146102725780633f4ba83a1461028e57806340c18c1a146102985780635c975abb146102c857806364378c97146102e65780636c7331881461030257610173565b806301ffc9a7146101785780631071a704146101a8578063175743c5146101da5780631a0405d31461020a578063248a9ca3146102265780632f2ff15d14610256575b600080fd5b610192600480360381019061018d9190612733565b6104ff565b60405161019f919061277b565b60405180910390f35b6101c260048036038101906101bd9190612802565b610579565b6040516101d193929190612851565b60405180910390f35b6101f460048036038101906101ef91906129ce565b6105c0565b6040516102019190612c88565b60405180910390f35b610224600480360381019061021f9190612d60565b6107a9565b005b610240600480360381019061023b9190612e49565b6109c3565b60405161024d9190612e85565b60405180910390f35b610270600480360381019061026b9190612efe565b6109e3565b005b61028c60048036038101906102879190612efe565b610a04565b005b610296610a87565b005b6102b260048036038101906102ad9190612f3e565b610afa565b6040516102bf9190612c88565b60405180910390f35b6102d0610f26565b6040516102dd919061277b565b60405180910390f35b61030060048036038101906102fb919061300c565b610f3c565b005b61031c60048036038101906103179190613059565b6111d3565b6040516103299190612c88565b60405180910390f35b61033a61168b565b005b61034461169f565b6040516103519190612e85565b60405180910390f35b6103626116c3565b005b61036c611736565b60405161037991906130eb565b60405180910390f35b61039c60048036038101906103979190613106565b61175f565b6040516103a99190612c88565b60405180910390f35b6103cc60048036038101906103c79190612efe565b611af2565b6040516103d9919061277b565b60405180910390f35b6103ea611b5d565b6040516103f79190612e85565b60405180910390f35b61041a60048036038101906104159190613106565b611b64565b604051610427919061314f565b60405180910390f35b61044a6004803603810190610445919061316a565b611b92565b6040516104579190612e85565b60405180910390f35b61047a60048036038101906104759190612efe565b611bb6565b005b61049660048036038101906104919190612802565b611bd7565b6040516104aa9897969594939291906131e1565b60405180910390f35b6104cd60048036038101906104c89190613106565b611d4c565b6040516104da919061335e565b60405180910390f35b6104fd60048036038101906104f89190613380565b611e08565b005b60007f7965db0b000000000000000000000000000000000000000000000000000000007bffffffffffffffffffffffffffffffffffffffffffffffffffffffff1916827bffffffffffffffffffffffffffffffffffffffffffffffffffffffff19161480610572575061057182611e8b565b5b9050919050565b6005602052816000526040600020818154811061059557600080fd5b9060005260206000209060030201600091509150508060000154908060010154908060020154905083565b606060006105d18787878787611ef5565b905060036000828152602001908152602001600020805480602002602001604051908101604052809291908181526020016000905b8282101561079957838290600052602060002090600802016040518061010001604052908160008201805461063a906133dc565b80601f0160208091040260200160405190810160405280929190818152602001828054610666906133dc565b80156106b35780601f10610688576101008083540402835291602001916106b3565b820191906000526020600020905b81548152906001019060200180831161069657829003601f168201915b50505050508152602001600182015481526020016002820154815260200160038201548152602001600482015481526020016005820154815260200160068201548152602001600782018054610708906133dc565b80601f0160208091040260200160405190810160405280929190818152602001828054610734906133dc565b80156107815780601f1061075657610100808354040283529160200191610781565b820191906000526020600020905b81548152906001019060200180831161076457829003601f168201915b50505050508152505081526020019060010190610606565b5050505091505095945050505050565b6107d37fa49807205ce4d355092ef5a8a18f56e8913cf4a201fbe287825b095693c2177533611af2565b610812576040517f08c379a00000000000000000000000000000000000000000000000000000000081526004016108099061347f565b60405180910390fd5b61081a611f31565b858590508888905014801561083457508383905086869050145b801561084557508181905084849050145b610884576040517f08c379a000000000000000000000000000000000000000000000000000000000815260040161087b906134eb565b60405180910390fd5b60005b888890508110156109b85760008989838181106108a7576108a661350b565b5b90506020028101906108b99190613549565b6040516020016108ca9291906135dc565b604051602081830303815290604052805190602001209050600060405180606001604052808a8a868181106109025761090161350b565b5b9050602002013581526020018888868181106109215761092061350b565b5b9050602002013581526020018686868181106109405761093f61350b565b5b90506020020135815250905060056000838152602001908152602001600020819080600181540180825580915050600190039060005260206000209060030201600090919091909150600082015181600001556020820151816001015560408201518160020155505050508080600101915050610887565b505050505050505050565b600060016000838152602001908152602001600020600101549050919050565b6109ec826109c3565b6109f581611f7b565b6109ff8383611f8f565b505050565b610a0c61206f565b73ffffffffffffffffffffffffffffffffffffffff168173ffffffffffffffffffffffffffffffffffffffff1614610a79576040517f08c379a0000000000000000000000000000000000000000000000000000000008152600401610a7090613667565b60405180910390fd5b610a838282612077565b5050565b610ab17fa49807205ce4d355092ef5a8a18f56e8913cf4a201fbe287825b095693c2177533611af2565b610af0576040517f08c379a0000000000000000000000000000000000000000000000000000000008152600401610ae79061347f565b60405180910390fd5b610af8612159565b565b60606000805b600480549050811015610bfc57600060048281548110610b2357610b2261350b565b5b906000526020600020015490506000600360008381526020019081526020016000209050868051906020012081600081548110610b6357610b6261350b565b5b9060005260206000209060080201600001604051610b81919061372a565b6040518091039020148015610bd55750858051906020012081600081548110610bad57610bac61350b565b5b9060005260206000209060080201600701604051610bcb919061372a565b6040518091039020145b15610bed57808054905084610bea9190613770565b93505b50508080600101915050610b00565b5060008167ffffffffffffffff811115610c1957610c186128a3565b5b604051908082528060200260200182016040528015610c5257816020015b610c3f612682565b815260200190600190039081610c375790505b5090506000805b600480549050811015610f1957600060048281548110610c7c57610c7b61350b565b5b906000526020600020015490506000600360008381526020019081526020016000209050888051906020012081600081548110610cbc57610cbb61350b565b5b9060005260206000209060080201600001604051610cda919061372a565b6040518091039020148015610d2e5750878051906020012081600081548110610d0657610d0561350b565b5b9060005260206000209060080201600701604051610d24919061372a565b6040518091039020145b15610f0a5760005b8180549050811015610f0857818181548110610d5557610d5461350b565b5b906000526020600020906008020160405180610100016040529081600082018054610d7f906133dc565b80601f0160208091040260200160405190810160405280929190818152602001828054610dab906133dc565b8015610df85780601f10610dcd57610100808354040283529160200191610df8565b820191906000526020600020905b815481529060010190602001808311610ddb57829003601f168201915b50505050508152602001600182015481526020016002820154815260200160038201548152602001600482015481526020016005820154815260200160068201548152602001600782018054610e4d906133dc565b80601f0160208091040260200160405190810160405280929190818152602001828054610e79906133dc565b8015610ec65780601f10610e9b57610100808354040283529160200191610ec6565b820191906000526020600020905b815481529060010190602001808311610ea957829003601f168201915b505050505081525050868681518110610ee257610ee161350b565b5b60200260200101819052508480610ef8906137a4565b9550508080600101915050610d36565b505b50508080600101915050610c59565b5081935050505092915050565b60008060149054906101000a900460ff16905090565b610f667fa49807205ce4d355092ef5a8a18f56e8913cf4a201fbe287825b095693c2177533611af2565b610fa5576040517f08c379a0000000000000000000000000000000000000000000000000000000008152600401610f9c9061347f565b60405180910390fd5b610fad611f31565b6064828290501115610ff4576040517f08c379a0000000000000000000000000000000000000000000000000000000008152600401610feb90613838565b60405180910390fd5b60005b828290508110156111ce5760008383838181106110175761101661350b565b5b90506020028101906110299190613858565b6110329061398d565b9050600061105782600001518360200151846040015185606001518660e00151611ef5565b905060006003600083815260200190815260200160002080549050036110a15760048190806001815401808255809150506001900390600052602060002001600090919091909150555b6003600082815260200190815260200160002082908060018154018082558091505060019003906000526020600020906008020160009091909190915060008201518160000190816110f39190613b4c565b506020820151816001015560408201518160020155606082015181600301556080820151816004015560a0820151816005015560c0820151816006015560e08201518160070190816111459190613b4c565b5050508160400151826020015183600001516040516111649190613c4f565b60405180910390207fcdb5ced38cd3f2e0ab4e0401f4d49b296020a590e01e1fa1855bc1f023af174f85606001518660e0015187608001518860a001518960c001516040516111b7959493929190613c66565b60405180910390a450508080600101915050610ff7565b505050565b60606000805b60048054905081101561131a576000600482815481106111fc576111fb61350b565b5b90600052602060002001549050600060036000838152602001908152602001600020905088805190602001208160008154811061123c5761123b61350b565b5b906000526020600020906008020160000160405161125a919061372a565b60405180910390201480156112935750878160008154811061127f5761127e61350b565b5b906000526020600020906008020160010154145b80156112c3575086816000815481106112af576112ae61350b565b5b906000526020600020906008020160020154145b80156112f3575085816000815481106112df576112de61350b565b5b906000526020600020906008020160030154145b1561130b578080549050846113089190613770565b93505b505080806001019150506111d9565b5060008167ffffffffffffffff811115611337576113366128a3565b5b60405190808252806020026020018201604052801561137057816020015b61135d612682565b8152602001906001900390816113555790505b5090506000805b60048054905081101561167c5760006004828154811061139a5761139961350b565b5b9060005260206000200154905060006003600083815260200190815260200160002090508a80519060200120816000815481106113da576113d961350b565b5b90600052602060002090600802016000016040516113f8919061372a565b60405180910390201480156114315750898160008154811061141d5761141c61350b565b5b906000526020600020906008020160010154145b80156114615750888160008154811061144d5761144c61350b565b5b906000526020600020906008020160020154145b80156114915750878160008154811061147d5761147c61350b565b5b906000526020600020906008020160030154145b1561166d5760005b818054905081101561166b578181815481106114b8576114b761350b565b5b9060005260206000209060080201604051806101000160405290816000820180546114e2906133dc565b80601f016020809104026020016040519081016040528092919081815260200182805461150e906133dc565b801561155b5780601f106115305761010080835404028352916020019161155b565b820191906000526020600020905b81548152906001019060200180831161153e57829003601f168201915b505050505081526020016001820154815260200160028201548152602001600382015481526020016004820154815260200160058201548152602001600682015481526020016007820180546115b0906133dc565b80601f01602080910402602001604051908101604052809291908181526020018280546115dc906133dc565b80156116295780601f106115fe57610100808354040283529160200191611629565b820191906000526020600020905b81548152906001019060200180831161160c57829003601f168201915b5050505050815250508686815181106116455761164461350b565b5b6020026020010181905250848061165b906137a4565b9550508080600101915050611499565b505b50508080600101915050611377565b50819350505050949350505050565b6116936121bb565b61169d6000612239565b565b7fa49807205ce4d355092ef5a8a18f56e8913cf4a201fbe287825b095693c2177581565b6116ed7fa49807205ce4d355092ef5a8a18f56e8913cf4a201fbe287825b095693c2177533611af2565b61172c576040517f08c379a00000000000000000000000000000000000000000000000000000000081526004016117239061347f565b60405180910390fd5b6117346122fd565b565b60008060009054906101000a900473ffffffffffffffffffffffffffffffffffffffff16905090565b60606000805b600480549050811015611815576000600482815481106117885761178761350b565b5b9060005260206000200154905060006003600083815260200190815260200160002090508580519060200120816000815481106117c8576117c761350b565b5b90600052602060002090600802016000016040516117e6919061372a565b604051809103902003611806578080549050846118039190613770565b93505b50508080600101915050611765565b5060008167ffffffffffffffff811115611832576118316128a3565b5b60405190808252806020026020018201604052801561186b57816020015b611858612682565b8152602001906001900390816118505790505b5090506000805b600480549050811015611ae6576000600482815481106118955761189461350b565b5b9060005260206000200154905060006003600083815260200190815260200160002090508780519060200120816000815481106118d5576118d461350b565b5b90600052602060002090600802016000016040516118f3919061372a565b604051809103902003611ad75760005b8180549050811015611ad5578181815481106119225761192161350b565b5b90600052602060002090600802016040518061010001604052908160008201805461194c906133dc565b80601f0160208091040260200160405190810160405280929190818152602001828054611978906133dc565b80156119c55780601f1061199a576101008083540402835291602001916119c5565b820191906000526020600020905b8154815290600101906020018083116119a857829003601f168201915b50505050508152602001600182015481526020016002820154815260200160038201548152602001600482015481526020016005820154815260200160068201548152602001600782018054611a1a906133dc565b80601f0160208091040260200160405190810160405280929190818152602001828054611a46906133dc565b8015611a935780601f10611a6857610100808354040283529160200191611a93565b820191906000526020600020905b815481529060010190602001808311611a7657829003601f168201915b505050505081525050868681518110611aaf57611aae61350b565b5b60200260200101819052508480611ac5906137a4565b9550508080600101915050611903565b505b50508080600101915050611872565b50819350505050919050565b60006001600084815260200190815260200160002060000160008373ffffffffffffffffffffffffffffffffffffffff1673ffffffffffffffffffffffffffffffffffffffff16815260200190815260200160002060009054906101000a900460ff16905092915050565b6000801b81565b6002818051602081018201805184825260208301602085012081835280955050505050506000915090505481565b60048181548110611ba257600080fd5b906000526020600020016000915090505481565b611bbf826109c3565b611bc881611f7b565b611bd28383612077565b505050565b60036020528160005260406000208181548110611bf357600080fd5b906000526020600020906008020160009150915050806000018054611c17906133dc565b80601f0160208091040260200160405190810160405280929190818152602001828054611c43906133dc565b8015611c905780601f10611c6557610100808354040283529160200191611c90565b820191906000526020600020905b815481529060010190602001808311611c7357829003601f168201915b505050505090806001015490806002015490806003015490806004015490806005015490806006015490806007018054611cc9906133dc565b80601f0160208091040260200160405190810160405280929190818152602001828054611cf5906133dc565b8015611d425780601f10611d1757610100808354040283529160200191611d42565b820191906000526020600020905b815481529060010190602001808311611d2557829003601f168201915b5050505050905088565b6060600082604051602001611d619190613c4f565b60405160208183030381529060405280519060200120905060056000828152602001908152602001600020805480602002602001604051908101604052809291908181526020016000905b82821015611dfc5783829060005260206000209060030201604051806060016040529081600082015481526020016001820154815260200160028201548152505081526020019060010190611dac565b50505050915050919050565b611e106121bb565b600073ffffffffffffffffffffffffffffffffffffffff168173ffffffffffffffffffffffffffffffffffffffff1603611e7f576040517f08c379a0000000000000000000000000000000000000000000000000000000008152600401611e7690613d32565b60405180910390fd5b611e8881612239565b50565b60007f01ffc9a7000000000000000000000000000000000000000000000000000000007bffffffffffffffffffffffffffffffffffffffffffffffffffffffff1916827bffffffffffffffffffffffffffffffffffffffffffffffffffffffff1916149050919050565b60008585858585604051602001611f10959493929190613d73565b60405160208183030381529060405280519060200120905095945050505050565b611f39610f26565b15611f79576040517f08c379a0000000000000000000000000000000000000000000000000000000008152600401611f7090613e16565b60405180910390fd5b565b611f8c81611f8761206f565b612360565b50565b611f998282611af2565b61206b57600180600084815260200190815260200160002060000160008373ffffffffffffffffffffffffffffffffffffffff1673ffffffffffffffffffffffffffffffffffffffff16815260200190815260200160002060006101000a81548160ff02191690831515021790555061201061206f565b73ffffffffffffffffffffffffffffffffffffffff168173ffffffffffffffffffffffffffffffffffffffff16837f2f8788117e7eff1d82e926ec794901d17c78024a50270940304540a733656f0d60405160405180910390a45b5050565b600033905090565b6120818282611af2565b156121555760006001600084815260200190815260200160002060000160008373ffffffffffffffffffffffffffffffffffffffff1673ffffffffffffffffffffffffffffffffffffffff16815260200190815260200160002060006101000a81548160ff0219169083151502179055506120fa61206f565b73ffffffffffffffffffffffffffffffffffffffff168173ffffffffffffffffffffffffffffffffffffffff16837ff6391f5c32d9c69d2a47ea670b442974b53935d1edc7fd64eb21e047a839171b60405160405180910390a45b5050565b6121616123fd565b60008060146101000a81548160ff0219169083151502179055507f5db9ee0a495bf2e6ff9c91a7834c1ba4fdd244a5e8aa4e537bd38aeae4b073aa6121a461206f565b6040516121b191906130eb565b60405180910390a1565b6121c361206f565b73ffffffffffffffffffffffffffffffffffffffff166121e1611736565b73ffffffffffffffffffffffffffffffffffffffff1614612237576040517f08c379a000000000000000000000000000000000000000000000000000000000815260040161222e90613e82565b60405180910390fd5b565b60008060009054906101000a900473ffffffffffffffffffffffffffffffffffffffff169050816000806101000a81548173ffffffffffffffffffffffffffffffffffffffff021916908373ffffffffffffffffffffffffffffffffffffffff1602179055508173ffffffffffffffffffffffffffffffffffffffff168173ffffffffffffffffffffffffffffffffffffffff167f8be0079c531659141344cd1fd0a4f28419497f9722a3daafe3b4186f6b6457e060405160405180910390a35050565b612305611f31565b6001600060146101000a81548160ff0219169083151502179055507f62e78cea01bee320cd4e420270b5ea74000d11b0c9f74754ebdbfc544b05a25861234961206f565b60405161235691906130eb565b60405180910390a1565b61236a8282611af2565b6123f95761238f8173ffffffffffffffffffffffffffffffffffffffff166014612446565b61239d8360001c6020612446565b6040516020016123ae929190613f3a565b6040516020818303038152906040526040517f08c379a00000000000000000000000000000000000000000000000000000000081526004016123f09190613f74565b60405180910390fd5b5050565b612405610f26565b612444576040517f08c379a000000000000000000000000000000000000000000000000000000000815260040161243b90613fe2565b60405180910390fd5b565b6060600060028360026124599190614002565b6124639190613770565b67ffffffffffffffff81111561247c5761247b6128a3565b5b6040519080825280601f01601f1916602001820160405280156124ae5781602001600182028036833780820191505090505b5090507f3000000000000000000000000000000000000000000000000000000000000000816000815181106124e6576124e561350b565b5b60200101907effffffffffffffffffffffffffffffffffffffffffffffffffffffffffffff1916908160001a9053507f78000000000000000000000000000000000000000000000000000000000000008160018151811061254a5761254961350b565b5b60200101907effffffffffffffffffffffffffffffffffffffffffffffffffffffffffffff1916908160001a9053506000600184600261258a9190614002565b6125949190613770565b90505b6001811115612634577f3031323334353637383961626364656600000000000000000000000000000000600f8616601081106125d6576125d561350b565b5b1a60f81b8282815181106125ed576125ec61350b565b5b60200101907effffffffffffffffffffffffffffffffffffffffffffffffffffffffffffff1916908160001a905350600485901c94508061262d90614044565b9050612597565b5060008414612678576040517f08c379a000000000000000000000000000000000000000000000000000000000815260040161266f906140b9565b60405180910390fd5b8091505092915050565b60405180610100016040528060608152602001600081526020016000815260200160008152602001600081526020016000815260200160008152602001606081525090565b6000604051905090565b600080fd5b600080fd5b60007fffffffff0000000000000000000000000000000000000000000000000000000082169050919050565b612710816126db565b811461271b57600080fd5b50565b60008135905061272d81612707565b92915050565b600060208284031215612749576127486126d1565b5b60006127578482850161271e565b91505092915050565b60008115159050919050565b61277581612760565b82525050565b6000602082019050612790600083018461276c565b92915050565b6000819050919050565b6127a981612796565b81146127b457600080fd5b50565b6000813590506127c6816127a0565b92915050565b6000819050919050565b6127df816127cc565b81146127ea57600080fd5b50565b6000813590506127fc816127d6565b92915050565b60008060408385031215612819576128186126d1565b5b6000612827858286016127b7565b9250506020612838858286016127ed565b9150509250929050565b61284b816127cc565b82525050565b60006060820190506128666000830186612842565b6128736020830185612842565b6128806040830184612842565b949350505050565b600080fd5b600080fd5b6000601f19601f8301169050919050565b7f4e487b7100000000000000000000000000000000000000000000000000000000600052604160045260246000fd5b6128db82612892565b810181811067ffffffffffffffff821117156128fa576128f96128a3565b5b80604052505050565b600061290d6126c7565b905061291982826128d2565b919050565b600067ffffffffffffffff821115612939576129386128a3565b5b61294282612892565b9050602081019050919050565b82818337600083830152505050565b600061297161296c8461291e565b612903565b90508281526020810184848401111561298d5761298c61288d565b5b61299884828561294f565b509392505050565b600082601f8301126129b5576129b4612888565b5b81356129c584826020860161295e565b91505092915050565b600080600080600060a086880312156129ea576129e96126d1565b5b600086013567ffffffffffffffff811115612a0857612a076126d6565b5b612a14888289016129a0565b9550506020612a25888289016127ed565b9450506040612a36888289016127ed565b9350506060612a47888289016127ed565b925050608086013567ffffffffffffffff811115612a6857612a676126d6565b5b612a74888289016129a0565b9150509295509295909350565b600081519050919050565b600082825260208201905092915050565b6000819050602082019050919050565b600081519050919050565b600082825260208201905092915050565b60005b83811015612ae7578082015181840152602081019050612acc565b60008484015250505050565b6000612afe82612aad565b612b088185612ab8565b9350612b18818560208601612ac9565b612b2181612892565b840191505092915050565b612b35816127cc565b82525050565b6000610100830160008301518482036000860152612b598282612af3565b9150506020830151612b6e6020860182612b2c565b506040830151612b816040860182612b2c565b506060830151612b946060860182612b2c565b506080830151612ba76080860182612b2c565b5060a0830151612bba60a0860182612b2c565b5060c0830151612bcd60c0860182612b2c565b5060e083015184820360e0860152612be58282612af3565b9150508091505092915050565b6000612bfe8383612b3b565b905092915050565b6000602082019050919050565b6000612c1e82612a81565b612c288185612a8c565b935083602082028501612c3a85612a9d565b8060005b85811015612c765784840389528151612c578582612bf2565b9450612c6283612c06565b925060208a01995050600181019050612c3e565b50829750879550505050505092915050565b60006020820190508181036000830152612ca28184612c13565b905092915050565b600080fd5b600080fd5b60008083601f840112612cca57612cc9612888565b5b8235905067ffffffffffffffff811115612ce757612ce6612caa565b5b602083019150836020820283011115612d0357612d02612caf565b5b9250929050565b60008083601f840112612d2057612d1f612888565b5b8235905067ffffffffffffffff811115612d3d57612d3c612caa565b5b602083019150836020820283011115612d5957612d58612caf565b5b9250929050565b6000806000806000806000806080898b031215612d8057612d7f6126d1565b5b600089013567ffffffffffffffff811115612d9e57612d9d6126d6565b5b612daa8b828c01612cb4565b9850985050602089013567ffffffffffffffff811115612dcd57612dcc6126d6565b5b612dd98b828c01612d0a565b9650965050604089013567ffffffffffffffff811115612dfc57612dfb6126d6565b5b612e088b828c01612d0a565b9450945050606089013567ffffffffffffffff811115612e2b57612e2a6126d6565b5b612e378b828c01612d0a565b92509250509295985092959890939650565b600060208284031215612e5f57612e5e6126d1565b5b6000612e6d848285016127b7565b91505092915050565b612e7f81612796565b82525050565b6000602082019050612e9a6000830184612e76565b92915050565b600073ffffffffffffffffffffffffffffffffffffffff82169050919050565b6000612ecb82612ea0565b9050919050565b612edb81612ec0565b8114612ee657600080fd5b50565b600081359050612ef881612ed2565b92915050565b60008060408385031215612f1557612f146126d1565b5b6000612f23858286016127b7565b9250506020612f3485828601612ee9565b9150509250929050565b60008060408385031215612f5557612f546126d1565b5b600083013567ffffffffffffffff811115612f7357612f726126d6565b5b612f7f858286016129a0565b925050602083013567ffffffffffffffff811115612fa057612f9f6126d6565b5b612fac858286016129a0565b9150509250929050565b60008083601f840112612fcc57612fcb612888565b5b8235905067ffffffffffffffff811115612fe957612fe8612caa565b5b60208301915083602082028301111561300557613004612caf565b5b9250929050565b60008060208385031215613023576130226126d1565b5b600083013567ffffffffffffffff811115613041576130406126d6565b5b61304d85828601612fb6565b92509250509250929050565b60008060008060808587031215613073576130726126d1565b5b600085013567ffffffffffffffff811115613091576130906126d6565b5b61309d878288016129a0565b94505060206130ae878288016127ed565b93505060406130bf878288016127ed565b92505060606130d0878288016127ed565b91505092959194509250565b6130e581612ec0565b82525050565b600060208201905061310060008301846130dc565b92915050565b60006020828403121561311c5761311b6126d1565b5b600082013567ffffffffffffffff81111561313a576131396126d6565b5b613146848285016129a0565b91505092915050565b60006020820190506131646000830184612842565b92915050565b6000602082840312156131805761317f6126d1565b5b600061318e848285016127ed565b91505092915050565b600082825260208201905092915050565b60006131b382612aad565b6131bd8185613197565b93506131cd818560208601612ac9565b6131d681612892565b840191505092915050565b60006101008201905081810360008301526131fc818b6131a8565b905061320b602083018a612842565b6132186040830189612842565b6132256060830188612842565b6132326080830187612842565b61323f60a0830186612842565b61324c60c0830185612842565b81810360e083015261325e81846131a8565b90509998505050505050505050565b600081519050919050565b600082825260208201905092915050565b6000819050602082019050919050565b6060820160008201516132af6000850182612b2c565b5060208201516132c26020850182612b2c565b5060408201516132d56040850182612b2c565b50505050565b60006132e78383613299565b60608301905092915050565b6000602082019050919050565b600061330b8261326d565b6133158185613278565b935061332083613289565b8060005b8381101561335157815161333888826132db565b9750613343836132f3565b925050600181019050613324565b5085935050505092915050565b600060208201905081810360008301526133788184613300565b905092915050565b600060208284031215613396576133956126d1565b5b60006133a484828501612ee9565b91505092915050565b7f4e487b7100000000000000000000000000000000000000000000000000000000600052602260045260246000fd5b600060028204905060018216806133f457607f821691505b602082108103613407576134066133ad565b5b50919050565b7f4f6e6c792061646d696e2063616e2063616c6c20746869732066756e6374696f60008201527f6e00000000000000000000000000000000000000000000000000000000000000602082015250565b6000613469602183613197565b91506134748261340d565b604082019050919050565b600060208201905081810360008301526134988161345c565b9050919050565b7f41727261797320646576656d20746572206f206d65736d6f2074616d616e686f600082015250565b60006134d5602083613197565b91506134e08261349f565b602082019050919050565b60006020820190508181036000830152613504816134c8565b9050919050565b7f4e487b7100000000000000000000000000000000000000000000000000000000600052603260045260246000fd5b600080fd5b600080fd5b600080fd5b600080833560016020038436030381126135665761356561353a565b5b80840192508235915067ffffffffffffffff8211156135885761358761353f565b5b6020830192506001820236038313156135a4576135a3613544565b5b509250929050565b600081905092915050565b60006135c383856135ac565b93506135d083858461294f565b82840190509392505050565b60006135e98284866135b7565b91508190509392505050565b7f416363657373436f6e74726f6c3a2063616e206f6e6c792072656e6f756e636560008201527f20726f6c657320666f722073656c660000000000000000000000000000000000602082015250565b6000613651602f83613197565b915061365c826135f5565b604082019050919050565b6000602082019050818103600083015261368081613644565b9050919050565b600081905092915050565b60008190508160005260206000209050919050565b600081546136b4816133dc565b6136be8186613687565b945060018216600081146136d957600181146136ee57613721565b60ff1983168652811515820286019350613721565b6136f785613692565b60005b83811015613719578154818901526001820191506020810190506136fa565b838801955050505b50505092915050565b600061373682846136a7565b915081905092915050565b7f4e487b7100000000000000000000000000000000000000000000000000000000600052601160045260246000fd5b600061377b826127cc565b9150613786836127cc565b925082820190508082111561379e5761379d613741565b5b92915050565b60006137af826127cc565b91507fffffffffffffffffffffffffffffffffffffffffffffffffffffffffffffffff82036137e1576137e0613741565b5b600182019050919050565b7f42617463682073697a6520746f6f206c61726765000000000000000000000000600082015250565b6000613822601483613197565b915061382d826137ec565b602082019050919050565b6000602082019050818103600083015261385181613815565b9050919050565b600082356001610100038336030381126138755761387461353a565b5b80830191505092915050565b600080fd5b600080fd5b600061010082840312156138a2576138a1613881565b5b6138ad610100612903565b9050600082013567ffffffffffffffff8111156138cd576138cc613886565b5b6138d9848285016129a0565b60008301525060206138ed848285016127ed565b6020830152506040613901848285016127ed565b6040830152506060613915848285016127ed565b6060830152506080613929848285016127ed565b60808301525060a061393d848285016127ed565b60a08301525060c0613951848285016127ed565b60c08301525060e082013567ffffffffffffffff81111561397557613974613886565b5b613981848285016129a0565b60e08301525092915050565b6000613999368361388b565b9050919050565b60008190508160005260206000209050919050565b60006020601f8301049050919050565b600082821b905092915050565b600060088302613a027fffffffffffffffffffffffffffffffffffffffffffffffffffffffffffffffff826139c5565b613a0c86836139c5565b95508019841693508086168417925050509392505050565b6000819050919050565b6000613a49613a44613a3f846127cc565b613a24565b6127cc565b9050919050565b6000819050919050565b613a6383613a2e565b613a77613a6f82613a50565b8484546139d2565b825550505050565b600090565b613a8c613a7f565b613a97818484613a5a565b505050565b5b81811015613abb57613ab0600082613a84565b600181019050613a9d565b5050565b601f821115613b0057613ad1816139a0565b613ada846139b5565b81016020851015613ae9578190505b613afd613af5856139b5565b830182613a9c565b50505b505050565b600082821c905092915050565b6000613b2360001984600802613b05565b1980831691505092915050565b6000613b3c8383613b12565b9150826002028217905092915050565b613b5582612aad565b67ffffffffffffffff811115613b6e57613b6d6128a3565b5b613b7882546133dc565b613b83828285613abf565b600060209050601f831160018114613bb65760008415613ba4578287015190505b613bae8582613b30565b865550613c16565b601f198416613bc4866139a0565b60005b82811015613bec57848901518255600182019150602085019450602081019050613bc7565b86831015613c095784890151613c05601f891682613b12565b8355505b6001600288020188555050505b505050505050565b6000613c2982612aad565b613c3381856135ac565b9350613c43818560208601612ac9565b80840191505092915050565b6000613c5b8284613c1e565b915081905092915050565b600060a082019050613c7b6000830188612842565b8181036020830152613c8d81876131a8565b9050613c9c6040830186612842565b613ca96060830185612842565b613cb66080830184612842565b9695505050505050565b7f4f776e61626c653a206e6577206f776e657220697320746865207a65726f206160008201527f6464726573730000000000000000000000000000000000000000000000000000602082015250565b6000613d1c602683613197565b9150613d2782613cc0565b604082019050919050565b60006020820190508181036000830152613d4b81613d0f565b9050919050565b6000819050919050565b613d6d613d68826127cc565b613d52565b82525050565b6000613d7f8288613c1e565b9150613d8b8287613d5c565b602082019150613d9b8286613d5c565b602082019150613dab8285613d5c565b602082019150613dbb8284613c1e565b91508190509695505050505050565b7f5061757361626c653a2070617573656400000000000000000000000000000000600082015250565b6000613e00601083613197565b9150613e0b82613dca565b602082019050919050565b60006020820190508181036000830152613e2f81613df3565b9050919050565b7f4f776e61626c653a2063616c6c6572206973206e6f7420746865206f776e6572600082015250565b6000613e6c602083613197565b9150613e7782613e36565b602082019050919050565b60006020820190508181036000830152613e9b81613e5f565b9050919050565b7f416363657373436f6e74726f6c3a206163636f756e7420000000000000000000600082015250565b6000613ed86017836135ac565b9150613ee382613ea2565b601782019050919050565b7f206973206d697373696e6720726f6c6520000000000000000000000000000000600082015250565b6000613f246011836135ac565b9150613f2f82613eee565b601182019050919050565b6000613f4582613ecb565b9150613f518285613c1e565b9150613f5c82613f17565b9150613f688284613c1e565b91508190509392505050565b60006020820190508181036000830152613f8e81846131a8565b905092915050565b7f5061757361626c653a206e6f7420706175736564000000000000000000000000600082015250565b6000613fcc601483613197565b9150613fd782613f96565b602082019050919050565b60006020820190508181036000830152613ffb81613fbf565b9050919050565b600061400d826127cc565b9150614018836127cc565b9250828202614026816127cc565b9150828204841483151761403d5761403c613741565b5b5092915050565b600061404f826127cc565b91506000820361406257614061613741565b5b600182039050919050565b7f537472696e67733a20686578206c656e67746820696e73756666696369656e74600082015250565b60006140a3602083613197565b91506140ae8261406d565b602082019050919050565b600060208201905081810360008301526140d281614096565b905091905056fea2646970667358221220fc4952fab3e8c6870f140ae8b1c115750ee03b3aad5dda73d9da2fee37e9ce5b64736f6c63430008180033",
  "linkReferences": {},
  "deployedLinkReferences": {}
}