{
  "_format": "hh-sol-artifact-1",
  "contractName": "ReplayTrackingContractV3",
  "sourceName": "contracts/ReplayTrackingContractV2.sol",
  "abi": [
    {
      "inputs": [],
      "stateMutability": "nonpayable",
      "type": "constructor"
    },
    {
      "anonymous": false,
      "inputs": [
        {
          "indexed": true,
          "internalType": "address",
          "name": "previousOwner",
          "type": "address"
        },
        {
          "indexed": true,
          "internalType": "address",
          "name": "newOwner",
          "type": "address"
        }
      ],
      "name": "OwnershipTransferred",
      "type": "event"
    },
    {
      "anonymous": false,
      "inputs": [
        {
          "indexed": false,
          "internalType": "address",
          "name": "account",
          "type": "address"
        }
      ],
      "name": "Paused",
      "type": "event"
    },
    {
      "anonymous": false,
      "inputs": [
        {
          "indexed": true,
          "internalType": "bytes32",
          "name": "role",
          "type": "bytes32"
        },
        {
          "indexed": true,
          "internalType": "bytes32",
          "name": "previousAdminRole",
          "type": "bytes32"
        },
        {
          "indexed": true,
          "internalType": "bytes32",
          "name": "newAdminRole",
          "type": "bytes32"
        }
      ],
      "name": "RoleAdminChanged",
      "type": "event"
    },
    {
      "anonymous": false,
      "inputs": [
        {
          "indexed": true,
          "internalType": "bytes32",
          "name": "role",
          "type": "bytes32"
        },
        {
          "indexed": true,
          "internalType": "address",
          "name": "account",
          "type": "address"
        },
        {
          "indexed": true,
          "internalType": "address",
          "name": "sender",
          "type": "address"
        }
      ],
      "name": "RoleGranted",
      "type": "event"
    },
    {
      "anonymous": false,
      "inputs": [
        {
          "indexed": true,
          "internalType": "bytes32",
          "name": "role",
          "type": "bytes32"
        },
        {
          "indexed": true,
          "internalType": "address",
          "name": "account",
          "type": "address"
        },
        {
          "indexed": true,
          "internalType": "address",
          "name": "sender",
          "type": "address"
        }
      ],
      "name": "RoleRevoked",
      "type": "event"
    },
    {
      "anonymous": false,
      "inputs": [
        {
          "indexed": true,
          "internalType": "string",
          "name": "userId",
          "type": "string"
        },
        {
          "indexed": true,
          "internalType": "uint256",
          "name": "day",
          "type": "uint256"
        },
        {
          "indexed": true,
          "internalType": "uint256",
          "name": "month",
          "type": "uint256"
        },
        {
          "indexed": false,
          "internalType": "uint256",
          "name": "year",
          "type": "uint256"
        },
        {
          "indexed": false,
          "internalType": "string",
          "name": "assetId",
          "type": "string"
        },
        {
          "indexed": false,
          "internalType": "uint256",
          "name": "totalDuration",
          "type": "uint256"
        },
        {
          "indexed": false,
          "internalType": "uint256",
          "name": "totalRewardsConsumer",
          "type": "uint256"
        },
        {
          "indexed": false,
          "internalType": "uint256",
          "name": "totalRewardsContentOwner",
          "type": "uint256"
        }
      ],
      "name": "TransactionAdded",
      "type": "event"
    },
    {
      "anonymous": false,
      "inputs": [
        {
          "indexed": false,
          "internalType": "address",
          "name": "account",
          "type": "address"
        }
      ],
      "name": "Unpaused",
      "type": "event"
    },
    {
      "inputs": [],
      "name": "ADMIN_ROLE",
      "outputs": [
        {
          "internalType": "bytes32",
          "name": "",
          "type": "bytes32"
        }
      ],
      "stateMutability": "view",
      "type": "function"
    },
    {
      "inputs": [],
      "name": "DEFAULT_ADMIN_ROLE",
      "outputs": [
        {
          "internalType": "bytes32",
          "name": "",
          "type": "bytes32"
        }
      ],
      "stateMutability": "view",
      "type": "function"
    },
    {
      "inputs": [
        {
          "components": [
            {
              "internalType": "string",
              "name": "userId",
              "type": "string"
            },
            {
              "internalType": "uint256",
              "name": "day",
              "type": "uint256"
            },
            {
              "internalType": "uint256",
              "name": "month",
              "type": "uint256"
            },
            {
              "internalType": "uint256",
              "name": "year",
              "type": "uint256"
            },
            {
              "internalType": "uint256",
              "name": "totalDuration",
              "type": "uint256"
            },
            {
              "internalType": "uint256",
              "name": "totalRewardsConsumer",
              "type": "uint256"
            },
            {
              "internalType": "uint256",
              "name": "totalRewardsContentOwner",
              "type": "uint256"
            },
            {
              "internalType": "string",
              "name": "assetId",
              "type": "string"
            }
          ],
          "internalType": "struct ReplayLibrary.Transaction[]",
          "name": "transactions",
          "type": "tuple[]"
        }
      ],
      "name": "batchInsertRecords",
      "outputs": [],
      "stateMutability": "nonpayable",
      "type": "function"
    },
    {
      "inputs": [
        {
          "internalType": "bytes32",
          "name": "",
          "type": "bytes32"
        },
        {
          "internalType": "uint256",
          "name": "",
          "type": "uint256"
        }
      ],
      "name": "dailyTransactions",
      "outputs": [
        {
          "internalType": "string",
          "name": "userId",
          "type": "string"
        },
        {
          "internalType": "uint256",
          "name": "day",
          "type": "uint256"
        },
        {
          "internalType": "uint256",
          "name": "month",
          "type": "uint256"
        },
        {
          "internalType": "uint256",
          "name": "year",
          "type": "uint256"
        },
        {
          "internalType": "uint256",
          "name": "totalDuration",
          "type": "uint256"
        },
        {
          "internalType": "uint256",
          "name": "totalRewardsConsumer",
          "type": "uint256"
        },
        {
          "internalType": "uint256",
          "name": "totalRewardsContentOwner",
          "type": "uint256"
        },
        {
          "internalType": "string",
          "name": "assetId",
          "type": "string"
        }
      ],
      "stateMutability": "view",
      "type": "function"
    },
    {
      "inputs": [
        {
          "internalType": "bytes32",
          "name": "role",
          "type": "bytes32"
        }
      ],
      "name": "getRoleAdmin",
      "outputs": [
        {
          "internalType": "bytes32",
          "name": "",
          "type": "bytes32"
        }
      ],
      "stateMutability": "view",
      "type": "function"
    },
    {
      "inputs": [
        {
          "internalType": "string",
          "name": "userId",
          "type": "string"
        },
        {
          "internalType": "uint256",
          "name": "day",
          "type": "uint256"
        },
        {
          "internalType": "uint256",
          "name": "month",
          "type": "uint256"
        },
        {
          "internalType": "uint256",
          "name": "year",
          "type": "uint256"
        },
        {
          "internalType": "string",
          "name": "assetId",
          "type": "string"
        }
      ],
      "name": "getTransactionsByDay",
      "outputs": [
        {
          "components": [
            {
              "internalType": "string",
              "name": "userId",
              "type": "string"
            },
            {
              "internalType": "uint256",
              "name": "day",
              "type": "uint256"
            },
            {
              "internalType": "uint256",
              "name": "month",
              "type": "uint256"
            },
            {
              "internalType": "uint256",
              "name": "year",
              "type": "uint256"
            },
            {
              "internalType": "uint256",
              "name": "totalDuration",
              "type": "uint256"
            },
            {
              "internalType": "uint256",
              "name": "totalRewardsConsumer",
              "type": "uint256"
            },
            {
              "internalType": "uint256",
              "name": "totalRewardsContentOwner",
              "type": "uint256"
            },
            {
              "internalType": "string",
              "name": "assetId",
              "type": "string"
            }
          ],
          "internalType": "struct ReplayLibrary.Transaction[]",
          "name": "",
          "type": "tuple[]"
        }
      ],
      "stateMutability": "view",
      "type": "function"
    },
    {
      "inputs": [
        {
          "internalType": "string",
          "name": "userId",
          "type": "string"
        },
        {
          "internalType": "uint256",
          "name": "day",
          "type": "uint256"
        },
        {
          "internalType": "uint256",
          "name": "month",
          "type": "uint256"
        },
        {
          "internalType": "uint256",
          "name": "year",
          "type": "uint256"
        }
      ],
      "name": "getTransactionsByUserAndDate",
      "outputs": [
        {
          "components": [
            {
              "internalType": "string",
              "name": "userId",
              "type": "string"
            },
            {
              "internalType": "uint256",
              "name": "day",
              "type": "uint256"
            },
            {
              "internalType": "uint256",
              "name": "month",
              "type": "uint256"
            },
            {
              "internalType": "uint256",
              "name": "year",
              "type": "uint256"
            },
            {
              "internalType": "uint256",
              "name": "totalDuration",
              "type": "uint256"
            },
            {
              "internalType": "uint256",
              "name": "totalRewardsConsumer",
              "type": "uint256"
            },
            {
              "internalType": "uint256",
              "name": "totalRewardsContentOwner",
              "type": "uint256"
            },
            {
              "internalType": "string",
              "name": "assetId",
              "type": "string"
            }
          ],
          "internalType": "struct ReplayLibrary.Transaction[]",
          "name": "",
          "type": "tuple[]"
        }
      ],
      "stateMutability": "view",
      "type": "function"
    },
    {
      "inputs": [
        {
          "internalType": "string",
          "name": "userId",
          "type": "string"
        }
      ],
      "name": "getTransactionsByUserId",
      "outputs": [
        {
          "components": [
            {
              "internalType": "string",
              "name": "userId",
              "type": "string"
            },
            {
              "internalType": "uint256",
              "name": "day",
              "type": "uint256"
            },
            {
              "internalType": "uint256",
              "name": "month",
              "type": "uint256"
            },
            {
              "internalType": "uint256",
              "name": "year",
              "type": "uint256"
            },
            {
              "internalType": "uint256",
              "name": "totalDuration",
              "type": "uint256"
            },
            {
              "internalType": "uint256",
              "name": "totalRewardsConsumer",
              "type": "uint256"
            },
            {
              "internalType": "uint256",
              "name": "totalRewardsContentOwner",
              "type": "uint256"
            },
            {
              "internalType": "string",
              "name": "assetId",
              "type": "string"
            }
          ],
          "internalType": "struct ReplayLibrary.Transaction[]",
          "name": "",
          "type": "tuple[]"
        }
      ],
      "stateMutability": "view",
      "type": "function"
    },
    {
      "inputs": [
        {
          "internalType": "string",
          "name": "userId",
          "type": "string"
        },
        {
          "internalType": "string",
          "name": "assetId",
          "type": "string"
        }
      ],
      "name": "getTransactionsByUserIdAndAssetId",
      "outputs": [
        {
          "components": [
            {
              "internalType": "string",
              "name": "userId",
              "type": "string"
            },
            {
              "internalType": "uint256",
              "name": "day",
              "type": "uint256"
            },
            {
              "internalType": "uint256",
              "name": "month",
              "type": "uint256"
            },
            {
              "internalType": "uint256",
              "name": "year",
              "type": "uint256"
            },
            {
              "internalType": "uint256",
              "name": "totalDuration",
              "type": "uint256"
            },
            {
              "internalType": "uint256",
              "name": "totalRewardsConsumer",
              "type": "uint256"
            },
            {
              "internalType": "uint256",
              "name": "totalRewardsContentOwner",
              "type": "uint256"
            },
            {
              "internalType": "string",
              "name": "assetId",
              "type": "string"
            }
          ],
          "internalType": "struct ReplayLibrary.Transaction[]",
          "name": "",
          "type": "tuple[]"
        }
      ],
      "stateMutability": "view",
      "type": "function"
    },
    {
      "inputs": [
        {
          "internalType": "bytes32",
          "name": "role",
          "type": "bytes32"
        },
        {
          "internalType": "address",
          "name": "account",
          "type": "address"
        }
      ],
      "name": "grantRole",
      "outputs": [],
      "stateMutability": "nonpayable",
      "type": "function"
    },
    {
      "inputs": [
        {
          "internalType": "bytes32",
          "name": "role",
          "type": "bytes32"
        },
        {
          "internalType": "address",
          "name": "account",
          "type": "address"
        }
      ],
      "name": "hasRole",
      "outputs": [
        {
          "internalType": "bool",
          "name": "",
          "type": "bool"
        }
      ],
      "stateMutability": "view",
      "type": "function"
    },
    {
      "inputs": [
        {
          "internalType": "string",
          "name": "",
          "type": "string"
        }
      ],
      "name": "nonces",
      "outputs": [
        {
          "internalType": "uint256",
          "name": "",
          "type": "uint256"
        }
      ],
      "stateMutability": "view",
      "type": "function"
    },
    {
      "inputs": [],
      "name": "owner",
      "outputs": [
        {
          "internalType": "address",
          "name": "",
          "type": "address"
        }
      ],
      "stateMutability": "view",
      "type": "function"
    },
    {
      "inputs": [],
      "name": "pause",
      "outputs": [],
      "stateMutability": "nonpayable",
      "type": "function"
    },
    {
      "inputs": [],
      "name": "paused",
      "outputs": [
        {
          "internalType": "bool",
          "name": "",
          "type": "bool"
        }
      ],
      "stateMutability": "view",
      "type": "function"
    },
    {
      "inputs": [],
      "name": "renounceOwnership",
      "outputs": [],
      "stateMutability": "nonpayable",
      "type": "function"
    },
    {
      "inputs": [
        {
          "internalType": "bytes32",
          "name": "role",
          "type": "bytes32"
        },
        {
          "internalType": "address",
          "name": "account",
          "type": "address"
        }
      ],
      "name": "renounceRole",
      "outputs": [],
      "stateMutability": "nonpayable",
      "type": "function"
    },
    {
      "inputs": [
        {
          "internalType": "bytes32",
          "name": "role",
          "type": "bytes32"
        },
        {
          "internalType": "address",
          "name": "account",
          "type": "address"
        }
      ],
      "name": "revokeRole",
      "outputs": [],
      "stateMutability": "nonpayable",
      "type": "function"
    },
    {
      "inputs": [
        {
          "internalType": "bytes4",
          "name": "interfaceId",
          "type": "bytes4"
        }
      ],
      "name": "supportsInterface",
      "outputs": [
        {
          "internalType": "bool",
          "name": "",
          "type": "bool"
        }
      ],
      "stateMutability": "view",
      "type": "function"
    },
    {
      "inputs": [
        {
          "internalType": "uint256",
          "name": "",
          "type": "uint256"
        }
      ],
      "name": "transactionKeys",
      "outputs": [
        {
          "internalType": "bytes32",
          "name": "",
          "type": "bytes32"
        }
      ],
      "stateMutability": "view",
      "type": "function"
    },
    {
      "inputs": [
        {
          "internalType": "address",
          "name": "newOwner",
          "type": "address"
        }
      ],
      "name": "transferOwnership",
      "outputs": [],
      "stateMutability": "nonpayable",
      "type": "function"
    },
    {
      "inputs": [],
      "name": "unpause",
      "outputs": [],
      "stateMutability": "nonpayable",
      "type": "function"
    }
  ],
  "bytecode": "0x60806040523480156200001157600080fd5b5062000032620000266200009960201b60201c565b620000a160201b60201c565b60008060146101000a81548160ff021916908315150217905550620000616000801b336200016560201b60201c565b620000937fa49807205ce4d355092ef5a8a18f56e8913cf4a201fbe287825b095693c21775336200016560201b60201c565b620002c1565b600033905090565b60008060009054906101000a900473ffffffffffffffffffffffffffffffffffffffff169050816000806101000a81548173ffffffffffffffffffffffffffffffffffffffff021916908373ffffffffffffffffffffffffffffffffffffffff1602179055508173ffffffffffffffffffffffffffffffffffffffff168173ffffffffffffffffffffffffffffffffffffffff167f8be0079c531659141344cd1fd0a4f28419497f9722a3daafe3b4186f6b6457e060405160405180910390a35050565b6200017782826200025660201b60201c565b6200025257600180600084815260200190815260200160002060000160008373ffffffffffffffffffffffffffffffffffffffff1673ffffffffffffffffffffffffffffffffffffffff16815260200190815260200160002060006101000a81548160ff021916908315150217905550620001f76200009960201b60201c565b73ffffffffffffffffffffffffffffffffffffffff168173ffffffffffffffffffffffffffffffffffffffff16837f2f8788117e7eff1d82e926ec794901d17c78024a50270940304540a733656f0d60405160405180910390a45b5050565b60006001600084815260200190815260200160002060000160008373ffffffffffffffffffffffffffffffffffffffff1673ffffffffffffffffffffffffffffffffffffffff16815260200190815260200160002060009054906101000a900460ff16905092915050565b61394d80620002d16000396000f3fe608060405234801561001057600080fd5b50600436106101425760003560e01c806375b238fc116100b8578063a217fddf1161007c578063a217fddf14610363578063b24fce8814610381578063bca4de1a146103b1578063d547741f146103e1578063d5ee8be1146103fd578063f2fde38b1461043457610142565b806375b238fc146102bd5780638456cb59146102db5780638da5cb5b146102e55780638e8c723a1461030357806391d148541461033357610142565b80633f4ba83a1161010a5780633f4ba83a1461020f57806340c18c1a146102195780635c975abb1461024957806364378c97146102675780636c73318814610283578063715018a6146102b357610142565b806301ffc9a714610147578063175743c514610177578063248a9ca3146101a75780632f2ff15d146101d757806336568abe146101f3575b600080fd5b610161600480360381019061015c9190612367565b610450565b60405161016e91906123af565b60405180910390f35b610191600480360381019061018c9190612546565b6104ca565b60405161019e9190612800565b60405180910390f35b6101c160048036038101906101bc9190612858565b6106b3565b6040516101ce9190612894565b60405180910390f35b6101f160048036038101906101ec919061290d565b6106d3565b005b61020d6004803603810190610208919061290d565b6106f4565b005b610217610777565b005b610233600480360381019061022e919061294d565b6107ea565b6040516102409190612800565b60405180910390f35b610251610c16565b60405161025e91906123af565b60405180910390f35b610281600480360381019061027c9190612a25565b610c2c565b005b61029d60048036038101906102989190612a72565b610ec3565b6040516102aa9190612800565b60405180910390f35b6102bb61137b565b005b6102c561138f565b6040516102d29190612894565b60405180910390f35b6102e36113b3565b005b6102ed611426565b6040516102fa9190612b04565b60405180910390f35b61031d60048036038101906103189190612b1f565b61144f565b60405161032a9190612800565b60405180910390f35b61034d6004803603810190610348919061290d565b6117e2565b60405161035a91906123af565b60405180910390f35b61036b61184d565b6040516103789190612894565b60405180910390f35b61039b60048036038101906103969190612b1f565b611854565b6040516103a89190612b77565b60405180910390f35b6103cb60048036038101906103c69190612b92565b611882565b6040516103d89190612894565b60405180910390f35b6103fb60048036038101906103f6919061290d565b6118a6565b005b61041760048036038101906104129190612bbf565b6118c7565b60405161042b989796959493929190612c49565b60405180910390f35b61044e60048036038101906104499190612cd5565b611a3c565b005b60007f7965db0b000000000000000000000000000000000000000000000000000000007bffffffffffffffffffffffffffffffffffffffffffffffffffffffff1916827bffffffffffffffffffffffffffffffffffffffffffffffffffffffff191614806104c357506104c282611abf565b5b9050919050565b606060006104db8787878787611b29565b905060036000828152602001908152602001600020805480602002602001604051908101604052809291908181526020016000905b828210156106a357838290600052602060002090600802016040518061010001604052908160008201805461054490612d31565b80601f016020809104026020016040519081016040528092919081815260200182805461057090612d31565b80156105bd5780601f10610592576101008083540402835291602001916105bd565b820191906000526020600020905b8154815290600101906020018083116105a057829003601f168201915b5050505050815260200160018201548152602001600282015481526020016003820154815260200160048201548152602001600582015481526020016006820154815260200160078201805461061290612d31565b80601f016020809104026020016040519081016040528092919081815260200182805461063e90612d31565b801561068b5780601f106106605761010080835404028352916020019161068b565b820191906000526020600020905b81548152906001019060200180831161066e57829003601f168201915b50505050508152505081526020019060010190610510565b5050505091505095945050505050565b600060016000838152602001908152602001600020600101549050919050565b6106dc826106b3565b6106e581611b65565b6106ef8383611b79565b505050565b6106fc611c59565b73ffffffffffffffffffffffffffffffffffffffff168173ffffffffffffffffffffffffffffffffffffffff1614610769576040517f08c379a000000000000000000000000000000000000000000000000000000000815260040161076090612dd4565b60405180910390fd5b6107738282611c61565b5050565b6107a17fa49807205ce4d355092ef5a8a18f56e8913cf4a201fbe287825b095693c21775336117e2565b6107e0576040517f08c379a00000000000000000000000000000000000000000000000000000000081526004016107d790612e66565b60405180910390fd5b6107e8611d43565b565b60606000805b6004805490508110156108ec5760006004828154811061081357610812612e86565b5b90600052602060002001549050600060036000838152602001908152602001600020905086805190602001208160008154811061085357610852612e86565b5b90600052602060002090600802016000016040516108719190612f58565b60405180910390201480156108c5575085805190602001208160008154811061089d5761089c612e86565b5b90600052602060002090600802016007016040516108bb9190612f58565b6040518091039020145b156108dd578080549050846108da9190612f9e565b93505b505080806001019150506107f0565b5060008167ffffffffffffffff811115610909576109086123e5565b5b60405190808252806020026020018201604052801561094257816020015b61092f6122b6565b8152602001906001900390816109275790505b5090506000805b600480549050811015610c095760006004828154811061096c5761096b612e86565b5b9060005260206000200154905060006003600083815260200190815260200160002090508880519060200120816000815481106109ac576109ab612e86565b5b90600052602060002090600802016000016040516109ca9190612f58565b6040518091039020148015610a1e57508780519060200120816000815481106109f6576109f5612e86565b5b9060005260206000209060080201600701604051610a149190612f58565b6040518091039020145b15610bfa5760005b8180549050811015610bf857818181548110610a4557610a44612e86565b5b906000526020600020906008020160405180610100016040529081600082018054610a6f90612d31565b80601f0160208091040260200160405190810160405280929190818152602001828054610a9b90612d31565b8015610ae85780601f10610abd57610100808354040283529160200191610ae8565b820191906000526020600020905b815481529060010190602001808311610acb57829003601f168201915b50505050508152602001600182015481526020016002820154815260200160038201548152602001600482015481526020016005820154815260200160068201548152602001600782018054610b3d90612d31565b80601f0160208091040260200160405190810160405280929190818152602001828054610b6990612d31565b8015610bb65780601f10610b8b57610100808354040283529160200191610bb6565b820191906000526020600020905b815481529060010190602001808311610b9957829003601f168201915b505050505081525050868681518110610bd257610bd1612e86565b5b60200260200101819052508480610be890612fd2565b9550508080600101915050610a26565b505b50508080600101915050610949565b5081935050505092915050565b60008060149054906101000a900460ff16905090565b610c567fa49807205ce4d355092ef5a8a18f56e8913cf4a201fbe287825b095693c21775336117e2565b610c95576040517f08c379a0000000000000000000000000000000000000000000000000000000008152600401610c8c90612e66565b60405180910390fd5b610c9d611da5565b6064828290501115610ce4576040517f08c379a0000000000000000000000000000000000000000000000000000000008152600401610cdb90613066565b60405180910390fd5b60005b82829050811015610ebe576000838383818110610d0757610d06612e86565b5b9050602002810190610d19919061308b565b610d22906131c0565b90506000610d4782600001518360200151846040015185606001518660e00151611b29565b90506000600360008381526020019081526020016000208054905003610d915760048190806001815401808255809150506001900390600052602060002001600090919091909150555b600360008281526020019081526020016000208290806001815401808255809150506001900390600052602060002090600802016000909190919091506000820151816000019081610de3919061337f565b506020820151816001015560408201518160020155606082015181600301556080820151816004015560a0820151816005015560c0820151816006015560e0820151816007019081610e35919061337f565b505050816040015182602001518360000151604051610e54919061348d565b60405180910390207fcdb5ced38cd3f2e0ab4e0401f4d49b296020a590e01e1fa1855bc1f023af174f85606001518660e0015187608001518860a001518960c00151604051610ea79594939291906134a4565b60405180910390a450508080600101915050610ce7565b505050565b60606000805b60048054905081101561100a57600060048281548110610eec57610eeb612e86565b5b906000526020600020015490506000600360008381526020019081526020016000209050888051906020012081600081548110610f2c57610f2b612e86565b5b9060005260206000209060080201600001604051610f4a9190612f58565b6040518091039020148015610f8357508781600081548110610f6f57610f6e612e86565b5b906000526020600020906008020160010154145b8015610fb357508681600081548110610f9f57610f9e612e86565b5b906000526020600020906008020160020154145b8015610fe357508581600081548110610fcf57610fce612e86565b5b906000526020600020906008020160030154145b15610ffb57808054905084610ff89190612f9e565b93505b50508080600101915050610ec9565b5060008167ffffffffffffffff811115611027576110266123e5565b5b60405190808252806020026020018201604052801561106057816020015b61104d6122b6565b8152602001906001900390816110455790505b5090506000805b60048054905081101561136c5760006004828154811061108a57611089612e86565b5b9060005260206000200154905060006003600083815260200190815260200160002090508a80519060200120816000815481106110ca576110c9612e86565b5b90600052602060002090600802016000016040516110e89190612f58565b60405180910390201480156111215750898160008154811061110d5761110c612e86565b5b906000526020600020906008020160010154145b80156111515750888160008154811061113d5761113c612e86565b5b906000526020600020906008020160020154145b80156111815750878160008154811061116d5761116c612e86565b5b906000526020600020906008020160030154145b1561135d5760005b818054905081101561135b578181815481106111a8576111a7612e86565b5b9060005260206000209060080201604051806101000160405290816000820180546111d290612d31565b80601f01602080910402602001604051908101604052809291908181526020018280546111fe90612d31565b801561124b5780601f106112205761010080835404028352916020019161124b565b820191906000526020600020905b81548152906001019060200180831161122e57829003601f168201915b505050505081526020016001820154815260200160028201548152602001600382015481526020016004820154815260200160058201548152602001600682015481526020016007820180546112a090612d31565b80601f01602080910402602001604051908101604052809291908181526020018280546112cc90612d31565b80156113195780601f106112ee57610100808354040283529160200191611319565b820191906000526020600020905b8154815290600101906020018083116112fc57829003601f168201915b50505050508152505086868151811061133557611334612e86565b5b6020026020010181905250848061134b90612fd2565b9550508080600101915050611189565b505b50508080600101915050611067565b50819350505050949350505050565b611383611def565b61138d6000611e6d565b565b7fa49807205ce4d355092ef5a8a18f56e8913cf4a201fbe287825b095693c2177581565b6113dd7fa49807205ce4d355092ef5a8a18f56e8913cf4a201fbe287825b095693c21775336117e2565b61141c576040517f08c379a000000000000000000000000000000000000000000000000000000000815260040161141390612e66565b60405180910390fd5b611424611f31565b565b60008060009054906101000a900473ffffffffffffffffffffffffffffffffffffffff16905090565b60606000805b6004805490508110156115055760006004828154811061147857611477612e86565b5b9060005260206000200154905060006003600083815260200190815260200160002090508580519060200120816000815481106114b8576114b7612e86565b5b90600052602060002090600802016000016040516114d69190612f58565b6040518091039020036114f6578080549050846114f39190612f9e565b93505b50508080600101915050611455565b5060008167ffffffffffffffff811115611522576115216123e5565b5b60405190808252806020026020018201604052801561155b57816020015b6115486122b6565b8152602001906001900390816115405790505b5090506000805b6004805490508110156117d65760006004828154811061158557611584612e86565b5b9060005260206000200154905060006003600083815260200190815260200160002090508780519060200120816000815481106115c5576115c4612e86565b5b90600052602060002090600802016000016040516115e39190612f58565b6040518091039020036117c75760005b81805490508110156117c55781818154811061161257611611612e86565b5b90600052602060002090600802016040518061010001604052908160008201805461163c90612d31565b80601f016020809104026020016040519081016040528092919081815260200182805461166890612d31565b80156116b55780601f1061168a576101008083540402835291602001916116b5565b820191906000526020600020905b81548152906001019060200180831161169857829003601f168201915b5050505050815260200160018201548152602001600282015481526020016003820154815260200160048201548152602001600582015481526020016006820154815260200160078201805461170a90612d31565b80601f016020809104026020016040519081016040528092919081815260200182805461173690612d31565b80156117835780601f1061175857610100808354040283529160200191611783565b820191906000526020600020905b81548152906001019060200180831161176657829003601f168201915b50505050508152505086868151811061179f5761179e612e86565b5b602002602001018190525084806117b590612fd2565b95505080806001019150506115f3565b505b50508080600101915050611562565b50819350505050919050565b60006001600084815260200190815260200160002060000160008373ffffffffffffffffffffffffffffffffffffffff1673ffffffffffffffffffffffffffffffffffffffff16815260200190815260200160002060009054906101000a900460ff16905092915050565b6000801b81565b6002818051602081018201805184825260208301602085012081835280955050505050506000915090505481565b6004818154811061189257600080fd5b906000526020600020016000915090505481565b6118af826106b3565b6118b881611b65565b6118c28383611c61565b505050565b600360205281600052604060002081815481106118e357600080fd5b90600052602060002090600802016000915091505080600001805461190790612d31565b80601f016020809104026020016040519081016040528092919081815260200182805461193390612d31565b80156119805780601f1061195557610100808354040283529160200191611980565b820191906000526020600020905b81548152906001019060200180831161196357829003601f168201915b5050505050908060010154908060020154908060030154908060040154908060050154908060060154908060070180546119b990612d31565b80601f01602080910402602001604051908101604052809291908181526020018280546119e590612d31565b8015611a325780601f10611a0757610100808354040283529160200191611a32565b820191906000526020600020905b815481529060010190602001808311611a1557829003601f168201915b5050505050905088565b611a44611def565b600073ffffffffffffffffffffffffffffffffffffffff168173ffffffffffffffffffffffffffffffffffffffff1603611ab3576040517f08c379a0000000000000000000000000000000000000000000000000000000008152600401611aaa90613570565b60405180910390fd5b611abc81611e6d565b50565b60007f01ffc9a7000000000000000000000000000000000000000000000000000000007bffffffffffffffffffffffffffffffffffffffffffffffffffffffff1916827bffffffffffffffffffffffffffffffffffffffffffffffffffffffff1916149050919050565b60008585858585604051602001611b449594939291906135b1565b60405160208183030381529060405280519060200120905095945050505050565b611b7681611b71611c59565b611f94565b50565b611b8382826117e2565b611c5557600180600084815260200190815260200160002060000160008373ffffffffffffffffffffffffffffffffffffffff1673ffffffffffffffffffffffffffffffffffffffff16815260200190815260200160002060006101000a81548160ff021916908315150217905550611bfa611c59565b73ffffffffffffffffffffffffffffffffffffffff168173ffffffffffffffffffffffffffffffffffffffff16837f2f8788117e7eff1d82e926ec794901d17c78024a50270940304540a733656f0d60405160405180910390a45b5050565b600033905090565b611c6b82826117e2565b15611d3f5760006001600084815260200190815260200160002060000160008373ffffffffffffffffffffffffffffffffffffffff1673ffffffffffffffffffffffffffffffffffffffff16815260200190815260200160002060006101000a81548160ff021916908315150217905550611ce4611c59565b73ffffffffffffffffffffffffffffffffffffffff168173ffffffffffffffffffffffffffffffffffffffff16837ff6391f5c32d9c69d2a47ea670b442974b53935d1edc7fd64eb21e047a839171b60405160405180910390a45b5050565b611d4b612031565b60008060146101000a81548160ff0219169083151502179055507f5db9ee0a495bf2e6ff9c91a7834c1ba4fdd244a5e8aa4e537bd38aeae4b073aa611d8e611c59565b604051611d9b9190612b04565b60405180910390a1565b611dad610c16565b15611ded576040517f08c379a0000000000000000000000000000000000000000000000000000000008152600401611de490613654565b60405180910390fd5b565b611df7611c59565b73ffffffffffffffffffffffffffffffffffffffff16611e15611426565b73ffffffffffffffffffffffffffffffffffffffff1614611e6b576040517f08c379a0000000000000000000000000000000000000000000000000000000008152600401611e62906136c0565b60405180910390fd5b565b60008060009054906101000a900473ffffffffffffffffffffffffffffffffffffffff169050816000806101000a81548173ffffffffffffffffffffffffffffffffffffffff021916908373ffffffffffffffffffffffffffffffffffffffff1602179055508173ffffffffffffffffffffffffffffffffffffffff168173ffffffffffffffffffffffffffffffffffffffff167f8be0079c531659141344cd1fd0a4f28419497f9722a3daafe3b4186f6b6457e060405160405180910390a35050565b611f39611da5565b6001600060146101000a81548160ff0219169083151502179055507f62e78cea01bee320cd4e420270b5ea74000d11b0c9f74754ebdbfc544b05a258611f7d611c59565b604051611f8a9190612b04565b60405180910390a1565b611f9e82826117e2565b61202d57611fc38173ffffffffffffffffffffffffffffffffffffffff16601461207a565b611fd18360001c602061207a565b604051602001611fe2929190613778565b6040516020818303038152906040526040517f08c379a000000000000000000000000000000000000000000000000000000000815260040161202491906137b2565b60405180910390fd5b5050565b612039610c16565b612078576040517f08c379a000000000000000000000000000000000000000000000000000000000815260040161206f90613820565b60405180910390fd5b565b60606000600283600261208d9190613840565b6120979190612f9e565b67ffffffffffffffff8111156120b0576120af6123e5565b5b6040519080825280601f01601f1916602001820160405280156120e25781602001600182028036833780820191505090505b5090507f30000000000000000000000000000000000000000000000000000000000000008160008151811061211a57612119612e86565b5b60200101907effffffffffffffffffffffffffffffffffffffffffffffffffffffffffffff1916908160001a9053507f78000000000000000000000000000000000000000000000000000000000000008160018151811061217e5761217d612e86565b5b60200101907effffffffffffffffffffffffffffffffffffffffffffffffffffffffffffff1916908160001a905350600060018460026121be9190613840565b6121c89190612f9e565b90505b6001811115612268577f3031323334353637383961626364656600000000000000000000000000000000600f86166010811061220a57612209612e86565b5b1a60f81b82828151811061222157612220612e86565b5b60200101907effffffffffffffffffffffffffffffffffffffffffffffffffffffffffffff1916908160001a905350600485901c94508061226190613882565b90506121cb565b50600084146122ac576040517f08c379a00000000000000000000000000000000000000000000000000000000081526004016122a3906138f7565b60405180910390fd5b8091505092915050565b60405180610100016040528060608152602001600081526020016000815260200160008152602001600081526020016000815260200160008152602001606081525090565b6000604051905090565b600080fd5b600080fd5b60007fffffffff0000000000000000000000000000000000000000000000000000000082169050919050565b6123448161230f565b811461234f57600080fd5b50565b6000813590506123618161233b565b92915050565b60006020828403121561237d5761237c612305565b5b600061238b84828501612352565b91505092915050565b60008115159050919050565b6123a981612394565b82525050565b60006020820190506123c460008301846123a0565b92915050565b600080fd5b600080fd5b6000601f19601f8301169050919050565b7f4e487b7100000000000000000000000000000000000000000000000000000000600052604160045260246000fd5b61241d826123d4565b810181811067ffffffffffffffff8211171561243c5761243b6123e5565b5b80604052505050565b600061244f6122fb565b905061245b8282612414565b919050565b600067ffffffffffffffff82111561247b5761247a6123e5565b5b612484826123d4565b9050602081019050919050565b82818337600083830152505050565b60006124b36124ae84612460565b612445565b9050828152602081018484840111156124cf576124ce6123cf565b5b6124da848285612491565b509392505050565b600082601f8301126124f7576124f66123ca565b5b81356125078482602086016124a0565b91505092915050565b6000819050919050565b61252381612510565b811461252e57600080fd5b50565b6000813590506125408161251a565b92915050565b600080600080600060a0868803121561256257612561612305565b5b600086013567ffffffffffffffff8111156125805761257f61230a565b5b61258c888289016124e2565b955050602061259d88828901612531565b94505060406125ae88828901612531565b93505060606125bf88828901612531565b925050608086013567ffffffffffffffff8111156125e0576125df61230a565b5b6125ec888289016124e2565b9150509295509295909350565b600081519050919050565b600082825260208201905092915050565b6000819050602082019050919050565b600081519050919050565b600082825260208201905092915050565b60005b8381101561265f578082015181840152602081019050612644565b60008484015250505050565b600061267682612625565b6126808185612630565b9350612690818560208601612641565b612699816123d4565b840191505092915050565b6126ad81612510565b82525050565b60006101008301600083015184820360008601526126d1828261266b565b91505060208301516126e660208601826126a4565b5060408301516126f960408601826126a4565b50606083015161270c60608601826126a4565b50608083015161271f60808601826126a4565b5060a083015161273260a08601826126a4565b5060c083015161274560c08601826126a4565b5060e083015184820360e086015261275d828261266b565b9150508091505092915050565b600061277683836126b3565b905092915050565b6000602082019050919050565b6000612796826125f9565b6127a08185612604565b9350836020820285016127b285612615565b8060005b858110156127ee57848403895281516127cf858261276a565b94506127da8361277e565b925060208a019950506001810190506127b6565b50829750879550505050505092915050565b6000602082019050818103600083015261281a818461278b565b905092915050565b6000819050919050565b61283581612822565b811461284057600080fd5b50565b6000813590506128528161282c565b92915050565b60006020828403121561286e5761286d612305565b5b600061287c84828501612843565b91505092915050565b61288e81612822565b82525050565b60006020820190506128a96000830184612885565b92915050565b600073ffffffffffffffffffffffffffffffffffffffff82169050919050565b60006128da826128af565b9050919050565b6128ea816128cf565b81146128f557600080fd5b50565b600081359050612907816128e1565b92915050565b6000806040838503121561292457612923612305565b5b600061293285828601612843565b9250506020612943858286016128f8565b9150509250929050565b6000806040838503121561296457612963612305565b5b600083013567ffffffffffffffff8111156129825761298161230a565b5b61298e858286016124e2565b925050602083013567ffffffffffffffff8111156129af576129ae61230a565b5b6129bb858286016124e2565b9150509250929050565b600080fd5b600080fd5b60008083601f8401126129e5576129e46123ca565b5b8235905067ffffffffffffffff811115612a0257612a016129c5565b5b602083019150836020820283011115612a1e57612a1d6129ca565b5b9250929050565b60008060208385031215612a3c57612a3b612305565b5b600083013567ffffffffffffffff811115612a5a57612a5961230a565b5b612a66858286016129cf565b92509250509250929050565b60008060008060808587031215612a8c57612a8b612305565b5b600085013567ffffffffffffffff811115612aaa57612aa961230a565b5b612ab6878288016124e2565b9450506020612ac787828801612531565b9350506040612ad887828801612531565b9250506060612ae987828801612531565b91505092959194509250565b612afe816128cf565b82525050565b6000602082019050612b196000830184612af5565b92915050565b600060208284031215612b3557612b34612305565b5b600082013567ffffffffffffffff811115612b5357612b5261230a565b5b612b5f848285016124e2565b91505092915050565b612b7181612510565b82525050565b6000602082019050612b8c6000830184612b68565b92915050565b600060208284031215612ba857612ba7612305565b5b6000612bb684828501612531565b91505092915050565b60008060408385031215612bd657612bd5612305565b5b6000612be485828601612843565b9250506020612bf585828601612531565b9150509250929050565b600082825260208201905092915050565b6000612c1b82612625565b612c258185612bff565b9350612c35818560208601612641565b612c3e816123d4565b840191505092915050565b6000610100820190508181036000830152612c64818b612c10565b9050612c73602083018a612b68565b612c806040830189612b68565b612c8d6060830188612b68565b612c9a6080830187612b68565b612ca760a0830186612b68565b612cb460c0830185612b68565b81810360e0830152612cc68184612c10565b90509998505050505050505050565b600060208284031215612ceb57612cea612305565b5b6000612cf9848285016128f8565b91505092915050565b7f4e487b7100000000000000000000000000000000000000000000000000000000600052602260045260246000fd5b60006002820490506001821680612d4957607f821691505b602082108103612d5c57612d5b612d02565b5b50919050565b7f416363657373436f6e74726f6c3a2063616e206f6e6c792072656e6f756e636560008201527f20726f6c657320666f722073656c660000000000000000000000000000000000602082015250565b6000612dbe602f83612bff565b9150612dc982612d62565b604082019050919050565b60006020820190508181036000830152612ded81612db1565b9050919050565b7f4f6e6c792061646d696e2063616e2063616c6c20746869732066756e6374696f60008201527f6e00000000000000000000000000000000000000000000000000000000000000602082015250565b6000612e50602183612bff565b9150612e5b82612df4565b604082019050919050565b60006020820190508181036000830152612e7f81612e43565b9050919050565b7f4e487b7100000000000000000000000000000000000000000000000000000000600052603260045260246000fd5b600081905092915050565b60008190508160005260206000209050919050565b60008154612ee281612d31565b612eec8186612eb5565b94506001821660008114612f075760018114612f1c57612f4f565b60ff1983168652811515820286019350612f4f565b612f2585612ec0565b60005b83811015612f4757815481890152600182019150602081019050612f28565b838801955050505b50505092915050565b6000612f648284612ed5565b915081905092915050565b7f4e487b7100000000000000000000000000000000000000000000000000000000600052601160045260246000fd5b6000612fa982612510565b9150612fb483612510565b9250828201905080821115612fcc57612fcb612f6f565b5b92915050565b6000612fdd82612510565b91507fffffffffffffffffffffffffffffffffffffffffffffffffffffffffffffffff820361300f5761300e612f6f565b5b600182019050919050565b7f42617463682073697a6520746f6f206c61726765000000000000000000000000600082015250565b6000613050601483612bff565b915061305b8261301a565b602082019050919050565b6000602082019050818103600083015261307f81613043565b9050919050565b600080fd5b600082356001610100038336030381126130a8576130a7613086565b5b80830191505092915050565b600080fd5b600080fd5b600061010082840312156130d5576130d46130b4565b5b6130e0610100612445565b9050600082013567ffffffffffffffff811115613100576130ff6130b9565b5b61310c848285016124e2565b600083015250602061312084828501612531565b602083015250604061313484828501612531565b604083015250606061314884828501612531565b606083015250608061315c84828501612531565b60808301525060a061317084828501612531565b60a08301525060c061318484828501612531565b60c08301525060e082013567ffffffffffffffff8111156131a8576131a76130b9565b5b6131b4848285016124e2565b60e08301525092915050565b60006131cc36836130be565b9050919050565b60008190508160005260206000209050919050565b60006020601f8301049050919050565b600082821b905092915050565b6000600883026132357fffffffffffffffffffffffffffffffffffffffffffffffffffffffffffffffff826131f8565b61323f86836131f8565b95508019841693508086168417925050509392505050565b6000819050919050565b600061327c61327761327284612510565b613257565b612510565b9050919050565b6000819050919050565b61329683613261565b6132aa6132a282613283565b848454613205565b825550505050565b600090565b6132bf6132b2565b6132ca81848461328d565b505050565b5b818110156132ee576132e36000826132b7565b6001810190506132d0565b5050565b601f82111561333357613304816131d3565b61330d846131e8565b8101602085101561331c578190505b613330613328856131e8565b8301826132cf565b50505b505050565b600082821c905092915050565b600061335660001984600802613338565b1980831691505092915050565b600061336f8383613345565b9150826002028217905092915050565b61338882612625565b67ffffffffffffffff8111156133a1576133a06123e5565b5b6133ab8254612d31565b6133b68282856132f2565b600060209050601f8311600181146133e957600084156133d7578287015190505b6133e18582613363565b865550613449565b601f1984166133f7866131d3565b60005b8281101561341f578489015182556001820191506020850194506020810190506133fa565b8683101561343c5784890151613438601f891682613345565b8355505b6001600288020188555050505b505050505050565b600081905092915050565b600061346782612625565b6134718185613451565b9350613481818560208601612641565b80840191505092915050565b6000613499828461345c565b915081905092915050565b600060a0820190506134b96000830188612b68565b81810360208301526134cb8187612c10565b90506134da6040830186612b68565b6134e76060830185612b68565b6134f46080830184612b68565b9695505050505050565b7f4f776e61626c653a206e6577206f776e657220697320746865207a65726f206160008201527f6464726573730000000000000000000000000000000000000000000000000000602082015250565b600061355a602683612bff565b9150613565826134fe565b604082019050919050565b600060208201905081810360008301526135898161354d565b9050919050565b6000819050919050565b6135ab6135a682612510565b613590565b82525050565b60006135bd828861345c565b91506135c9828761359a565b6020820191506135d9828661359a565b6020820191506135e9828561359a565b6020820191506135f9828461345c565b91508190509695505050505050565b7f5061757361626c653a2070617573656400000000000000000000000000000000600082015250565b600061363e601083612bff565b915061364982613608565b602082019050919050565b6000602082019050818103600083015261366d81613631565b9050919050565b7f4f776e61626c653a2063616c6c6572206973206e6f7420746865206f776e6572600082015250565b60006136aa602083612bff565b91506136b582613674565b602082019050919050565b600060208201905081810360008301526136d98161369d565b9050919050565b7f416363657373436f6e74726f6c3a206163636f756e7420000000000000000000600082015250565b6000613716601783613451565b9150613721826136e0565b601782019050919050565b7f206973206d697373696e6720726f6c6520000000000000000000000000000000600082015250565b6000613762601183613451565b915061376d8261372c565b601182019050919050565b600061378382613709565b915061378f828561345c565b915061379a82613755565b91506137a6828461345c565b91508190509392505050565b600060208201905081810360008301526137cc8184612c10565b905092915050565b7f5061757361626c653a206e6f7420706175736564000000000000000000000000600082015250565b600061380a601483612bff565b9150613815826137d4565b602082019050919050565b60006020820190508181036000830152613839816137fd565b9050919050565b600061384b82612510565b915061385683612510565b925082820261386481612510565b9150828204841483151761387b5761387a612f6f565b5b5092915050565b600061388d82612510565b9150600082036138a05761389f612f6f565b5b600182039050919050565b7f537472696e67733a20686578206c656e67746820696e73756666696369656e74600082015250565b60006138e1602083612bff565b91506138ec826138ab565b602082019050919050565b60006020820190508181036000830152613910816138d4565b905091905056fea2646970667358221220822f7efd5a15fc8ab992db202117182bd3a5dd7ad4ab85f6a2cfc2034a2494f364736f6c63430008180033",
  "linkReferences": {},
  "deployedLinkReferences": {}
}