{
  "_format": "hh-sol-artifact-1",
  "contractName": "ReplayTrackingContractV2",
  "sourceName": "contracts/ReplayTrackingContractV2.sol",
  "abi": [
    {
      "inputs": [],
      "stateMutability": "nonpayable",
      "type": "constructor"
    },
    {
      "anonymous": false,
      "inputs": [
        {
          "indexed": false,
          "internalType": "address",
          "name": "admin",
          "type": "address"
        }
      ],
      "name": "AdminAdded",
      "type": "event"
    },
    {
      "anonymous": false,
      "inputs": [
        {
          "indexed": false,
          "internalType": "address",
          "name": "admin",
          "type": "address"
        }
      ],
      "name": "AdminRemoved",
      "type": "event"
    },
    {
      "anonymous": false,
      "inputs": [
        {
          "indexed": true,
          "internalType": "address",
          "name": "previousOwner",
          "type": "address"
        },
        {
          "indexed": true,
          "internalType": "address",
          "name": "newOwner",
          "type": "address"
        }
      ],
      "name": "OwnershipTransferred",
      "type": "event"
    },
    {
      "anonymous": false,
      "inputs": [
        {
          "indexed": false,
          "internalType": "address",
          "name": "account",
          "type": "address"
        }
      ],
      "name": "Paused",
      "type": "event"
    },
    {
      "anonymous": false,
      "inputs": [
        {
          "indexed": false,
          "internalType": "address",
          "name": "user",
          "type": "address"
        },
        {
          "indexed": false,
          "internalType": "uint256",
          "name": "month",
          "type": "uint256"
        },
        {
          "indexed": false,
          "internalType": "uint256",
          "name": "year",
          "type": "uint256"
        },
        {
          "indexed": false,
          "internalType": "uint256",
          "name": "day",
          "type": "uint256"
        },
        {
          "indexed": false,
          "internalType": "string",
          "name": "movieId",
          "type": "string"
        },
        {
          "indexed": false,
          "internalType": "uint256",
          "name": "timeWatched",
          "type": "uint256"
        },
        {
          "indexed": false,
          "internalType": "uint256",
          "name": "amountEarned",
          "type": "uint256"
        }
      ],
      "name": "RecordIncremented",
      "type": "event"
    },
    {
      "anonymous": false,
      "inputs": [
        {
          "indexed": true,
          "internalType": "bytes32",
          "name": "role",
          "type": "bytes32"
        },
        {
          "indexed": true,
          "internalType": "bytes32",
          "name": "previousAdminRole",
          "type": "bytes32"
        },
        {
          "indexed": true,
          "internalType": "bytes32",
          "name": "newAdminRole",
          "type": "bytes32"
        }
      ],
      "name": "RoleAdminChanged",
      "type": "event"
    },
    {
      "anonymous": false,
      "inputs": [
        {
          "indexed": true,
          "internalType": "bytes32",
          "name": "role",
          "type": "bytes32"
        },
        {
          "indexed": true,
          "internalType": "address",
          "name": "account",
          "type": "address"
        },
        {
          "indexed": true,
          "internalType": "address",
          "name": "sender",
          "type": "address"
        }
      ],
      "name": "RoleGranted",
      "type": "event"
    },
    {
      "anonymous": false,
      "inputs": [
        {
          "indexed": true,
          "internalType": "bytes32",
          "name": "role",
          "type": "bytes32"
        },
        {
          "indexed": true,
          "internalType": "address",
          "name": "account",
          "type": "address"
        },
        {
          "indexed": true,
          "internalType": "address",
          "name": "sender",
          "type": "address"
        }
      ],
      "name": "RoleRevoked",
      "type": "event"
    },
    {
      "anonymous": false,
      "inputs": [
        {
          "indexed": false,
          "internalType": "address",
          "name": "tokenAdmin",
          "type": "address"
        }
      ],
      "name": "TokenAdminSet",
      "type": "event"
    },
    {
      "anonymous": false,
      "inputs": [
        {
          "indexed": false,
          "internalType": "address",
          "name": "user",
          "type": "address"
        },
        {
          "indexed": false,
          "internalType": "uint256",
          "name": "month",
          "type": "uint256"
        },
        {
          "indexed": false,
          "internalType": "uint256",
          "name": "year",
          "type": "uint256"
        },
        {
          "indexed": false,
          "internalType": "uint256",
          "name": "day",
          "type": "uint256"
        },
        {
          "indexed": false,
          "internalType": "string",
          "name": "txnId",
          "type": "string"
        },
        {
          "indexed": false,
          "internalType": "address",
          "name": "walletAddress",
          "type": "address"
        },
        {
          "indexed": false,
          "internalType": "uint256",
          "name": "amount",
          "type": "uint256"
        },
        {
          "indexed": false,
          "internalType": "string",
          "name": "type_",
          "type": "string"
        }
      ],
      "name": "TransactionAdded",
      "type": "event"
    },
    {
      "anonymous": false,
      "inputs": [
        {
          "indexed": false,
          "internalType": "address",
          "name": "account",
          "type": "address"
        }
      ],
      "name": "Unpaused",
      "type": "event"
    },
    {
      "inputs": [],
      "name": "ADMIN_ROLE",
      "outputs": [
        {
          "internalType": "bytes32",
          "name": "",
          "type": "bytes32"
        }
      ],
      "stateMutability": "view",
      "type": "function"
    },
    {
      "inputs": [],
      "name": "DEFAULT_ADMIN_ROLE",
      "outputs": [
        {
          "internalType": "bytes32",
          "name": "",
          "type": "bytes32"
        }
      ],
      "stateMutability": "view",
      "type": "function"
    },
    {
      "inputs": [
        {
          "internalType": "address",
          "name": "newAdmin",
          "type": "address"
        }
      ],
      "name": "addAdmin",
      "outputs": [],
      "stateMutability": "nonpayable",
      "type": "function"
    },
    {
      "inputs": [
        {
          "internalType": "address",
          "name": "user",
          "type": "address"
        },
        {
          "internalType": "uint256",
          "name": "amount",
          "type": "uint256"
        }
      ],
      "name": "addTokens",
      "outputs": [],
      "stateMutability": "nonpayable",
      "type": "function"
    },
    {
      "inputs": [
        {
          "internalType": "address",
          "name": "userID",
          "type": "address"
        },
        {
          "internalType": "uint256",
          "name": "month",
          "type": "uint256"
        },
        {
          "internalType": "uint256",
          "name": "year",
          "type": "uint256"
        },
        {
          "internalType": "uint256",
          "name": "day",
          "type": "uint256"
        },
        {
          "internalType": "string",
          "name": "txnId",
          "type": "string"
        },
        {
          "internalType": "address",
          "name": "walletAddress",
          "type": "address"
        },
        {
          "internalType": "uint256",
          "name": "amount",
          "type": "uint256"
        },
        {
          "internalType": "string",
          "name": "type_",
          "type": "string"
        }
      ],
      "name": "addTransaction",
      "outputs": [],
      "stateMutability": "nonpayable",
      "type": "function"
    },
    {
      "inputs": [
        {
          "components": [
            {
              "internalType": "address",
              "name": "userID",
              "type": "address"
            },
            {
              "internalType": "uint256",
              "name": "month",
              "type": "uint256"
            },
            {
              "internalType": "uint256",
              "name": "year",
              "type": "uint256"
            },
            {
              "internalType": "uint256",
              "name": "day",
              "type": "uint256"
            },
            {
              "internalType": "string",
              "name": "movieId",
              "type": "string"
            },
            {
              "internalType": "uint256",
              "name": "timeWatched",
              "type": "uint256"
            },
            {
              "internalType": "uint256",
              "name": "amountEarned",
              "type": "uint256"
            }
          ],
          "internalType": "struct ReplayLibrary.BatchIncrementData[]",
          "name": "data",
          "type": "tuple[]"
        }
      ],
      "name": "batchIncrementRecords",
      "outputs": [],
      "stateMutability": "nonpayable",
      "type": "function"
    },
    {
      "inputs": [
        {
          "internalType": "bytes32",
          "name": "",
          "type": "bytes32"
        }
      ],
      "name": "consolidatedByMonth",
      "outputs": [
        {
          "internalType": "uint256",
          "name": "timeWatched",
          "type": "uint256"
        },
        {
          "internalType": "uint256",
          "name": "amountEarned",
          "type": "uint256"
        }
      ],
      "stateMutability": "view",
      "type": "function"
    },
    {
      "inputs": [
        {
          "internalType": "bytes32",
          "name": "",
          "type": "bytes32"
        },
        {
          "internalType": "uint256",
          "name": "",
          "type": "uint256"
        }
      ],
      "name": "consolidatedByMonthTransactions",
      "outputs": [
        {
          "internalType": "string",
          "name": "txnId",
          "type": "string"
        },
        {
          "internalType": "address",
          "name": "walletAddress",
          "type": "address"
        },
        {
          "internalType": "uint256",
          "name": "amount",
          "type": "uint256"
        },
        {
          "internalType": "string",
          "name": "type_",
          "type": "string"
        }
      ],
      "stateMutability": "view",
      "type": "function"
    },
    {
      "inputs": [
        {
          "internalType": "bytes32",
          "name": "",
          "type": "bytes32"
        }
      ],
      "name": "consolidatedByMovie",
      "outputs": [
        {
          "internalType": "uint256",
          "name": "timeWatched",
          "type": "uint256"
        },
        {
          "internalType": "uint256",
          "name": "amountEarned",
          "type": "uint256"
        }
      ],
      "stateMutability": "view",
      "type": "function"
    },
    {
      "inputs": [
        {
          "internalType": "bytes32",
          "name": "",
          "type": "bytes32"
        }
      ],
      "name": "consolidatedByYear",
      "outputs": [
        {
          "internalType": "uint256",
          "name": "timeWatched",
          "type": "uint256"
        },
        {
          "internalType": "uint256",
          "name": "amountEarned",
          "type": "uint256"
        }
      ],
      "stateMutability": "view",
      "type": "function"
    },
    {
      "inputs": [
        {
          "internalType": "bytes32",
          "name": "",
          "type": "bytes32"
        },
        {
          "internalType": "uint256",
          "name": "",
          "type": "uint256"
        }
      ],
      "name": "consolidatedByYearTransactions",
      "outputs": [
        {
          "internalType": "string",
          "name": "txnId",
          "type": "string"
        },
        {
          "internalType": "address",
          "name": "walletAddress",
          "type": "address"
        },
        {
          "internalType": "uint256",
          "name": "amount",
          "type": "uint256"
        },
        {
          "internalType": "string",
          "name": "type_",
          "type": "string"
        }
      ],
      "stateMutability": "view",
      "type": "function"
    },
    {
      "inputs": [
        {
          "internalType": "bytes32",
          "name": "",
          "type": "bytes32"
        },
        {
          "internalType": "uint256",
          "name": "",
          "type": "uint256"
        }
      ],
      "name": "dailyTransactions",
      "outputs": [
        {
          "internalType": "uint256",
          "name": "day",
          "type": "uint256"
        },
        {
          "internalType": "uint256",
          "name": "month",
          "type": "uint256"
        },
        {
          "internalType": "uint256",
          "name": "year",
          "type": "uint256"
        },
        {
          "internalType": "string",
          "name": "txnId",
          "type": "string"
        },
        {
          "internalType": "address",
          "name": "walletAddress",
          "type": "address"
        },
        {
          "internalType": "uint256",
          "name": "amount",
          "type": "uint256"
        },
        {
          "internalType": "string",
          "name": "type_",
          "type": "string"
        }
      ],
      "stateMutability": "view",
      "type": "function"
    },
    {
      "inputs": [
        {
          "internalType": "uint256",
          "name": "month",
          "type": "uint256"
        },
        {
          "internalType": "uint256",
          "name": "year",
          "type": "uint256"
        }
      ],
      "name": "emitTopEarners",
      "outputs": [],
      "stateMutability": "nonpayable",
      "type": "function"
    },
    {
      "inputs": [
        {
          "internalType": "uint256",
          "name": "month",
          "type": "uint256"
        },
        {
          "internalType": "uint256",
          "name": "year",
          "type": "uint256"
        }
      ],
      "name": "emitTotalEarnedByAllUsers",
      "outputs": [],
      "stateMutability": "nonpayable",
      "type": "function"
    },
    {
      "inputs": [
        {
          "internalType": "address",
          "name": "userID",
          "type": "address"
        },
        {
          "internalType": "uint256",
          "name": "month",
          "type": "uint256"
        },
        {
          "internalType": "uint256",
          "name": "year",
          "type": "uint256"
        }
      ],
      "name": "getConsolidatedByMonth",
      "outputs": [
        {
          "internalType": "uint256",
          "name": "timeWatched",
          "type": "uint256"
        },
        {
          "internalType": "uint256",
          "name": "amountEarned",
          "type": "uint256"
        }
      ],
      "stateMutability": "view",
      "type": "function"
    },
    {
      "inputs": [
        {
          "internalType": "address",
          "name": "userID",
          "type": "address"
        },
        {
          "internalType": "uint256",
          "name": "month",
          "type": "uint256"
        },
        {
          "internalType": "uint256",
          "name": "year",
          "type": "uint256"
        },
        {
          "internalType": "uint256",
          "name": "day",
          "type": "uint256"
        },
        {
          "internalType": "string",
          "name": "movieId",
          "type": "string"
        }
      ],
      "name": "getConsolidatedByMovie",
      "outputs": [
        {
          "internalType": "uint256",
          "name": "timeWatched",
          "type": "uint256"
        },
        {
          "internalType": "uint256",
          "name": "amountEarned",
          "type": "uint256"
        }
      ],
      "stateMutability": "view",
      "type": "function"
    },
    {
      "inputs": [
        {
          "internalType": "address",
          "name": "userID",
          "type": "address"
        },
        {
          "internalType": "uint256",
          "name": "year",
          "type": "uint256"
        }
      ],
      "name": "getConsolidatedByYear",
      "outputs": [
        {
          "internalType": "uint256",
          "name": "timeWatched",
          "type": "uint256"
        },
        {
          "internalType": "uint256",
          "name": "amountEarned",
          "type": "uint256"
        }
      ],
      "stateMutability": "view",
      "type": "function"
    },
    {
      "inputs": [
        {
          "internalType": "address",
          "name": "userID",
          "type": "address"
        },
        {
          "internalType": "uint256",
          "name": "month",
          "type": "uint256"
        },
        {
          "internalType": "uint256",
          "name": "year",
          "type": "uint256"
        },
        {
          "internalType": "uint256",
          "name": "day",
          "type": "uint256"
        }
      ],
      "name": "getDailyTransactions",
      "outputs": [
        {
          "components": [
            {
              "internalType": "uint256",
              "name": "day",
              "type": "uint256"
            },
            {
              "internalType": "uint256",
              "name": "month",
              "type": "uint256"
            },
            {
              "internalType": "uint256",
              "name": "year",
              "type": "uint256"
            },
            {
              "internalType": "string",
              "name": "txnId",
              "type": "string"
            },
            {
              "internalType": "address",
              "name": "walletAddress",
              "type": "address"
            },
            {
              "internalType": "uint256",
              "name": "amount",
              "type": "uint256"
            },
            {
              "internalType": "string",
              "name": "type_",
              "type": "string"
            }
          ],
          "internalType": "struct ReplayLibrary.DailyTransaction[]",
          "name": "",
          "type": "tuple[]"
        }
      ],
      "stateMutability": "view",
      "type": "function"
    },
    {
      "inputs": [
        {
          "internalType": "uint256",
          "name": "month",
          "type": "uint256"
        },
        {
          "internalType": "uint256",
          "name": "year",
          "type": "uint256"
        }
      ],
      "name": "getMonthlyYearlyReport",
      "outputs": [
        {
          "internalType": "address[]",
          "name": "users",
          "type": "address[]"
        },
        {
          "internalType": "uint256[]",
          "name": "monthlyWatched",
          "type": "uint256[]"
        },
        {
          "internalType": "uint256[]",
          "name": "monthlyEarned",
          "type": "uint256[]"
        },
        {
          "internalType": "uint256[]",
          "name": "yearlyWatched",
          "type": "uint256[]"
        },
        {
          "internalType": "uint256[]",
          "name": "yearlyEarned",
          "type": "uint256[]"
        }
      ],
      "stateMutability": "view",
      "type": "function"
    },
    {
      "inputs": [
        {
          "internalType": "bytes32",
          "name": "role",
          "type": "bytes32"
        }
      ],
      "name": "getRoleAdmin",
      "outputs": [
        {
          "internalType": "bytes32",
          "name": "",
          "type": "bytes32"
        }
      ],
      "stateMutability": "view",
      "type": "function"
    },
    {
      "inputs": [
        {
          "internalType": "address",
          "name": "userID",
          "type": "address"
        },
        {
          "internalType": "uint256",
          "name": "month",
          "type": "uint256"
        },
        {
          "internalType": "uint256",
          "name": "year",
          "type": "uint256"
        }
      ],
      "name": "getTotalTransactionsByUser",
      "outputs": [
        {
          "internalType": "uint256",
          "name": "totalTransactions",
          "type": "uint256"
        }
      ],
      "stateMutability": "view",
      "type": "function"
    },
    {
      "inputs": [
        {
          "internalType": "address",
          "name": "userID",
          "type": "address"
        },
        {
          "internalType": "uint256",
          "name": "month",
          "type": "uint256"
        },
        {
          "internalType": "uint256",
          "name": "year",
          "type": "uint256"
        }
      ],
      "name": "getTransactionsByMonth",
      "outputs": [
        {
          "components": [
            {
              "internalType": "string",
              "name": "txnId",
              "type": "string"
            },
            {
              "internalType": "address",
              "name": "walletAddress",
              "type": "address"
            },
            {
              "internalType": "uint256",
              "name": "amount",
              "type": "uint256"
            },
            {
              "internalType": "string",
              "name": "type_",
              "type": "string"
            }
          ],
          "internalType": "struct ReplayLibrary.Transaction[]",
          "name": "",
          "type": "tuple[]"
        }
      ],
      "stateMutability": "view",
      "type": "function"
    },
    {
      "inputs": [
        {
          "internalType": "address",
          "name": "userID",
          "type": "address"
        },
        {
          "internalType": "uint256",
          "name": "year",
          "type": "uint256"
        }
      ],
      "name": "getTransactionsByYear",
      "outputs": [
        {
          "components": [
            {
              "internalType": "string",
              "name": "txnId",
              "type": "string"
            },
            {
              "internalType": "address",
              "name": "walletAddress",
              "type": "address"
            },
            {
              "internalType": "uint256",
              "name": "amount",
              "type": "uint256"
            },
            {
              "internalType": "string",
              "name": "type_",
              "type": "string"
            }
          ],
          "internalType": "struct ReplayLibrary.Transaction[]",
          "name": "",
          "type": "tuple[]"
        }
      ],
      "stateMutability": "view",
      "type": "function"
    },
    {
      "inputs": [
        {
          "internalType": "address",
          "name": "userID",
          "type": "address"
        },
        {
          "internalType": "uint256",
          "name": "topYear",
          "type": "uint256"
        }
      ],
      "name": "getUserDetails",
      "outputs": [
        {
          "internalType": "uint256",
          "name": "balance",
          "type": "uint256"
        },
        {
          "internalType": "uint256",
          "name": "nonce",
          "type": "uint256"
        },
        {
          "internalType": "uint256",
          "name": "totalWatched",
          "type": "uint256"
        },
        {
          "internalType": "uint256",
          "name": "totalEarned",
          "type": "uint256"
        }
      ],
      "stateMutability": "view",
      "type": "function"
    },
    {
      "inputs": [
        {
          "internalType": "address",
          "name": "userID",
          "type": "address"
        },
        {
          "internalType": "uint256",
          "name": "month",
          "type": "uint256"
        },
        {
          "internalType": "uint256",
          "name": "year",
          "type": "uint256"
        }
      ],
      "name": "getUserSummary",
      "outputs": [
        {
          "internalType": "uint256",
          "name": "totalWatched",
          "type": "uint256"
        },
        {
          "internalType": "uint256",
          "name": "totalEarned",
          "type": "uint256"
        }
      ],
      "stateMutability": "view",
      "type": "function"
    },
    {
      "inputs": [
        {
          "internalType": "bytes32",
          "name": "role",
          "type": "bytes32"
        },
        {
          "internalType": "address",
          "name": "account",
          "type": "address"
        }
      ],
      "name": "grantRole",
      "outputs": [],
      "stateMutability": "nonpayable",
      "type": "function"
    },
    {
      "inputs": [
        {
          "internalType": "bytes32",
          "name": "role",
          "type": "bytes32"
        },
        {
          "internalType": "address",
          "name": "account",
          "type": "address"
        }
      ],
      "name": "hasRole",
      "outputs": [
        {
          "internalType": "bool",
          "name": "",
          "type": "bool"
        }
      ],
      "stateMutability": "view",
      "type": "function"
    },
    {
      "inputs": [
        {
          "internalType": "address",
          "name": "userID",
          "type": "address"
        },
        {
          "internalType": "uint256",
          "name": "month",
          "type": "uint256"
        },
        {
          "internalType": "uint256",
          "name": "year",
          "type": "uint256"
        },
        {
          "internalType": "uint256",
          "name": "day",
          "type": "uint256"
        },
        {
          "internalType": "string",
          "name": "movieId",
          "type": "string"
        },
        {
          "internalType": "uint256",
          "name": "timeWatched",
          "type": "uint256"
        },
        {
          "internalType": "uint256",
          "name": "amountEarned",
          "type": "uint256"
        }
      ],
      "name": "incrementRecord",
      "outputs": [],
      "stateMutability": "nonpayable",
      "type": "function"
    },
    {
      "inputs": [
        {
          "internalType": "address",
          "name": "",
          "type": "address"
        }
      ],
      "name": "nonces",
      "outputs": [
        {
          "internalType": "uint256",
          "name": "",
          "type": "uint256"
        }
      ],
      "stateMutability": "view",
      "type": "function"
    },
    {
      "inputs": [],
      "name": "owner",
      "outputs": [
        {
          "internalType": "address",
          "name": "",
          "type": "address"
        }
      ],
      "stateMutability": "view",
      "type": "function"
    },
    {
      "inputs": [],
      "name": "pause",
      "outputs": [],
      "stateMutability": "nonpayable",
      "type": "function"
    },
    {
      "inputs": [],
      "name": "paused",
      "outputs": [
        {
          "internalType": "bool",
          "name": "",
          "type": "bool"
        }
      ],
      "stateMutability": "view",
      "type": "function"
    },
    {
      "inputs": [
        {
          "internalType": "address",
          "name": "adminToRemove",
          "type": "address"
        }
      ],
      "name": "removeAdmin",
      "outputs": [],
      "stateMutability": "nonpayable",
      "type": "function"
    },
    {
      "inputs": [],
      "name": "renounceOwnership",
      "outputs": [],
      "stateMutability": "nonpayable",
      "type": "function"
    },
    {
      "inputs": [
        {
          "internalType": "bytes32",
          "name": "role",
          "type": "bytes32"
        },
        {
          "internalType": "address",
          "name": "account",
          "type": "address"
        }
      ],
      "name": "renounceRole",
      "outputs": [],
      "stateMutability": "nonpayable",
      "type": "function"
    },
    {
      "inputs": [
        {
          "internalType": "bytes32",
          "name": "role",
          "type": "bytes32"
        },
        {
          "internalType": "address",
          "name": "account",
          "type": "address"
        }
      ],
      "name": "revokeRole",
      "outputs": [],
      "stateMutability": "nonpayable",
      "type": "function"
    },
    {
      "inputs": [
        {
          "internalType": "address",
          "name": "newTokenAdmin",
          "type": "address"
        }
      ],
      "name": "setTokenAdmin",
      "outputs": [],
      "stateMutability": "nonpayable",
      "type": "function"
    },
    {
      "inputs": [
        {
          "internalType": "bytes4",
          "name": "interfaceId",
          "type": "bytes4"
        }
      ],
      "name": "supportsInterface",
      "outputs": [
        {
          "internalType": "bool",
          "name": "",
          "type": "bool"
        }
      ],
      "stateMutability": "view",
      "type": "function"
    },
    {
      "inputs": [],
      "name": "tokenAdmin",
      "outputs": [
        {
          "internalType": "address",
          "name": "",
          "type": "address"
        }
      ],
      "stateMutability": "view",
      "type": "function"
    },
    {
      "inputs": [
        {
          "internalType": "address",
          "name": "newOwner",
          "type": "address"
        }
      ],
      "name": "transferOwnership",
      "outputs": [],
      "stateMutability": "nonpayable",
      "type": "function"
    },
    {
      "inputs": [],
      "name": "unpause",
      "outputs": [],
      "stateMutability": "nonpayable",
      "type": "function"
    },
    {
      "inputs": [
        {
          "internalType": "address",
          "name": "user",
          "type": "address"
        },
        {
          "internalType": "uint256",
          "name": "amount",
          "type": "uint256"
        }
      ],
      "name": "updateBalance",
      "outputs": [],
      "stateMutability": "nonpayable",
      "type": "function"
    },
    {
      "inputs": [
        {
          "internalType": "address",
          "name": "",
          "type": "address"
        }
      ],
      "name": "wallets",
      "outputs": [
        {
          "internalType": "uint256",
          "name": "",
          "type": "uint256"
        }
      ],
      "stateMutability": "view",
      "type": "function"
    }
  ],
  "bytecode": "0x60806040523480156200001157600080fd5b506200003262000026620000eb60201b60201c565b620000f360201b60201c565b600180819055506000600260006101000a81548160ff021916908315150217905550620000696000801b33620001b760201b60201c565b6200009b7fa49807205ce4d355092ef5a8a18f56e8913cf4a201fbe287825b095693c2177533620001b760201b60201c565b7f44d6d25963f097ad14f29f06854a01f575648a1ef82f30e562ccd3889717e33933604051620000cc919062000895565b60405180910390a1620000e533620002a960201b60201c565b62000d35565b600033905090565b60008060009054906101000a900473ffffffffffffffffffffffffffffffffffffffff169050816000806101000a81548173ffffffffffffffffffffffffffffffffffffffff021916908373ffffffffffffffffffffffffffffffffffffffff1602179055508173ffffffffffffffffffffffffffffffffffffffff168173ffffffffffffffffffffffffffffffffffffffff167f8be0079c531659141344cd1fd0a4f28419497f9722a3daafe3b4186f6b6457e060405160405180910390a35050565b620001c982826200039960201b60201c565b620002a55760016003600084815260200190815260200160002060000160008373ffffffffffffffffffffffffffffffffffffffff1673ffffffffffffffffffffffffffffffffffffffff16815260200190815260200160002060006101000a81548160ff0219169083151502179055506200024a620000eb60201b60201c565b73ffffffffffffffffffffffffffffffffffffffff168173ffffffffffffffffffffffffffffffffffffffff16837f2f8788117e7eff1d82e926ec794901d17c78024a50270940304540a733656f0d60405160405180910390a45b5050565b620002b96200040460201b60201c565b600073ffffffffffffffffffffffffffffffffffffffff168173ffffffffffffffffffffffffffffffffffffffff16036200032b576040517f08c379a0000000000000000000000000000000000000000000000000000000008152600401620003229062000913565b60405180910390fd5b6200035d7fa49807205ce4d355092ef5a8a18f56e8913cf4a201fbe287825b095693c21775826200049560201b60201c565b7f44d6d25963f097ad14f29f06854a01f575648a1ef82f30e562ccd3889717e339816040516200038e919062000895565b60405180910390a150565b60006003600084815260200190815260200160002060000160008373ffffffffffffffffffffffffffffffffffffffff1673ffffffffffffffffffffffffffffffffffffffff16815260200190815260200160002060009054906101000a900460ff16905092915050565b62000414620000eb60201b60201c565b73ffffffffffffffffffffffffffffffffffffffff166200043a620004ce60201b60201c565b73ffffffffffffffffffffffffffffffffffffffff161462000493576040517f08c379a00000000000000000000000000000000000000000000000000000000081526004016200048a9062000985565b60405180910390fd5b565b620004a682620004f760201b60201c565b620004b7816200051760201b60201c565b620004c98383620001b760201b60201c565b505050565b60008060009054906101000a900473ffffffffffffffffffffffffffffffffffffffff16905090565b600060036000838152602001908152602001600020600101549050919050565b62000538816200052c620000eb60201b60201c565b6200053b60201b60201c565b50565b6200054d82826200039960201b60201c565b620005f1576200057b8173ffffffffffffffffffffffffffffffffffffffff166014620005f560201b60201c565b620005918360001c6020620005f560201b60201c565b604051602001620005a492919062000ac0565b6040516020818303038152906040526040517f08c379a0000000000000000000000000000000000000000000000000000000008152600401620005e8919062000b54565b60405180910390fd5b5050565b6060600060028360026200060a919062000bb1565b62000616919062000bfc565b67ffffffffffffffff81111562000632576200063162000c37565b5b6040519080825280601f01601f191660200182016040528015620006655781602001600182028036833780820191505090505b5090507f300000000000000000000000000000000000000000000000000000000000000081600081518110620006a0576200069f62000c66565b5b60200101907effffffffffffffffffffffffffffffffffffffffffffffffffffffffffffff1916908160001a9053507f78000000000000000000000000000000000000000000000000000000000000008160018151811062000707576200070662000c66565b5b60200101907effffffffffffffffffffffffffffffffffffffffffffffffffffffffffffff1916908160001a9053506000600184600262000749919062000bb1565b62000755919062000bfc565b90505b6001811115620007ff577f3031323334353637383961626364656600000000000000000000000000000000600f8616601081106200079b576200079a62000c66565b5b1a60f81b828281518110620007b557620007b462000c66565b5b60200101907effffffffffffffffffffffffffffffffffffffffffffffffffffffffffffff1916908160001a905350600485901c945080620007f79062000c95565b905062000758565b506000841462000846576040517f08c379a00000000000000000000000000000000000000000000000000000000081526004016200083d9062000d13565b60405180910390fd5b8091505092915050565b600073ffffffffffffffffffffffffffffffffffffffff82169050919050565b60006200087d8262000850565b9050919050565b6200088f8162000870565b82525050565b6000602082019050620008ac600083018462000884565b92915050565b600082825260208201905092915050565b7f496e76616c69642061646d696e20616464726573730000000000000000000000600082015250565b6000620008fb601583620008b2565b91506200090882620008c3565b602082019050919050565b600060208201905081810360008301526200092e81620008ec565b9050919050565b7f4f776e61626c653a2063616c6c6572206973206e6f7420746865206f776e6572600082015250565b60006200096d602083620008b2565b91506200097a8262000935565b602082019050919050565b60006020820190508181036000830152620009a0816200095e565b9050919050565b600081905092915050565b7f416363657373436f6e74726f6c3a206163636f756e7420000000000000000000600082015250565b6000620009ea601783620009a7565b9150620009f782620009b2565b601782019050919050565b600081519050919050565b60005b8381101562000a2d57808201518184015260208101905062000a10565b60008484015250505050565b600062000a468262000a02565b62000a528185620009a7565b935062000a6481856020860162000a0d565b80840191505092915050565b7f206973206d697373696e6720726f6c6520000000000000000000000000000000600082015250565b600062000aa8601183620009a7565b915062000ab58262000a70565b601182019050919050565b600062000acd82620009db565b915062000adb828562000a39565b915062000ae88262000a99565b915062000af6828462000a39565b91508190509392505050565b6000601f19601f8301169050919050565b600062000b208262000a02565b62000b2c8185620008b2565b935062000b3e81856020860162000a0d565b62000b498162000b02565b840191505092915050565b6000602082019050818103600083015262000b70818462000b13565b905092915050565b6000819050919050565b7f4e487b7100000000000000000000000000000000000000000000000000000000600052601160045260246000fd5b600062000bbe8262000b78565b915062000bcb8362000b78565b925082820262000bdb8162000b78565b9150828204841483151762000bf55762000bf462000b82565b5b5092915050565b600062000c098262000b78565b915062000c168362000b78565b925082820190508082111562000c315762000c3062000b82565b5b92915050565b7f4e487b7100000000000000000000000000000000000000000000000000000000600052604160045260246000fd5b7f4e487b7100000000000000000000000000000000000000000000000000000000600052603260045260246000fd5b600062000ca28262000b78565b91506000820362000cb85762000cb762000b82565b5b600182039050919050565b7f537472696e67733a20686578206c656e67746820696e73756666696369656e74600082015250565b600062000cfb602083620008b2565b915062000d088262000cc3565b602082019050919050565b6000602082019050818103600083015262000d2e8162000cec565b9050919050565b615e3a8062000d456000396000f3fe608060405234801561001057600080fd5b50600436106102695760003560e01c80637ecebe0011610151578063b7e1917c116100c3578063e0b1cccb11610087578063e0b1cccb1461080c578063e2a050e514610828578063ebe1a10514610844578063f2fde38b14610860578063f74575941461087c578063f907a6621461089857610269565b8063b7e1917c1461073c578063be6d6a241461075a578063d547741f1461078a578063d54ea943146107a6578063d5ee8be1146107d657610269565b80638da5cb5b116101155780638da5cb5b1461063c57806391d148541461065a578063929681251461068a5780639726e90d146106bd578063a217fddf146106ee578063b63ffff31461070c57610269565b80637ecebe0014610586578063841a2f75146105b65780638456cb59146105d257806389b08f11146105dc5780638b92f7101461060c57610269565b806336568abe116101ea5780636039fbdb116101ae5780636039fbdb146104d957806365071aca146104f55780637048027514610511578063715018a61461052d57806375b238fc146105375780637dd7ea7b1461055557610269565b806336568abe146104305780633f4ba83a1461044c578063435beef21461045657806349128bd21461048a5780635c975abb146104bb57610269565b80631785f53c116102315780631785f53c146103665780631b97b4e214610382578063248a9ca3146103b357806328186eb1146103e35780632f2ff15d1461041457610269565b806301ffc9a71461026e578063033941e21461029e57806307adba56146102cf5780630832305f146103005780630f67a96d14610333575b600080fd5b61028860048036038101906102839190614008565b6108b4565b6040516102959190614050565b60405180910390f35b6102b860048036038101906102b391906140ff565b61092e565b6040516102c692919061414e565b60405180910390f35b6102e960048036038101906102e491906141ad565b61098c565b6040516102f792919061414e565b60405180910390f35b61031a600480360381019061031591906141da565b6109b0565b60405161032a94939291906142b9565b60405180910390f35b61034d600480360381019061034891906141da565b610b2d565b60405161035d94939291906142b9565b60405180910390f35b610380600480360381019061037b919061430c565b610caa565b005b61039c60048036038101906103979190614339565b610d7f565b6040516103aa92919061414e565b60405180910390f35b6103cd60048036038101906103c891906141ad565b610ddf565b6040516103da919061439b565b60405180910390f35b6103fd60048036038101906103f891906141ad565b610dff565b60405161040b92919061414e565b60405180910390f35b61042e600480360381019061042991906143b6565b610e23565b005b61044a600480360381019061044591906143b6565b610e44565b005b610454610ec7565b005b610470600480360381019061046b91906143f6565b610f3a565b6040516104819594939291906145b2565b60405180910390f35b6104a4600480360381019061049f919061475d565b61135d565b6040516104b292919061414e565b60405180910390f35b6104c36113c1565b6040516104d09190614050565b60405180910390f35b6104f360048036038101906104ee91906140ff565b6113d8565b005b61050f600480360381019061050a91906147f4565b61157b565b005b61052b6004803603810190610526919061430c565b611a10565b005b610535611aeb565b005b61053f611aff565b60405161054c919061439b565b60405180910390f35b61056f600480360381019061056a91906141ad565b611b23565b60405161057d92919061414e565b60405180910390f35b6105a0600480360381019061059b919061430c565b611b47565b6040516105ad91906148e2565b60405180910390f35b6105d060048036038101906105cb91906143f6565b611b5f565b005b6105da611d02565b005b6105f660048036038101906105f1919061430c565b611d75565b60405161060391906148e2565b60405180910390f35b610626600480360381019061062191906148fd565b611d8d565b6040516106339190614b13565b60405180910390f35b610644611feb565b6040516106519190614b35565b60405180910390f35b610674600480360381019061066f91906143b6565b612014565b6040516106819190614050565b60405180910390f35b6106a4600480360381019061069f91906140ff565b61207f565b6040516106b49493929190614b50565b60405180910390f35b6106d760048036038101906106d29190614339565b61219f565b6040516106e592919061414e565b60405180910390f35b6106f66122ee565b604051610703919061439b565b60405180910390f35b61072660048036038101906107219190614339565b6122f5565b6040516107339190614cc1565b60405180910390f35b6107446124fd565b6040516107519190614b35565b60405180910390f35b610774600480360381019061076f91906140ff565b612523565b6040516107819190614cc1565b60405180910390f35b6107a4600480360381019061079f91906143b6565b612729565b005b6107c060048036038101906107bb9190614339565b61274a565b6040516107cd91906148e2565b60405180910390f35b6107f060048036038101906107eb91906141da565b612b68565b6040516108039796959493929190614ce3565b60405180910390f35b610826600480360381019061082191906140ff565b612cf7565b005b610842600480360381019061083d9190614dc0565b612e88565b005b61085e60048036038101906108599190614e0d565b6130e3565b005b61087a6004803603810190610875919061430c565b6132f4565b005b6108966004803603810190610891919061430c565b613377565b005b6108b260048036038101906108ad91906143f6565b613469565b005b60007f7965db0b000000000000000000000000000000000000000000000000000000007bffffffffffffffffffffffffffffffffffffffffffffffffffffffff1916827bffffffffffffffffffffffffffffffffffffffffffffffffffffffff1916148061092757506109268261360c565b5b9050919050565b600080600061093d8585613676565b9050600060096000838152602001908152602001600020604051806040016040529081600082015481526020016001820154815250509050806000015181602001519350935050509250929050565b60076020528060005260406000206000915090508060000154908060010154905082565b600a60205281600052604060002081815481106109cc57600080fd5b9060005260206000209060040201600091509150508060000180546109f090614efa565b80601f0160208091040260200160405190810160405280929190818152602001828054610a1c90614efa565b8015610a695780601f10610a3e57610100808354040283529160200191610a69565b820191906000526020600020905b815481529060010190602001808311610a4c57829003601f168201915b5050505050908060010160009054906101000a900473ffffffffffffffffffffffffffffffffffffffff1690806002015490806003018054610aaa90614efa565b80601f0160208091040260200160405190810160405280929190818152602001828054610ad690614efa565b8015610b235780601f10610af857610100808354040283529160200191610b23565b820191906000526020600020905b815481529060010190602001808311610b0657829003601f168201915b5050505050905084565b600b6020528160005260406000208181548110610b4957600080fd5b906000526020600020906004020160009150915050806000018054610b6d90614efa565b80601f0160208091040260200160405190810160405280929190818152602001828054610b9990614efa565b8015610be65780601f10610bbb57610100808354040283529160200191610be6565b820191906000526020600020905b815481529060010190602001808311610bc957829003601f168201915b5050505050908060010160009054906101000a900473ffffffffffffffffffffffffffffffffffffffff1690806002015490806003018054610c2790614efa565b80601f0160208091040260200160405190810160405280929190818152602001828054610c5390614efa565b8015610ca05780601f10610c7557610100808354040283529160200191610ca0565b820191906000526020600020905b815481529060010190602001808311610c8357829003601f168201915b5050505050905084565b610cb26136a9565b610cdc7fa49807205ce4d355092ef5a8a18f56e8913cf4a201fbe287825b095693c2177582612014565b610d1b576040517f08c379a0000000000000000000000000000000000000000000000000000000008152600401610d1290614f9d565b60405180910390fd5b610d457fa49807205ce4d355092ef5a8a18f56e8913cf4a201fbe287825b095693c2177582612729565b7fa3b62bc36326052d97ea62d63c3d60308ed4c3ea8ac079dd8499f1e9c4f80c0f81604051610d749190614b35565b60405180910390a150565b6000806000610d8f868686613727565b905060006008600083815260200190815260200160002060405180604001604052908160008201548152602001600182015481525050905080600001518160200151935093505050935093915050565b600060036000838152602001908152602001600020600101549050919050565b60086020528060005260406000206000915090508060000154908060010154905082565b610e2c82610ddf565b610e358161375d565b610e3f8383613771565b505050565b610e4c613852565b73ffffffffffffffffffffffffffffffffffffffff168173ffffffffffffffffffffffffffffffffffffffff1614610eb9576040517f08c379a0000000000000000000000000000000000000000000000000000000008152600401610eb09061502f565b60405180910390fd5b610ec3828261385a565b5050565b610ef17fa49807205ce4d355092ef5a8a18f56e8913cf4a201fbe287825b095693c2177533612014565b610f30576040517f08c379a0000000000000000000000000000000000000000000000000000000008152600401610f27906150c1565b60405180910390fd5b610f3861393c565b565b60608060608060606000610f4e600d61399f565b90508067ffffffffffffffff811115610f6a57610f69614632565b5b604051908082528060200260200182016040528015610f985781602001602082028036833780820191505090505b5095508067ffffffffffffffff811115610fb557610fb4614632565b5b604051908082528060200260200182016040528015610fe35781602001602082028036833780820191505090505b5094508067ffffffffffffffff81111561100057610fff614632565b5b60405190808252806020026020018201604052801561102e5781602001602082028036833780820191505090505b5093508067ffffffffffffffff81111561104b5761104a614632565b5b6040519080825280602002602001820160405280156110795781602001602082028036833780820191505090505b5092508067ffffffffffffffff81111561109657611095614632565b5b6040519080825280602002602001820160405280156110c45781602001602082028036833780820191505090505b50915060005b818110156113515760006110e882600d6139b490919063ffffffff16565b9050808883815181106110fe576110fd6150e1565b5b602002602001019073ffffffffffffffffffffffffffffffffffffffff16908173ffffffffffffffffffffffffffffffffffffffff16815250506000611145828c8c613727565b90506000600860008381526020019081526020016000206000015414158061118457506000600860008381526020019081526020016000206001015414155b156111fa5760086000828152602001908152602001600020600001548884815181106111b3576111b26150e1565b5b60200260200101818152505060086000828152602001908152602001600020600101548784815181106111e9576111e86150e1565b5b60200260200101818152505061123d565b600088848151811061120f5761120e6150e1565b5b60200260200101818152505060008784815181106112305761122f6150e1565b5b6020026020010181815250505b6000611249838c613676565b90506000600960008381526020019081526020016000206000015414158061128857506000600960008381526020019081526020016000206001015414155b156112fe5760096000828152602001908152602001600020600001548785815181106112b7576112b66150e1565b5b60200260200101818152505060096000828152602001908152602001600020600101548685815181106112ed576112ec6150e1565b5b602002602001018181525050611341565b6000878581518110611313576113126150e1565b5b6020026020010181815250506000868581518110611334576113336150e1565b5b6020026020010181815250505b50505080806001019150506110ca565b50509295509295909350565b600080600061136f88888888886139ce565b9050600060076000838152602001908152602001600020604051806040016040529081600082015481526020016001820154815250509050806000015181602001519350935050509550959350505050565b6000600260009054906101000a900460ff16905090565b6114027fa49807205ce4d355092ef5a8a18f56e8913cf4a201fbe287825b095693c2177533612014565b611441576040517f08c379a0000000000000000000000000000000000000000000000000000000008152600401611438906150c1565b60405180910390fd5b611449613a0a565b60026001540361148e576040517f08c379a00000000000000000000000000000000000000000000000000000000081526004016114859061515c565b60405180910390fd5b6002600181905550600073ffffffffffffffffffffffffffffffffffffffff168273ffffffffffffffffffffffffffffffffffffffff1603611505576040517f08c379a00000000000000000000000000000000000000000000000000000000081526004016114fc906151c8565b60405180910390fd5b80600460008473ffffffffffffffffffffffffffffffffffffffff1673ffffffffffffffffffffffffffffffffffffffff16815260200190815260200160002060008282546115549190615217565b9250508190555061156f82600d613a5490919063ffffffff16565b50600180819055505050565b6115a57fa49807205ce4d355092ef5a8a18f56e8913cf4a201fbe287825b095693c2177533612014565b6115e4576040517f08c379a00000000000000000000000000000000000000000000000000000000081526004016115db906150c1565b60405180910390fd5b6115ec613a0a565b600260015403611631576040517f08c379a00000000000000000000000000000000000000000000000000000000081526004016116289061515c565b60405180910390fd5b60026001819055506000611646898989613727565b905060006116548a89613676565b9050600061169a8b8b8b8b6040518060400160405280600181526020017f30000000000000000000000000000000000000000000000000000000000000008152506139ce565b9050600a600084815260200190815260200160002060405180608001604052808981526020018873ffffffffffffffffffffffffffffffffffffffff168152602001878152602001868152509080600181540180825580915050600190039060005260206000209060040201600090919091909150600082015181600001908161172491906153f7565b5060208201518160010160006101000a81548173ffffffffffffffffffffffffffffffffffffffff021916908373ffffffffffffffffffffffffffffffffffffffff16021790555060408201518160020155606082015181600301908161178b91906153f7565b5050507ffa56ab7a7274f82e783f651a8ff35abcc9f770ffb744562fa9802fa63bd6ad648b8b8b8b8b8b8b8b6040516117cb9897969594939291906154c9565b60405180910390a1600b600083815260200190815260200160002060405180608001604052808981526020018873ffffffffffffffffffffffffffffffffffffffff168152602001878152602001868152509080600181540180825580915050600190039060005260206000209060040201600090919091909150600082015181600001908161185b91906153f7565b5060208201518160010160006101000a81548173ffffffffffffffffffffffffffffffffffffffff021916908373ffffffffffffffffffffffffffffffffffffffff1602179055506040820151816002015560608201518160030190816118c291906153f7565b505050600c60008281526020019081526020016000206040518060e001604052808a81526020018c81526020018b81526020018981526020018873ffffffffffffffffffffffffffffffffffffffff168152602001878152602001868152509080600181540180825580915050600190039060005260206000209060070201600090919091909150600082015181600001556020820151816001015560408201518160020155606082015181600301908161197d91906153f7565b5060808201518160040160006101000a81548173ffffffffffffffffffffffffffffffffffffffff021916908373ffffffffffffffffffffffffffffffffffffffff16021790555060a0820151816005015560c08201518160060190816119e491906153f7565b5050506119fb8b600d613a5490919063ffffffff16565b50505050600180819055505050505050505050565b611a186136a9565b600073ffffffffffffffffffffffffffffffffffffffff168173ffffffffffffffffffffffffffffffffffffffff1603611a87576040517f08c379a0000000000000000000000000000000000000000000000000000000008152600401611a7e906155a1565b60405180910390fd5b611ab17fa49807205ce4d355092ef5a8a18f56e8913cf4a201fbe287825b095693c2177582610e23565b7f44d6d25963f097ad14f29f06854a01f575648a1ef82f30e562ccd3889717e33981604051611ae09190614b35565b60405180910390a150565b611af36136a9565b611afd6000613a84565b565b7fa49807205ce4d355092ef5a8a18f56e8913cf4a201fbe287825b095693c2177581565b60096020528060005260406000206000915090508060000154908060010154905082565b60066020528060005260406000206000915090505481565b611b897fa49807205ce4d355092ef5a8a18f56e8913cf4a201fbe287825b095693c2177533612014565b611bc8576040517f08c379a0000000000000000000000000000000000000000000000000000000008152600401611bbf906150c1565b60405180910390fd5b60005b611bd5600d61399f565b811015611cfd576000611bf282600d6139b490919063ffffffff16565b90506000611c01828686613727565b90506000611c0f8386613676565b90507fb545172a58c326b4a7140f5d4f97f38b584093af0bc3bbc408856ceb89de9031838787600060086000888152602001908152602001600020600001546008600089815260200190815260200160002060010154604051611c7796959493929190615622565b60405180910390a17fb545172a58c326b4a7140f5d4f97f38b584093af0bc3bbc408856ceb89de9031838787600060096000878152602001908152602001600020600001546009600088815260200190815260200160002060010154604051611ce596959493929190615622565b60405180910390a15050508080600101915050611bcb565b505050565b611d2c7fa49807205ce4d355092ef5a8a18f56e8913cf4a201fbe287825b095693c2177533612014565b611d6b576040517f08c379a0000000000000000000000000000000000000000000000000000000008152600401611d62906150c1565b60405180910390fd5b611d73613b48565b565b60046020528060005260406000206000915090505481565b60606000611dd3868686866040518060400160405280600181526020017f30000000000000000000000000000000000000000000000000000000000000008152506139ce565b9050600c6000828152602001908152602001600020805480602002602001604051908101604052809291908181526020016000905b82821015611fdc57838290600052602060002090600702016040518060e0016040529081600082015481526020016001820154815260200160028201548152602001600382018054611e5990614efa565b80601f0160208091040260200160405190810160405280929190818152602001828054611e8590614efa565b8015611ed25780601f10611ea757610100808354040283529160200191611ed2565b820191906000526020600020905b815481529060010190602001808311611eb557829003601f168201915b505050505081526020016004820160009054906101000a900473ffffffffffffffffffffffffffffffffffffffff1673ffffffffffffffffffffffffffffffffffffffff1673ffffffffffffffffffffffffffffffffffffffff16815260200160058201548152602001600682018054611f4b90614efa565b80601f0160208091040260200160405190810160405280929190818152602001828054611f7790614efa565b8015611fc45780601f10611f9957610100808354040283529160200191611fc4565b820191906000526020600020905b815481529060010190602001808311611fa757829003601f168201915b50505050508152505081526020019060010190611e08565b50505050915050949350505050565b60008060009054906101000a900473ffffffffffffffffffffffffffffffffffffffff16905090565b60006003600084815260200190815260200160002060000160008373ffffffffffffffffffffffffffffffffffffffff1673ffffffffffffffffffffffffffffffffffffffff16815260200190815260200160002060009054906101000a900460ff16905092915050565b600080600080600460008773ffffffffffffffffffffffffffffffffffffffff1673ffffffffffffffffffffffffffffffffffffffff168152602001908152602001600020549350600660008773ffffffffffffffffffffffffffffffffffffffff1673ffffffffffffffffffffffffffffffffffffffff16815260200190815260200160002054925060006107e590505b8581116121955760006121248883613676565b905060006009600083815260200190815260200160002060405180604001604052908160008201548152602001600182015481525050905080600001518561216c9190615217565b945080602001518461217e9190615217565b93505050808061218d90615696565b915050612111565b5092959194509250565b6000806000915060009050600084146122085760006121bf868686613727565b9050600060086000838152602001908152602001600020604051806040016040529081600082015481526020016001820154815250509050806000015193508060200151925050505b60006122148685613676565b905060006009600083815260200190815260200160002060405180604001604052908160008201548152602001600182015481525050905080600001518461225c9190615217565b935080602001518361226e9190615217565b9250600086146122e4576000612285888888613727565b90506000600860008381526020019081526020016000206040518060400160405290816000820154815260200160018201548152505090508060000151866122cd91906156de565b95508060200151856122df91906156de565b945050505b5050935093915050565b6000801b81565b60606000612304858585613727565b9050600a6000828152602001908152602001600020805480602002602001604051908101604052809291908181526020016000905b828210156124ef578382906000526020600020906004020160405180608001604052908160008201805461236c90614efa565b80601f016020809104026020016040519081016040528092919081815260200182805461239890614efa565b80156123e55780601f106123ba576101008083540402835291602001916123e5565b820191906000526020600020905b8154815290600101906020018083116123c857829003601f168201915b505050505081526020016001820160009054906101000a900473ffffffffffffffffffffffffffffffffffffffff1673ffffffffffffffffffffffffffffffffffffffff1673ffffffffffffffffffffffffffffffffffffffff1681526020016002820154815260200160038201805461245e90614efa565b80601f016020809104026020016040519081016040528092919081815260200182805461248a90614efa565b80156124d75780601f106124ac576101008083540402835291602001916124d7565b820191906000526020600020905b8154815290600101906020018083116124ba57829003601f168201915b50505050508152505081526020019060010190612339565b505050509150509392505050565b600560009054906101000a900473ffffffffffffffffffffffffffffffffffffffff1681565b606060006125318484613676565b9050600b6000828152602001908152602001600020805480602002602001604051908101604052809291908181526020016000905b8282101561271c578382906000526020600020906004020160405180608001604052908160008201805461259990614efa565b80601f01602080910402602001604051908101604052809291908181526020018280546125c590614efa565b80156126125780601f106125e757610100808354040283529160200191612612565b820191906000526020600020905b8154815290600101906020018083116125f557829003601f168201915b505050505081526020016001820160009054906101000a900473ffffffffffffffffffffffffffffffffffffffff1673ffffffffffffffffffffffffffffffffffffffff1673ffffffffffffffffffffffffffffffffffffffff1681526020016002820154815260200160038201805461268b90614efa565b80601f01602080910402602001604051908101604052809291908181526020018280546126b790614efa565b80156127045780601f106126d957610100808354040283529160200191612704565b820191906000526020600020905b8154815290600101906020018083116126e757829003601f168201915b50505050508152505081526020019060010190612566565b5050505091505092915050565b61273282610ddf565b61273b8161375d565b612745838361385a565b505050565b600080612758858585613727565b90506000600a6000838152602001908152602001600020805480602002602001604051908101604052809291908181526020016000905b8282101561294557838290600052602060002090600402016040518060800160405290816000820180546127c290614efa565b80601f01602080910402602001604051908101604052809291908181526020018280546127ee90614efa565b801561283b5780601f106128105761010080835404028352916020019161283b565b820191906000526020600020905b81548152906001019060200180831161281e57829003601f168201915b505050505081526020016001820160009054906101000a900473ffffffffffffffffffffffffffffffffffffffff1673ffffffffffffffffffffffffffffffffffffffff1673ffffffffffffffffffffffffffffffffffffffff168152602001600282015481526020016003820180546128b490614efa565b80601f01602080910402602001604051908101604052809291908181526020018280546128e090614efa565b801561292d5780601f106129025761010080835404028352916020019161292d565b820191906000526020600020905b81548152906001019060200180831161291057829003601f168201915b5050505050815250508152602001906001019061278f565b50505050905080519250600061295b8786613676565b90506000600b6000838152602001908152602001600020805480602002602001604051908101604052809291908181526020016000905b82821015612b4857838290600052602060002090600402016040518060800160405290816000820180546129c590614efa565b80601f01602080910402602001604051908101604052809291908181526020018280546129f190614efa565b8015612a3e5780601f10612a1357610100808354040283529160200191612a3e565b820191906000526020600020905b815481529060010190602001808311612a2157829003601f168201915b505050505081526020016001820160009054906101000a900473ffffffffffffffffffffffffffffffffffffffff1673ffffffffffffffffffffffffffffffffffffffff1673ffffffffffffffffffffffffffffffffffffffff16815260200160028201548152602001600382018054612ab790614efa565b80601f0160208091040260200160405190810160405280929190818152602001828054612ae390614efa565b8015612b305780601f10612b0557610100808354040283529160200191612b30565b820191906000526020600020905b815481529060010190602001808311612b1357829003601f168201915b50505050508152505081526020019060010190612992565b505050509050805185612b5b9190615217565b9450505050509392505050565b600c6020528160005260406000208181548110612b8457600080fd5b906000526020600020906007020160009150915050806000015490806001015490806002015490806003018054612bba90614efa565b80601f0160208091040260200160405190810160405280929190818152602001828054612be690614efa565b8015612c335780601f10612c0857610100808354040283529160200191612c33565b820191906000526020600020905b815481529060010190602001808311612c1657829003601f168201915b5050505050908060040160009054906101000a900473ffffffffffffffffffffffffffffffffffffffff1690806005015490806006018054612c7490614efa565b80601f0160208091040260200160405190810160405280929190818152602001828054612ca090614efa565b8015612ced5780601f10612cc257610100808354040283529160200191612ced565b820191906000526020600020905b815481529060010190602001808311612cd057829003601f168201915b5050505050905087565b612d217fa49807205ce4d355092ef5a8a18f56e8913cf4a201fbe287825b095693c2177533612014565b612d60576040517f08c379a0000000000000000000000000000000000000000000000000000000008152600401612d57906150c1565b60405180910390fd5b612d68613a0a565b600260015403612dad576040517f08c379a0000000000000000000000000000000000000000000000000000000008152600401612da49061515c565b60405180910390fd5b6002600181905550600073ffffffffffffffffffffffffffffffffffffffff168273ffffffffffffffffffffffffffffffffffffffff1603612e24576040517f08c379a0000000000000000000000000000000000000000000000000000000008152600401612e1b906151c8565b60405180910390fd5b80600460008473ffffffffffffffffffffffffffffffffffffffff1673ffffffffffffffffffffffffffffffffffffffff16815260200190815260200160002081905550612e7c82600d613a5490919063ffffffff16565b50600180819055505050565b612eb27fa49807205ce4d355092ef5a8a18f56e8913cf4a201fbe287825b095693c2177533612014565b612ef1576040517f08c379a0000000000000000000000000000000000000000000000000000000008152600401612ee8906150c1565b60405180910390fd5b612ef9613a0a565b6064828290501115612f40576040517f08c379a0000000000000000000000000000000000000000000000000000000008152600401612f379061575e565b60405180910390fd5b60005b828290508110156130de576130d1838383818110612f6457612f636150e1565b5b9050602002810190612f76919061578d565b6000016020810190612f88919061430c565b848484818110612f9b57612f9a6150e1565b5b9050602002810190612fad919061578d565b60200135858585818110612fc457612fc36150e1565b5b9050602002810190612fd6919061578d565b60400135868686818110612fed57612fec6150e1565b5b9050602002810190612fff919061578d565b60600135878787818110613016576130156150e1565b5b9050602002810190613028919061578d565b806080019061303791906157b5565b8080601f016020809104026020016040519081016040528093929190818152602001838380828437600081840152601f19601f8201169050808301925050505050505088888881811061308d5761308c6150e1565b5b905060200281019061309f919061578d565b60a001358989898181106130b6576130b56150e1565b5b90506020028101906130c8919061578d565b60c001356130e3565b8080600101915050612f43565b505050565b61310d7fa49807205ce4d355092ef5a8a18f56e8913cf4a201fbe287825b095693c2177533612014565b61314c576040517f08c379a0000000000000000000000000000000000000000000000000000000008152600401613143906150c1565b60405180910390fd5b613154613a0a565b600061316388888888886139ce565b90506000613172898989613727565b905060006131808a89613676565b9050846007600085815260200190815260200160002060000160008282546131a89190615217565b92505081905550836007600085815260200190815260200160002060010160008282546131d59190615217565b92505081905550846008600084815260200190815260200160002060000160008282546132029190615217565b925050819055508360086000848152602001908152602001600020600101600082825461322f9190615217565b925050819055507fb545172a58c326b4a7140f5d4f97f38b584093af0bc3bbc408856ceb89de90318a8a8a8a8a8a8a6040516132719796959493929190615818565b60405180910390a18460096000838152602001908152602001600020600001600082825461329f9190615217565b92505081905550836009600083815260200190815260200160002060010160008282546132cc9190615217565b925050819055506132e78a600d613a5490919063ffffffff16565b5050505050505050505050565b6132fc6136a9565b600073ffffffffffffffffffffffffffffffffffffffff168173ffffffffffffffffffffffffffffffffffffffff160361336b576040517f08c379a000000000000000000000000000000000000000000000000000000000815260040161336290615900565b60405180910390fd5b61337481613a84565b50565b61337f6136a9565b600073ffffffffffffffffffffffffffffffffffffffff168173ffffffffffffffffffffffffffffffffffffffff16036133ee576040517f08c379a00000000000000000000000000000000000000000000000000000000081526004016133e59061596c565b60405180910390fd5b80600560006101000a81548173ffffffffffffffffffffffffffffffffffffffff021916908373ffffffffffffffffffffffffffffffffffffffff1602179055507fd5f4c713589e8a5f8772f81c9a5189b03f01a579e559d0a3c9f6306a26d1eb338160405161345e9190614b35565b60405180910390a150565b6134937fa49807205ce4d355092ef5a8a18f56e8913cf4a201fbe287825b095693c2177533612014565b6134d2576040517f08c379a00000000000000000000000000000000000000000000000000000000081526004016134c9906150c1565b60405180910390fd5b60005b6134df600d61399f565b8110156136075760006134fc82600d6139b490919063ffffffff16565b9050600061350b828686613727565b905060006135198386613676565b90507fb545172a58c326b4a7140f5d4f97f38b584093af0bc3bbc408856ceb89de903183878760006008600088815260200190815260200160002060000154600860008981526020019081526020016000206001015460405161358196959493929190615622565b60405180910390a17fb545172a58c326b4a7140f5d4f97f38b584093af0bc3bbc408856ceb89de90318387876000600960008781526020019081526020016000206000015460096000888152602001908152602001600020600101546040516135ef96959493929190615622565b60405180910390a150505080806001019150506134d5565b505050565b60007f01ffc9a7000000000000000000000000000000000000000000000000000000007bffffffffffffffffffffffffffffffffffffffffffffffffffffffff1916827bffffffffffffffffffffffffffffffffffffffffffffffffffffffff1916149050919050565b6000828260405160200161368b9291906159f5565b60405160208183030381529060405280519060200120905092915050565b6136b1613852565b73ffffffffffffffffffffffffffffffffffffffff166136cf611feb565b73ffffffffffffffffffffffffffffffffffffffff1614613725576040517f08c379a000000000000000000000000000000000000000000000000000000000815260040161371c90615a6d565b60405180910390fd5b565b600083838360405160200161373e93929190615a8d565b6040516020818303038152906040528051906020012090509392505050565b61376e81613769613852565b613bab565b50565b61377b8282612014565b61384e5760016003600084815260200190815260200160002060000160008373ffffffffffffffffffffffffffffffffffffffff1673ffffffffffffffffffffffffffffffffffffffff16815260200190815260200160002060006101000a81548160ff0219169083151502179055506137f3613852565b73ffffffffffffffffffffffffffffffffffffffff168173ffffffffffffffffffffffffffffffffffffffff16837f2f8788117e7eff1d82e926ec794901d17c78024a50270940304540a733656f0d60405160405180910390a45b5050565b600033905090565b6138648282612014565b156139385760006003600084815260200190815260200160002060000160008373ffffffffffffffffffffffffffffffffffffffff1673ffffffffffffffffffffffffffffffffffffffff16815260200190815260200160002060006101000a81548160ff0219169083151502179055506138dd613852565b73ffffffffffffffffffffffffffffffffffffffff168173ffffffffffffffffffffffffffffffffffffffff16837ff6391f5c32d9c69d2a47ea670b442974b53935d1edc7fd64eb21e047a839171b60405160405180910390a45b5050565b613944613c48565b6000600260006101000a81548160ff0219169083151502179055507f5db9ee0a495bf2e6ff9c91a7834c1ba4fdd244a5e8aa4e537bd38aeae4b073aa613988613852565b6040516139959190614b35565b60405180910390a1565b60006139ad82600001613c91565b9050919050565b60006139c38360000183613ca2565b60001c905092915050565b600085858585856040516020016139e9959493929190615b06565b60405160208183030381529060405280519060200120905095945050505050565b613a126113c1565b15613a52576040517f08c379a0000000000000000000000000000000000000000000000000000000008152600401613a4990615bad565b60405180910390fd5b565b6000613a7c836000018373ffffffffffffffffffffffffffffffffffffffff1660001b613ccd565b905092915050565b60008060009054906101000a900473ffffffffffffffffffffffffffffffffffffffff169050816000806101000a81548173ffffffffffffffffffffffffffffffffffffffff021916908373ffffffffffffffffffffffffffffffffffffffff1602179055508173ffffffffffffffffffffffffffffffffffffffff168173ffffffffffffffffffffffffffffffffffffffff167f8be0079c531659141344cd1fd0a4f28419497f9722a3daafe3b4186f6b6457e060405160405180910390a35050565b613b50613a0a565b6001600260006101000a81548160ff0219169083151502179055507f62e78cea01bee320cd4e420270b5ea74000d11b0c9f74754ebdbfc544b05a258613b94613852565b604051613ba19190614b35565b60405180910390a1565b613bb58282612014565b613c4457613bda8173ffffffffffffffffffffffffffffffffffffffff166014613d3d565b613be88360001c6020613d3d565b604051602001613bf9929190615c65565b6040516020818303038152906040526040517f08c379a0000000000000000000000000000000000000000000000000000000008152600401613c3b9190615c9f565b60405180910390fd5b5050565b613c506113c1565b613c8f576040517f08c379a0000000000000000000000000000000000000000000000000000000008152600401613c8690615d0d565b60405180910390fd5b565b600081600001805490509050919050565b6000826000018281548110613cba57613cb96150e1565b5b9060005260206000200154905092915050565b6000613cd98383613f79565b613d32578260000182908060018154018082558091505060019003906000526020600020016000909190919091505582600001805490508360010160008481526020019081526020016000208190555060019050613d37565b600090505b92915050565b606060006002836002613d509190615d2d565b613d5a9190615217565b67ffffffffffffffff811115613d7357613d72614632565b5b6040519080825280601f01601f191660200182016040528015613da55781602001600182028036833780820191505090505b5090507f300000000000000000000000000000000000000000000000000000000000000081600081518110613ddd57613ddc6150e1565b5b60200101907effffffffffffffffffffffffffffffffffffffffffffffffffffffffffffff1916908160001a9053507f780000000000000000000000000000000000000000000000000000000000000081600181518110613e4157613e406150e1565b5b60200101907effffffffffffffffffffffffffffffffffffffffffffffffffffffffffffff1916908160001a90535060006001846002613e819190615d2d565b613e8b9190615217565b90505b6001811115613f2b577f3031323334353637383961626364656600000000000000000000000000000000600f861660108110613ecd57613ecc6150e1565b5b1a60f81b828281518110613ee457613ee36150e1565b5b60200101907effffffffffffffffffffffffffffffffffffffffffffffffffffffffffffff1916908160001a905350600485901c945080613f2490615d6f565b9050613e8e565b5060008414613f6f576040517f08c379a0000000000000000000000000000000000000000000000000000000008152600401613f6690615de4565b60405180910390fd5b8091505092915050565b600080836001016000848152602001908152602001600020541415905092915050565b6000604051905090565b600080fd5b600080fd5b60007fffffffff0000000000000000000000000000000000000000000000000000000082169050919050565b613fe581613fb0565b8114613ff057600080fd5b50565b60008135905061400281613fdc565b92915050565b60006020828403121561401e5761401d613fa6565b5b600061402c84828501613ff3565b91505092915050565b60008115159050919050565b61404a81614035565b82525050565b60006020820190506140656000830184614041565b92915050565b600073ffffffffffffffffffffffffffffffffffffffff82169050919050565b60006140968261406b565b9050919050565b6140a68161408b565b81146140b157600080fd5b50565b6000813590506140c38161409d565b92915050565b6000819050919050565b6140dc816140c9565b81146140e757600080fd5b50565b6000813590506140f9816140d3565b92915050565b6000806040838503121561411657614115613fa6565b5b6000614124858286016140b4565b9250506020614135858286016140ea565b9150509250929050565b614148816140c9565b82525050565b6000604082019050614163600083018561413f565b614170602083018461413f565b9392505050565b6000819050919050565b61418a81614177565b811461419557600080fd5b50565b6000813590506141a781614181565b92915050565b6000602082840312156141c3576141c2613fa6565b5b60006141d184828501614198565b91505092915050565b600080604083850312156141f1576141f0613fa6565b5b60006141ff85828601614198565b9250506020614210858286016140ea565b9150509250929050565b600081519050919050565b600082825260208201905092915050565b60005b83811015614254578082015181840152602081019050614239565b60008484015250505050565b6000601f19601f8301169050919050565b600061427c8261421a565b6142868185614225565b9350614296818560208601614236565b61429f81614260565b840191505092915050565b6142b38161408b565b82525050565b600060808201905081810360008301526142d38187614271565b90506142e260208301866142aa565b6142ef604083018561413f565b81810360608301526143018184614271565b905095945050505050565b60006020828403121561432257614321613fa6565b5b6000614330848285016140b4565b91505092915050565b60008060006060848603121561435257614351613fa6565b5b6000614360868287016140b4565b9350506020614371868287016140ea565b9250506040614382868287016140ea565b9150509250925092565b61439581614177565b82525050565b60006020820190506143b0600083018461438c565b92915050565b600080604083850312156143cd576143cc613fa6565b5b60006143db85828601614198565b92505060206143ec858286016140b4565b9150509250929050565b6000806040838503121561440d5761440c613fa6565b5b600061441b858286016140ea565b925050602061442c858286016140ea565b9150509250929050565b600081519050919050565b600082825260208201905092915050565b6000819050602082019050919050565b61446b8161408b565b82525050565b600061447d8383614462565b60208301905092915050565b6000602082019050919050565b60006144a182614436565b6144ab8185614441565b93506144b683614452565b8060005b838110156144e75781516144ce8882614471565b97506144d983614489565b9250506001810190506144ba565b5085935050505092915050565b600081519050919050565b600082825260208201905092915050565b6000819050602082019050919050565b614529816140c9565b82525050565b600061453b8383614520565b60208301905092915050565b6000602082019050919050565b600061455f826144f4565b61456981856144ff565b935061457483614510565b8060005b838110156145a557815161458c888261452f565b975061459783614547565b925050600181019050614578565b5085935050505092915050565b600060a08201905081810360008301526145cc8188614496565b905081810360208301526145e08187614554565b905081810360408301526145f48186614554565b905081810360608301526146088185614554565b9050818103608083015261461c8184614554565b90509695505050505050565b600080fd5b600080fd5b7f4e487b7100000000000000000000000000000000000000000000000000000000600052604160045260246000fd5b61466a82614260565b810181811067ffffffffffffffff8211171561468957614688614632565b5b80604052505050565b600061469c613f9c565b90506146a88282614661565b919050565b600067ffffffffffffffff8211156146c8576146c7614632565b5b6146d182614260565b9050602081019050919050565b82818337600083830152505050565b60006147006146fb846146ad565b614692565b90508281526020810184848401111561471c5761471b61462d565b5b6147278482856146de565b509392505050565b600082601f83011261474457614743614628565b5b81356147548482602086016146ed565b91505092915050565b600080600080600060a0868803121561477957614778613fa6565b5b6000614787888289016140b4565b9550506020614798888289016140ea565b94505060406147a9888289016140ea565b93505060606147ba888289016140ea565b925050608086013567ffffffffffffffff8111156147db576147da613fab565b5b6147e78882890161472f565b9150509295509295909350565b600080600080600080600080610100898b03121561481557614814613fa6565b5b60006148238b828c016140b4565b98505060206148348b828c016140ea565b97505060406148458b828c016140ea565b96505060606148568b828c016140ea565b955050608089013567ffffffffffffffff81111561487757614876613fab565b5b6148838b828c0161472f565b94505060a06148948b828c016140b4565b93505060c06148a58b828c016140ea565b92505060e089013567ffffffffffffffff8111156148c6576148c5613fab565b5b6148d28b828c0161472f565b9150509295985092959890939650565b60006020820190506148f7600083018461413f565b92915050565b6000806000806080858703121561491757614916613fa6565b5b6000614925878288016140b4565b9450506020614936878288016140ea565b9350506040614947878288016140ea565b9250506060614958878288016140ea565b91505092959194509250565b600081519050919050565b600082825260208201905092915050565b6000819050602082019050919050565b600082825260208201905092915050565b60006149ac8261421a565b6149b68185614990565b93506149c6818560208601614236565b6149cf81614260565b840191505092915050565b600060e0830160008301516149f26000860182614520565b506020830151614a056020860182614520565b506040830151614a186040860182614520565b5060608301518482036060860152614a3082826149a1565b9150506080830151614a456080860182614462565b5060a0830151614a5860a0860182614520565b5060c083015184820360c0860152614a7082826149a1565b9150508091505092915050565b6000614a8983836149da565b905092915050565b6000602082019050919050565b6000614aa982614964565b614ab3818561496f565b935083602082028501614ac585614980565b8060005b85811015614b015784840389528151614ae28582614a7d565b9450614aed83614a91565b925060208a01995050600181019050614ac9565b50829750879550505050505092915050565b60006020820190508181036000830152614b2d8184614a9e565b905092915050565b6000602082019050614b4a60008301846142aa565b92915050565b6000608082019050614b65600083018761413f565b614b72602083018661413f565b614b7f604083018561413f565b614b8c606083018461413f565b95945050505050565b600081519050919050565b600082825260208201905092915050565b6000819050602082019050919050565b60006080830160008301518482036000860152614bde82826149a1565b9150506020830151614bf36020860182614462565b506040830151614c066040860182614520565b5060608301518482036060860152614c1e82826149a1565b9150508091505092915050565b6000614c378383614bc1565b905092915050565b6000602082019050919050565b6000614c5782614b95565b614c618185614ba0565b935083602082028501614c7385614bb1565b8060005b85811015614caf5784840389528151614c908582614c2b565b9450614c9b83614c3f565b925060208a01995050600181019050614c77565b50829750879550505050505092915050565b60006020820190508181036000830152614cdb8184614c4c565b905092915050565b600060e082019050614cf8600083018a61413f565b614d05602083018961413f565b614d12604083018861413f565b8181036060830152614d248187614271565b9050614d3360808301866142aa565b614d4060a083018561413f565b81810360c0830152614d528184614271565b905098975050505050505050565b600080fd5b600080fd5b60008083601f840112614d8057614d7f614628565b5b8235905067ffffffffffffffff811115614d9d57614d9c614d60565b5b602083019150836020820283011115614db957614db8614d65565b5b9250929050565b60008060208385031215614dd757614dd6613fa6565b5b600083013567ffffffffffffffff811115614df557614df4613fab565b5b614e0185828601614d6a565b92509250509250929050565b600080600080600080600060e0888a031215614e2c57614e2b613fa6565b5b6000614e3a8a828b016140b4565b9750506020614e4b8a828b016140ea565b9650506040614e5c8a828b016140ea565b9550506060614e6d8a828b016140ea565b945050608088013567ffffffffffffffff811115614e8e57614e8d613fab565b5b614e9a8a828b0161472f565b93505060a0614eab8a828b016140ea565b92505060c0614ebc8a828b016140ea565b91505092959891949750929550565b7f4e487b7100000000000000000000000000000000000000000000000000000000600052602260045260246000fd5b60006002820490506001821680614f1257607f821691505b602082108103614f2557614f24614ecb565b5b50919050565b7f4f6e6c79206578697374696e672061646d696e2063616e2062652072656d6f7660008201527f6564000000000000000000000000000000000000000000000000000000000000602082015250565b6000614f87602283614225565b9150614f9282614f2b565b604082019050919050565b60006020820190508181036000830152614fb681614f7a565b9050919050565b7f416363657373436f6e74726f6c3a2063616e206f6e6c792072656e6f756e636560008201527f20726f6c657320666f722073656c660000000000000000000000000000000000602082015250565b6000615019602f83614225565b915061502482614fbd565b604082019050919050565b600060208201905081810360008301526150488161500c565b9050919050565b7f4f6e6c792061646d696e2063616e2063616c6c20746869732066756e6374696f60008201527f6e00000000000000000000000000000000000000000000000000000000000000602082015250565b60006150ab602183614225565b91506150b68261504f565b604082019050919050565b600060208201905081810360008301526150da8161509e565b9050919050565b7f4e487b7100000000000000000000000000000000000000000000000000000000600052603260045260246000fd5b7f5265656e7472616e637947756172643a207265656e7472616e742063616c6c00600082015250565b6000615146601f83614225565b915061515182615110565b602082019050919050565b6000602082019050818103600083015261517581615139565b9050919050565b7f496e76616c696420757365722061646472657373000000000000000000000000600082015250565b60006151b2601483614225565b91506151bd8261517c565b602082019050919050565b600060208201905081810360008301526151e1816151a5565b9050919050565b7f4e487b7100000000000000000000000000000000000000000000000000000000600052601160045260246000fd5b6000615222826140c9565b915061522d836140c9565b9250828201905080821115615245576152446151e8565b5b92915050565b60008190508160005260206000209050919050565b60006020601f8301049050919050565b600082821b905092915050565b6000600883026152ad7fffffffffffffffffffffffffffffffffffffffffffffffffffffffffffffffff82615270565b6152b78683615270565b95508019841693508086168417925050509392505050565b6000819050919050565b60006152f46152ef6152ea846140c9565b6152cf565b6140c9565b9050919050565b6000819050919050565b61530e836152d9565b61532261531a826152fb565b84845461527d565b825550505050565b600090565b61533761532a565b615342818484615305565b505050565b5b818110156153665761535b60008261532f565b600181019050615348565b5050565b601f8211156153ab5761537c8161524b565b61538584615260565b81016020851015615394578190505b6153a86153a085615260565b830182615347565b50505b505050565b600082821c905092915050565b60006153ce600019846008026153b0565b1980831691505092915050565b60006153e783836153bd565b9150826002028217905092915050565b6154008261421a565b67ffffffffffffffff81111561541957615418614632565b5b6154238254614efa565b61542e82828561536a565b600060209050601f831160018114615461576000841561544f578287015190505b61545985826153db565b8655506154c1565b601f19841661546f8661524b565b60005b8281101561549757848901518255600182019150602085019450602081019050615472565b868310156154b457848901516154b0601f8916826153bd565b8355505b6001600288020188555050505b505050505050565b6000610100820190506154df600083018b6142aa565b6154ec602083018a61413f565b6154f9604083018961413f565b615506606083018861413f565b81810360808301526155188187614271565b905061552760a08301866142aa565b61553460c083018561413f565b81810360e08301526155468184614271565b90509998505050505050505050565b7f496e76616c69642061646d696e20616464726573730000000000000000000000600082015250565b600061558b601583614225565b915061559682615555565b602082019050919050565b600060208201905081810360008301526155ba8161557e565b9050919050565b6000819050919050565b60006155e66155e16155dc846155c1565b6152cf565b6140c9565b9050919050565b6155f6816155cb565b82525050565b50565b600061560c600083614225565b9150615617826155fc565b600082019050919050565b600060e08201905061563760008301896142aa565b615644602083018861413f565b615651604083018761413f565b61565e60608301866155ed565b818103608083015261566f816155ff565b905061567e60a083018561413f565b61568b60c083018461413f565b979650505050505050565b60006156a1826140c9565b91507fffffffffffffffffffffffffffffffffffffffffffffffffffffffffffffffff82036156d3576156d26151e8565b5b600182019050919050565b60006156e9826140c9565b91506156f4836140c9565b925082820390508181111561570c5761570b6151e8565b5b92915050565b7f42617463682073697a6520746f6f206c61726765000000000000000000000000600082015250565b6000615748601483614225565b915061575382615712565b602082019050919050565b600060208201905081810360008301526157778161573b565b9050919050565b600080fd5b600080fd5b600080fd5b60008235600160e0038336030381126157a9576157a861577e565b5b80830191505092915050565b600080833560016020038436030381126157d2576157d161577e565b5b80840192508235915067ffffffffffffffff8211156157f4576157f3615783565b5b6020830192506001820236038313156158105761580f615788565b5b509250929050565b600060e08201905061582d600083018a6142aa565b61583a602083018961413f565b615847604083018861413f565b615854606083018761413f565b81810360808301526158668186614271565b905061587560a083018561413f565b61588260c083018461413f565b98975050505050505050565b7f4f776e61626c653a206e6577206f776e657220697320746865207a65726f206160008201527f6464726573730000000000000000000000000000000000000000000000000000602082015250565b60006158ea602683614225565b91506158f58261588e565b604082019050919050565b60006020820190508181036000830152615919816158dd565b9050919050565b7f496e76616c696420746f6b656e2061646d696e20616464726573730000000000600082015250565b6000615956601b83614225565b915061596182615920565b602082019050919050565b6000602082019050818103600083015261598581615949565b9050919050565b60008160601b9050919050565b60006159a48261598c565b9050919050565b60006159b682615999565b9050919050565b6159ce6159c98261408b565b6159ab565b82525050565b6000819050919050565b6159ef6159ea826140c9565b6159d4565b82525050565b6000615a0182856159bd565b601482019150615a1182846159de565b6020820191508190509392505050565b7f4f776e61626c653a2063616c6c6572206973206e6f7420746865206f776e6572600082015250565b6000615a57602083614225565b9150615a6282615a21565b602082019050919050565b60006020820190508181036000830152615a8681615a4a565b9050919050565b6000615a9982866159bd565b601482019150615aa982856159de565b602082019150615ab982846159de565b602082019150819050949350505050565b600081905092915050565b6000615ae08261421a565b615aea8185615aca565b9350615afa818560208601614236565b80840191505092915050565b6000615b1282886159bd565b601482019150615b2282876159de565b602082019150615b3282866159de565b602082019150615b4282856159de565b602082019150615b528284615ad5565b91508190509695505050505050565b7f5061757361626c653a2070617573656400000000000000000000000000000000600082015250565b6000615b97601083614225565b9150615ba282615b61565b602082019050919050565b60006020820190508181036000830152615bc681615b8a565b9050919050565b7f416363657373436f6e74726f6c3a206163636f756e7420000000000000000000600082015250565b6000615c03601783615aca565b9150615c0e82615bcd565b601782019050919050565b7f206973206d697373696e6720726f6c6520000000000000000000000000000000600082015250565b6000615c4f601183615aca565b9150615c5a82615c19565b601182019050919050565b6000615c7082615bf6565b9150615c7c8285615ad5565b9150615c8782615c42565b9150615c938284615ad5565b91508190509392505050565b60006020820190508181036000830152615cb98184614271565b905092915050565b7f5061757361626c653a206e6f7420706175736564000000000000000000000000600082015250565b6000615cf7601483614225565b9150615d0282615cc1565b602082019050919050565b60006020820190508181036000830152615d2681615cea565b9050919050565b6000615d38826140c9565b9150615d43836140c9565b9250828202615d51816140c9565b91508282048414831517615d6857615d676151e8565b5b5092915050565b6000615d7a826140c9565b915060008203615d8d57615d8c6151e8565b5b600182039050919050565b7f537472696e67733a20686578206c656e67746820696e73756666696369656e74600082015250565b6000615dce602083614225565b9150615dd982615d98565b602082019050919050565b60006020820190508181036000830152615dfd81615dc1565b905091905056fea26469706673582212208ce33ecee3396f1cd8e2f0e3f2f92f577f87ebdd716037e35383ce856edf032164736f6c63430008180033",
  "linkReferences": {},
  "deployedLinkReferences": {}
}