{
  "_format": "hh-sol-artifact-1",
  "contractName": "ReplayTrackingContractV2",
  "sourceName": "contracts/ReplayTrackingContractV2.sol",
  "abi": [
    {
      "inputs": [],
      "stateMutability": "nonpayable",
      "type": "constructor"
    },
    {
      "anonymous": false,
      "inputs": [
        {
          "indexed": false,
          "internalType": "address",
          "name": "admin",
          "type": "address"
        }
      ],
      "name": "AdminAdded",
      "type": "event"
    },
    {
      "anonymous": false,
      "inputs": [
        {
          "indexed": false,
          "internalType": "address",
          "name": "admin",
          "type": "address"
        }
      ],
      "name": "AdminRemoved",
      "type": "event"
    },
    {
      "anonymous": false,
      "inputs": [
        {
          "indexed": true,
          "internalType": "address",
          "name": "previousOwner",
          "type": "address"
        },
        {
          "indexed": true,
          "internalType": "address",
          "name": "newOwner",
          "type": "address"
        }
      ],
      "name": "OwnershipTransferred",
      "type": "event"
    },
    {
      "anonymous": false,
      "inputs": [
        {
          "indexed": false,
          "internalType": "address",
          "name": "account",
          "type": "address"
        }
      ],
      "name": "Paused",
      "type": "event"
    },
    {
      "anonymous": false,
      "inputs": [
        {
          "indexed": false,
          "internalType": "address",
          "name": "user",
          "type": "address"
        },
        {
          "indexed": false,
          "internalType": "uint256",
          "name": "month",
          "type": "uint256"
        },
        {
          "indexed": false,
          "internalType": "uint256",
          "name": "year",
          "type": "uint256"
        },
        {
          "indexed": false,
          "internalType": "uint256",
          "name": "day",
          "type": "uint256"
        },
        {
          "indexed": false,
          "internalType": "string",
          "name": "movieId",
          "type": "string"
        },
        {
          "indexed": false,
          "internalType": "uint256",
          "name": "timeWatched",
          "type": "uint256"
        },
        {
          "indexed": false,
          "internalType": "uint256",
          "name": "amountEarned",
          "type": "uint256"
        }
      ],
      "name": "RecordIncremented",
      "type": "event"
    },
    {
      "anonymous": false,
      "inputs": [
        {
          "indexed": true,
          "internalType": "bytes32",
          "name": "role",
          "type": "bytes32"
        },
        {
          "indexed": true,
          "internalType": "bytes32",
          "name": "previousAdminRole",
          "type": "bytes32"
        },
        {
          "indexed": true,
          "internalType": "bytes32",
          "name": "newAdminRole",
          "type": "bytes32"
        }
      ],
      "name": "RoleAdminChanged",
      "type": "event"
    },
    {
      "anonymous": false,
      "inputs": [
        {
          "indexed": true,
          "internalType": "bytes32",
          "name": "role",
          "type": "bytes32"
        },
        {
          "indexed": true,
          "internalType": "address",
          "name": "account",
          "type": "address"
        },
        {
          "indexed": true,
          "internalType": "address",
          "name": "sender",
          "type": "address"
        }
      ],
      "name": "RoleGranted",
      "type": "event"
    },
    {
      "anonymous": false,
      "inputs": [
        {
          "indexed": true,
          "internalType": "bytes32",
          "name": "role",
          "type": "bytes32"
        },
        {
          "indexed": true,
          "internalType": "address",
          "name": "account",
          "type": "address"
        },
        {
          "indexed": true,
          "internalType": "address",
          "name": "sender",
          "type": "address"
        }
      ],
      "name": "RoleRevoked",
      "type": "event"
    },
    {
      "anonymous": false,
      "inputs": [
        {
          "indexed": false,
          "internalType": "address",
          "name": "tokenAdmin",
          "type": "address"
        }
      ],
      "name": "TokenAdminSet",
      "type": "event"
    },
    {
      "anonymous": false,
      "inputs": [
        {
          "indexed": false,
          "internalType": "address",
          "name": "user",
          "type": "address"
        },
        {
          "indexed": false,
          "internalType": "uint256",
          "name": "month",
          "type": "uint256"
        },
        {
          "indexed": false,
          "internalType": "uint256",
          "name": "year",
          "type": "uint256"
        },
        {
          "indexed": false,
          "internalType": "uint256",
          "name": "day",
          "type": "uint256"
        },
        {
          "indexed": false,
          "internalType": "string",
          "name": "txnId",
          "type": "string"
        },
        {
          "indexed": false,
          "internalType": "address",
          "name": "walletAddress",
          "type": "address"
        },
        {
          "indexed": false,
          "internalType": "uint256",
          "name": "amount",
          "type": "uint256"
        },
        {
          "indexed": false,
          "internalType": "string",
          "name": "type_",
          "type": "string"
        }
      ],
      "name": "TransactionAdded",
      "type": "event"
    },
    {
      "anonymous": false,
      "inputs": [
        {
          "indexed": false,
          "internalType": "address",
          "name": "account",
          "type": "address"
        }
      ],
      "name": "Unpaused",
      "type": "event"
    },
    {
      "inputs": [],
      "name": "ADMIN_ROLE",
      "outputs": [
        {
          "internalType": "bytes32",
          "name": "",
          "type": "bytes32"
        }
      ],
      "stateMutability": "view",
      "type": "function"
    },
    {
      "inputs": [],
      "name": "DEFAULT_ADMIN_ROLE",
      "outputs": [
        {
          "internalType": "bytes32",
          "name": "",
          "type": "bytes32"
        }
      ],
      "stateMutability": "view",
      "type": "function"
    },
    {
      "inputs": [
        {
          "internalType": "address",
          "name": "newAdmin",
          "type": "address"
        }
      ],
      "name": "addAdmin",
      "outputs": [],
      "stateMutability": "nonpayable",
      "type": "function"
    },
    {
      "inputs": [
        {
          "internalType": "address",
          "name": "user",
          "type": "address"
        },
        {
          "internalType": "uint256",
          "name": "amount",
          "type": "uint256"
        }
      ],
      "name": "addTokens",
      "outputs": [],
      "stateMutability": "nonpayable",
      "type": "function"
    },
    {
      "inputs": [
        {
          "internalType": "bytes32",
          "name": "",
          "type": "bytes32"
        }
      ],
      "name": "consolidatedByMonth",
      "outputs": [
        {
          "internalType": "uint256",
          "name": "timeWatched",
          "type": "uint256"
        },
        {
          "internalType": "uint256",
          "name": "amountEarned",
          "type": "uint256"
        }
      ],
      "stateMutability": "view",
      "type": "function"
    },
    {
      "inputs": [
        {
          "internalType": "bytes32",
          "name": "",
          "type": "bytes32"
        },
        {
          "internalType": "uint256",
          "name": "",
          "type": "uint256"
        }
      ],
      "name": "consolidatedByMonthTransactions",
      "outputs": [
        {
          "internalType": "string",
          "name": "txnId",
          "type": "string"
        },
        {
          "internalType": "address",
          "name": "walletAddress",
          "type": "address"
        },
        {
          "internalType": "uint256",
          "name": "amount",
          "type": "uint256"
        },
        {
          "internalType": "string",
          "name": "type_",
          "type": "string"
        }
      ],
      "stateMutability": "view",
      "type": "function"
    },
    {
      "inputs": [
        {
          "internalType": "bytes32",
          "name": "",
          "type": "bytes32"
        }
      ],
      "name": "consolidatedByMovie",
      "outputs": [
        {
          "internalType": "uint256",
          "name": "timeWatched",
          "type": "uint256"
        },
        {
          "internalType": "uint256",
          "name": "amountEarned",
          "type": "uint256"
        }
      ],
      "stateMutability": "view",
      "type": "function"
    },
    {
      "inputs": [
        {
          "internalType": "bytes32",
          "name": "",
          "type": "bytes32"
        }
      ],
      "name": "consolidatedByYear",
      "outputs": [
        {
          "internalType": "uint256",
          "name": "timeWatched",
          "type": "uint256"
        },
        {
          "internalType": "uint256",
          "name": "amountEarned",
          "type": "uint256"
        }
      ],
      "stateMutability": "view",
      "type": "function"
    },
    {
      "inputs": [
        {
          "internalType": "bytes32",
          "name": "",
          "type": "bytes32"
        },
        {
          "internalType": "uint256",
          "name": "",
          "type": "uint256"
        }
      ],
      "name": "consolidatedByYearTransactions",
      "outputs": [
        {
          "internalType": "string",
          "name": "txnId",
          "type": "string"
        },
        {
          "internalType": "address",
          "name": "walletAddress",
          "type": "address"
        },
        {
          "internalType": "uint256",
          "name": "amount",
          "type": "uint256"
        },
        {
          "internalType": "string",
          "name": "type_",
          "type": "string"
        }
      ],
      "stateMutability": "view",
      "type": "function"
    },
    {
      "inputs": [
        {
          "internalType": "bytes32",
          "name": "",
          "type": "bytes32"
        },
        {
          "internalType": "uint256",
          "name": "",
          "type": "uint256"
        }
      ],
      "name": "dailyTransactions",
      "outputs": [
        {
          "internalType": "uint256",
          "name": "day",
          "type": "uint256"
        },
        {
          "internalType": "uint256",
          "name": "month",
          "type": "uint256"
        },
        {
          "internalType": "uint256",
          "name": "year",
          "type": "uint256"
        },
        {
          "internalType": "string",
          "name": "txnId",
          "type": "string"
        },
        {
          "internalType": "address",
          "name": "walletAddress",
          "type": "address"
        },
        {
          "internalType": "uint256",
          "name": "amount",
          "type": "uint256"
        },
        {
          "internalType": "string",
          "name": "type_",
          "type": "string"
        }
      ],
      "stateMutability": "view",
      "type": "function"
    },
    {
      "inputs": [
        {
          "internalType": "uint256",
          "name": "month",
          "type": "uint256"
        },
        {
          "internalType": "uint256",
          "name": "year",
          "type": "uint256"
        }
      ],
      "name": "emitTopEarners",
      "outputs": [],
      "stateMutability": "nonpayable",
      "type": "function"
    },
    {
      "inputs": [
        {
          "internalType": "uint256",
          "name": "month",
          "type": "uint256"
        },
        {
          "internalType": "uint256",
          "name": "year",
          "type": "uint256"
        }
      ],
      "name": "emitTotalEarnedByAllUsers",
      "outputs": [],
      "stateMutability": "nonpayable",
      "type": "function"
    },
    {
      "inputs": [
        {
          "internalType": "address",
          "name": "userID",
          "type": "address"
        },
        {
          "internalType": "uint256",
          "name": "month",
          "type": "uint256"
        },
        {
          "internalType": "uint256",
          "name": "year",
          "type": "uint256"
        }
      ],
      "name": "getConsolidatedByMonth",
      "outputs": [
        {
          "internalType": "uint256",
          "name": "timeWatched",
          "type": "uint256"
        },
        {
          "internalType": "uint256",
          "name": "amountEarned",
          "type": "uint256"
        }
      ],
      "stateMutability": "view",
      "type": "function"
    },
    {
      "inputs": [
        {
          "internalType": "address",
          "name": "userID",
          "type": "address"
        },
        {
          "internalType": "uint256",
          "name": "month",
          "type": "uint256"
        },
        {
          "internalType": "uint256",
          "name": "year",
          "type": "uint256"
        },
        {
          "internalType": "uint256",
          "name": "day",
          "type": "uint256"
        },
        {
          "internalType": "string",
          "name": "movieId",
          "type": "string"
        }
      ],
      "name": "getConsolidatedByMovie",
      "outputs": [
        {
          "internalType": "uint256",
          "name": "timeWatched",
          "type": "uint256"
        },
        {
          "internalType": "uint256",
          "name": "amountEarned",
          "type": "uint256"
        }
      ],
      "stateMutability": "view",
      "type": "function"
    },
    {
      "inputs": [
        {
          "internalType": "address",
          "name": "userID",
          "type": "address"
        },
        {
          "internalType": "uint256",
          "name": "year",
          "type": "uint256"
        }
      ],
      "name": "getConsolidatedByYear",
      "outputs": [
        {
          "internalType": "uint256",
          "name": "timeWatched",
          "type": "uint256"
        },
        {
          "internalType": "uint256",
          "name": "amountEarned",
          "type": "uint256"
        }
      ],
      "stateMutability": "view",
      "type": "function"
    },
    {
      "inputs": [
        {
          "internalType": "address",
          "name": "userID",
          "type": "address"
        },
        {
          "internalType": "uint256",
          "name": "month",
          "type": "uint256"
        },
        {
          "internalType": "uint256",
          "name": "year",
          "type": "uint256"
        },
        {
          "internalType": "uint256",
          "name": "day",
          "type": "uint256"
        }
      ],
      "name": "getDailyTransactions",
      "outputs": [
        {
          "components": [
            {
              "internalType": "uint256",
              "name": "day",
              "type": "uint256"
            },
            {
              "internalType": "uint256",
              "name": "month",
              "type": "uint256"
            },
            {
              "internalType": "uint256",
              "name": "year",
              "type": "uint256"
            },
            {
              "internalType": "string",
              "name": "txnId",
              "type": "string"
            },
            {
              "internalType": "address",
              "name": "walletAddress",
              "type": "address"
            },
            {
              "internalType": "uint256",
              "name": "amount",
              "type": "uint256"
            },
            {
              "internalType": "string",
              "name": "type_",
              "type": "string"
            }
          ],
          "internalType": "struct ReplayLibrary.DailyTransaction[]",
          "name": "",
          "type": "tuple[]"
        }
      ],
      "stateMutability": "view",
      "type": "function"
    },
    {
      "inputs": [
        {
          "internalType": "uint256",
          "name": "month",
          "type": "uint256"
        },
        {
          "internalType": "uint256",
          "name": "year",
          "type": "uint256"
        }
      ],
      "name": "getMonthlyYearlyReport",
      "outputs": [
        {
          "internalType": "address[]",
          "name": "users",
          "type": "address[]"
        },
        {
          "internalType": "uint256[]",
          "name": "monthlyWatched",
          "type": "uint256[]"
        },
        {
          "internalType": "uint256[]",
          "name": "monthlyEarned",
          "type": "uint256[]"
        },
        {
          "internalType": "uint256[]",
          "name": "yearlyWatched",
          "type": "uint256[]"
        },
        {
          "internalType": "uint256[]",
          "name": "yearlyEarned",
          "type": "uint256[]"
        }
      ],
      "stateMutability": "view",
      "type": "function"
    },
    {
      "inputs": [
        {
          "internalType": "bytes32",
          "name": "role",
          "type": "bytes32"
        }
      ],
      "name": "getRoleAdmin",
      "outputs": [
        {
          "internalType": "bytes32",
          "name": "",
          "type": "bytes32"
        }
      ],
      "stateMutability": "view",
      "type": "function"
    },
    {
      "inputs": [
        {
          "internalType": "address",
          "name": "userID",
          "type": "address"
        },
        {
          "internalType": "uint256",
          "name": "month",
          "type": "uint256"
        },
        {
          "internalType": "uint256",
          "name": "year",
          "type": "uint256"
        }
      ],
      "name": "getTotalTransactionsByUser",
      "outputs": [
        {
          "internalType": "uint256",
          "name": "totalTransactions",
          "type": "uint256"
        }
      ],
      "stateMutability": "view",
      "type": "function"
    },
    {
      "inputs": [
        {
          "internalType": "address",
          "name": "userID",
          "type": "address"
        },
        {
          "internalType": "uint256",
          "name": "month",
          "type": "uint256"
        },
        {
          "internalType": "uint256",
          "name": "year",
          "type": "uint256"
        }
      ],
      "name": "getTransactionsByMonth",
      "outputs": [
        {
          "components": [
            {
              "internalType": "string",
              "name": "txnId",
              "type": "string"
            },
            {
              "internalType": "address",
              "name": "walletAddress",
              "type": "address"
            },
            {
              "internalType": "uint256",
              "name": "amount",
              "type": "uint256"
            },
            {
              "internalType": "string",
              "name": "type_",
              "type": "string"
            }
          ],
          "internalType": "struct ReplayLibrary.Transaction[]",
          "name": "",
          "type": "tuple[]"
        }
      ],
      "stateMutability": "view",
      "type": "function"
    },
    {
      "inputs": [
        {
          "internalType": "address",
          "name": "userID",
          "type": "address"
        },
        {
          "internalType": "uint256",
          "name": "year",
          "type": "uint256"
        }
      ],
      "name": "getTransactionsByYear",
      "outputs": [
        {
          "components": [
            {
              "internalType": "string",
              "name": "txnId",
              "type": "string"
            },
            {
              "internalType": "address",
              "name": "walletAddress",
              "type": "address"
            },
            {
              "internalType": "uint256",
              "name": "amount",
              "type": "uint256"
            },
            {
              "internalType": "string",
              "name": "type_",
              "type": "string"
            }
          ],
          "internalType": "struct ReplayLibrary.Transaction[]",
          "name": "",
          "type": "tuple[]"
        }
      ],
      "stateMutability": "view",
      "type": "function"
    },
    {
      "inputs": [
        {
          "internalType": "address",
          "name": "userID",
          "type": "address"
        },
        {
          "internalType": "uint256",
          "name": "topYear",
          "type": "uint256"
        }
      ],
      "name": "getUserDetails",
      "outputs": [
        {
          "internalType": "uint256",
          "name": "balance",
          "type": "uint256"
        },
        {
          "internalType": "uint256",
          "name": "nonce",
          "type": "uint256"
        },
        {
          "internalType": "uint256",
          "name": "totalWatched",
          "type": "uint256"
        },
        {
          "internalType": "uint256",
          "name": "totalEarned",
          "type": "uint256"
        }
      ],
      "stateMutability": "view",
      "type": "function"
    },
    {
      "inputs": [
        {
          "internalType": "address",
          "name": "userID",
          "type": "address"
        },
        {
          "internalType": "uint256",
          "name": "month",
          "type": "uint256"
        },
        {
          "internalType": "uint256",
          "name": "year",
          "type": "uint256"
        }
      ],
      "name": "getUserSummary",
      "outputs": [
        {
          "internalType": "uint256",
          "name": "totalWatched",
          "type": "uint256"
        },
        {
          "internalType": "uint256",
          "name": "totalEarned",
          "type": "uint256"
        }
      ],
      "stateMutability": "view",
      "type": "function"
    },
    {
      "inputs": [
        {
          "internalType": "bytes32",
          "name": "role",
          "type": "bytes32"
        },
        {
          "internalType": "address",
          "name": "account",
          "type": "address"
        }
      ],
      "name": "grantRole",
      "outputs": [],
      "stateMutability": "nonpayable",
      "type": "function"
    },
    {
      "inputs": [
        {
          "internalType": "bytes32",
          "name": "role",
          "type": "bytes32"
        },
        {
          "internalType": "address",
          "name": "account",
          "type": "address"
        }
      ],
      "name": "hasRole",
      "outputs": [
        {
          "internalType": "bool",
          "name": "",
          "type": "bool"
        }
      ],
      "stateMutability": "view",
      "type": "function"
    },
    {
      "inputs": [
        {
          "internalType": "address",
          "name": "",
          "type": "address"
        }
      ],
      "name": "nonces",
      "outputs": [
        {
          "internalType": "uint256",
          "name": "",
          "type": "uint256"
        }
      ],
      "stateMutability": "view",
      "type": "function"
    },
    {
      "inputs": [],
      "name": "owner",
      "outputs": [
        {
          "internalType": "address",
          "name": "",
          "type": "address"
        }
      ],
      "stateMutability": "view",
      "type": "function"
    },
    {
      "inputs": [],
      "name": "pause",
      "outputs": [],
      "stateMutability": "nonpayable",
      "type": "function"
    },
    {
      "inputs": [],
      "name": "paused",
      "outputs": [
        {
          "internalType": "bool",
          "name": "",
          "type": "bool"
        }
      ],
      "stateMutability": "view",
      "type": "function"
    },
    {
      "inputs": [
        {
          "internalType": "address",
          "name": "adminToRemove",
          "type": "address"
        }
      ],
      "name": "removeAdmin",
      "outputs": [],
      "stateMutability": "nonpayable",
      "type": "function"
    },
    {
      "inputs": [],
      "name": "renounceOwnership",
      "outputs": [],
      "stateMutability": "nonpayable",
      "type": "function"
    },
    {
      "inputs": [
        {
          "internalType": "bytes32",
          "name": "role",
          "type": "bytes32"
        },
        {
          "internalType": "address",
          "name": "account",
          "type": "address"
        }
      ],
      "name": "renounceRole",
      "outputs": [],
      "stateMutability": "nonpayable",
      "type": "function"
    },
    {
      "inputs": [
        {
          "internalType": "bytes32",
          "name": "role",
          "type": "bytes32"
        },
        {
          "internalType": "address",
          "name": "account",
          "type": "address"
        }
      ],
      "name": "revokeRole",
      "outputs": [],
      "stateMutability": "nonpayable",
      "type": "function"
    },
    {
      "inputs": [
        {
          "internalType": "address",
          "name": "newTokenAdmin",
          "type": "address"
        }
      ],
      "name": "setTokenAdmin",
      "outputs": [],
      "stateMutability": "nonpayable",
      "type": "function"
    },
    {
      "inputs": [
        {
          "internalType": "bytes4",
          "name": "interfaceId",
          "type": "bytes4"
        }
      ],
      "name": "supportsInterface",
      "outputs": [
        {
          "internalType": "bool",
          "name": "",
          "type": "bool"
        }
      ],
      "stateMutability": "view",
      "type": "function"
    },
    {
      "inputs": [],
      "name": "tokenAdmin",
      "outputs": [
        {
          "internalType": "address",
          "name": "",
          "type": "address"
        }
      ],
      "stateMutability": "view",
      "type": "function"
    },
    {
      "inputs": [
        {
          "internalType": "address",
          "name": "newOwner",
          "type": "address"
        }
      ],
      "name": "transferOwnership",
      "outputs": [],
      "stateMutability": "nonpayable",
      "type": "function"
    },
    {
      "inputs": [],
      "name": "unpause",
      "outputs": [],
      "stateMutability": "nonpayable",
      "type": "function"
    },
    {
      "inputs": [
        {
          "internalType": "address",
          "name": "user",
          "type": "address"
        },
        {
          "internalType": "uint256",
          "name": "amount",
          "type": "uint256"
        }
      ],
      "name": "updateBalance",
      "outputs": [],
      "stateMutability": "nonpayable",
      "type": "function"
    },
    {
      "inputs": [
        {
          "components": [
            {
              "internalType": "address",
              "name": "userID",
              "type": "address"
            },
            {
              "internalType": "uint256",
              "name": "month",
              "type": "uint256"
            },
            {
              "internalType": "uint256",
              "name": "year",
              "type": "uint256"
            },
            {
              "internalType": "uint256",
              "name": "day",
              "type": "uint256"
            },
            {
              "internalType": "string",
              "name": "movieId",
              "type": "string"
            },
            {
              "internalType": "uint256",
              "name": "timeWatched",
              "type": "uint256"
            },
            {
              "internalType": "uint256",
              "name": "amountEarned",
              "type": "uint256"
            },
            {
              "internalType": "string",
              "name": "txnId",
              "type": "string"
            },
            {
              "internalType": "address",
              "name": "walletAddress",
              "type": "address"
            },
            {
              "internalType": "uint256",
              "name": "amount",
              "type": "uint256"
            },
            {
              "internalType": "string",
              "name": "type_",
              "type": "string"
            }
          ],
          "internalType": "struct ReplayLibrary.UpdateRecordAndTransactionData",
          "name": "data",
          "type": "tuple"
        }
      ],
      "name": "updateRecordAndAddTransaction",
      "outputs": [],
      "stateMutability": "nonpayable",
      "type": "function"
    },
    {
      "inputs": [
        {
          "internalType": "address",
          "name": "",
          "type": "address"
        }
      ],
      "name": "wallets",
      "outputs": [
        {
          "internalType": "uint256",
          "name": "",
          "type": "uint256"
        }
      ],
      "stateMutability": "view",
      "type": "function"
    }
  ],
  "bytecode": "0x60806040523480156200001157600080fd5b506200003262000026620000eb60201b60201c565b620000f360201b60201c565b600180819055506000600260006101000a81548160ff021916908315150217905550620000696000801b33620001b760201b60201c565b6200009b7fa49807205ce4d355092ef5a8a18f56e8913cf4a201fbe287825b095693c2177533620001b760201b60201c565b7f44d6d25963f097ad14f29f06854a01f575648a1ef82f30e562ccd3889717e33933604051620000cc919062000895565b60405180910390a1620000e533620002a960201b60201c565b62000d35565b600033905090565b60008060009054906101000a900473ffffffffffffffffffffffffffffffffffffffff169050816000806101000a81548173ffffffffffffffffffffffffffffffffffffffff021916908373ffffffffffffffffffffffffffffffffffffffff1602179055508173ffffffffffffffffffffffffffffffffffffffff168173ffffffffffffffffffffffffffffffffffffffff167f8be0079c531659141344cd1fd0a4f28419497f9722a3daafe3b4186f6b6457e060405160405180910390a35050565b620001c982826200039960201b60201c565b620002a55760016003600084815260200190815260200160002060000160008373ffffffffffffffffffffffffffffffffffffffff1673ffffffffffffffffffffffffffffffffffffffff16815260200190815260200160002060006101000a81548160ff0219169083151502179055506200024a620000eb60201b60201c565b73ffffffffffffffffffffffffffffffffffffffff168173ffffffffffffffffffffffffffffffffffffffff16837f2f8788117e7eff1d82e926ec794901d17c78024a50270940304540a733656f0d60405160405180910390a45b5050565b620002b96200040460201b60201c565b600073ffffffffffffffffffffffffffffffffffffffff168173ffffffffffffffffffffffffffffffffffffffff16036200032b576040517f08c379a0000000000000000000000000000000000000000000000000000000008152600401620003229062000913565b60405180910390fd5b6200035d7fa49807205ce4d355092ef5a8a18f56e8913cf4a201fbe287825b095693c21775826200049560201b60201c565b7f44d6d25963f097ad14f29f06854a01f575648a1ef82f30e562ccd3889717e339816040516200038e919062000895565b60405180910390a150565b60006003600084815260200190815260200160002060000160008373ffffffffffffffffffffffffffffffffffffffff1673ffffffffffffffffffffffffffffffffffffffff16815260200190815260200160002060009054906101000a900460ff16905092915050565b62000414620000eb60201b60201c565b73ffffffffffffffffffffffffffffffffffffffff166200043a620004ce60201b60201c565b73ffffffffffffffffffffffffffffffffffffffff161462000493576040517f08c379a00000000000000000000000000000000000000000000000000000000081526004016200048a9062000985565b60405180910390fd5b565b620004a682620004f760201b60201c565b620004b7816200051760201b60201c565b620004c98383620001b760201b60201c565b505050565b60008060009054906101000a900473ffffffffffffffffffffffffffffffffffffffff16905090565b600060036000838152602001908152602001600020600101549050919050565b62000538816200052c620000eb60201b60201c565b6200053b60201b60201c565b50565b6200054d82826200039960201b60201c565b620005f1576200057b8173ffffffffffffffffffffffffffffffffffffffff166014620005f560201b60201c565b620005918360001c6020620005f560201b60201c565b604051602001620005a492919062000ac0565b6040516020818303038152906040526040517f08c379a0000000000000000000000000000000000000000000000000000000008152600401620005e8919062000b54565b60405180910390fd5b5050565b6060600060028360026200060a919062000bb1565b62000616919062000bfc565b67ffffffffffffffff81111562000632576200063162000c37565b5b6040519080825280601f01601f191660200182016040528015620006655781602001600182028036833780820191505090505b5090507f300000000000000000000000000000000000000000000000000000000000000081600081518110620006a0576200069f62000c66565b5b60200101907effffffffffffffffffffffffffffffffffffffffffffffffffffffffffffff1916908160001a9053507f78000000000000000000000000000000000000000000000000000000000000008160018151811062000707576200070662000c66565b5b60200101907effffffffffffffffffffffffffffffffffffffffffffffffffffffffffffff1916908160001a9053506000600184600262000749919062000bb1565b62000755919062000bfc565b90505b6001811115620007ff577f3031323334353637383961626364656600000000000000000000000000000000600f8616601081106200079b576200079a62000c66565b5b1a60f81b828281518110620007b557620007b462000c66565b5b60200101907effffffffffffffffffffffffffffffffffffffffffffffffffffffffffffff1916908160001a905350600485901c945080620007f79062000c95565b905062000758565b506000841462000846576040517f08c379a00000000000000000000000000000000000000000000000000000000081526004016200083d9062000d13565b60405180910390fd5b8091505092915050565b600073ffffffffffffffffffffffffffffffffffffffff82169050919050565b60006200087d8262000850565b9050919050565b6200088f8162000870565b82525050565b6000602082019050620008ac600083018462000884565b92915050565b600082825260208201905092915050565b7f496e76616c69642061646d696e20616464726573730000000000000000000000600082015250565b6000620008fb601583620008b2565b91506200090882620008c3565b602082019050919050565b600060208201905081810360008301526200092e81620008ec565b9050919050565b7f4f776e61626c653a2063616c6c6572206973206e6f7420746865206f776e6572600082015250565b60006200096d602083620008b2565b91506200097a8262000935565b602082019050919050565b60006020820190508181036000830152620009a0816200095e565b9050919050565b600081905092915050565b7f416363657373436f6e74726f6c3a206163636f756e7420000000000000000000600082015250565b6000620009ea601783620009a7565b9150620009f782620009b2565b601782019050919050565b600081519050919050565b60005b8381101562000a2d57808201518184015260208101905062000a10565b60008484015250505050565b600062000a468262000a02565b62000a528185620009a7565b935062000a6481856020860162000a0d565b80840191505092915050565b7f206973206d697373696e6720726f6c6520000000000000000000000000000000600082015250565b600062000aa8601183620009a7565b915062000ab58262000a70565b601182019050919050565b600062000acd82620009db565b915062000adb828562000a39565b915062000ae88262000a99565b915062000af6828462000a39565b91508190509392505050565b6000601f19601f8301169050919050565b600062000b208262000a02565b62000b2c8185620008b2565b935062000b3e81856020860162000a0d565b62000b498162000b02565b840191505092915050565b6000602082019050818103600083015262000b70818462000b13565b905092915050565b6000819050919050565b7f4e487b7100000000000000000000000000000000000000000000000000000000600052601160045260246000fd5b600062000bbe8262000b78565b915062000bcb8362000b78565b925082820262000bdb8162000b78565b9150828204841483151762000bf55762000bf462000b82565b5b5092915050565b600062000c098262000b78565b915062000c168362000b78565b925082820190508082111562000c315762000c3062000b82565b5b92915050565b7f4e487b7100000000000000000000000000000000000000000000000000000000600052604160045260246000fd5b7f4e487b7100000000000000000000000000000000000000000000000000000000600052603260045260246000fd5b600062000ca28262000b78565b91506000820362000cb85762000cb762000b82565b5b600182039050919050565b7f537472696e67733a20686578206c656e67746820696e73756666696369656e74600082015250565b600062000cfb602083620008b2565b915062000d088262000cc3565b602082019050919050565b6000602082019050818103600083015262000d2e8162000cec565b9050919050565b615ba68062000d456000396000f3fe608060405234801561001057600080fd5b50600436106102535760003560e01c80637ecebe0011610146578063b2f413d3116100c3578063d54ea94311610087578063d54ea94314610790578063d5ee8be1146107c0578063e0b1cccb146107f6578063f2fde38b14610812578063f74575941461082e578063f907a6621461084a57610253565b8063b2f413d3146106da578063b63ffff3146106f6578063b7e1917c14610726578063be6d6a2414610744578063d547741f1461077457610253565b80638da5cb5b1161010a5780638da5cb5b1461060a57806391d148541461062857806392968125146106585780639726e90d1461068b578063a217fddf146106bc57610253565b80637ecebe0014610554578063841a2f75146105845780638456cb59146105a057806389b08f11146105aa5780638b92f710146105da57610253565b806336568abe116101d45780636039fbdb116101985780636039fbdb146104c357806370480275146104df578063715018a6146104fb57806375b238fc146105055780637dd7ea7b1461052357610253565b806336568abe1461041a5780633f4ba83a14610436578063435beef21461044057806349128bd2146104745780635c975abb146104a557610253565b80631785f53c1161021b5780631785f53c146103505780631b97b4e21461036c578063248a9ca31461039d57806328186eb1146103cd5780632f2ff15d146103fe57610253565b806301ffc9a714610258578063033941e21461028857806307adba56146102b95780630832305f146102ea5780630f67a96d1461031d575b600080fd5b610272600480360381019061026d9190613e94565b610866565b60405161027f9190613edc565b60405180910390f35b6102a2600480360381019061029d9190613f8b565b6108e0565b6040516102b0929190613fda565b60405180910390f35b6102d360048036038101906102ce9190614039565b61093e565b6040516102e1929190613fda565b60405180910390f35b61030460048036038101906102ff9190614066565b610962565b6040516103149493929190614145565b60405180910390f35b61033760048036038101906103329190614066565b610adf565b6040516103479493929190614145565b60405180910390f35b61036a60048036038101906103659190614198565b610c5c565b005b610386600480360381019061038191906141c5565b610d31565b604051610394929190613fda565b60405180910390f35b6103b760048036038101906103b29190614039565b610d91565b6040516103c49190614227565b60405180910390f35b6103e760048036038101906103e29190614039565b610db1565b6040516103f5929190613fda565b60405180910390f35b61041860048036038101906104139190614242565b610dd5565b005b610434600480360381019061042f9190614242565b610df6565b005b61043e610e79565b005b61045a60048036038101906104559190614282565b610eec565b60405161046b95949392919061443e565b60405180910390f35b61048e600480360381019061048991906145e9565b61130f565b60405161049c929190613fda565b60405180910390f35b6104ad611373565b6040516104ba9190613edc565b60405180910390f35b6104dd60048036038101906104d89190613f8b565b61138a565b005b6104f960048036038101906104f49190614198565b61152d565b005b610503611608565b005b61050d61161c565b60405161051a9190614227565b60405180910390f35b61053d60048036038101906105389190614039565b611640565b60405161054b929190613fda565b60405180910390f35b61056e60048036038101906105699190614198565b611664565b60405161057b9190614680565b60405180910390f35b61059e60048036038101906105999190614282565b61167c565b005b6105a861181f565b005b6105c460048036038101906105bf9190614198565b611892565b6040516105d19190614680565b60405180910390f35b6105f460048036038101906105ef919061469b565b6118aa565b60405161060191906148b1565b60405180910390f35b610612611b08565b60405161061f91906148d3565b60405180910390f35b610642600480360381019061063d9190614242565b611b31565b60405161064f9190613edc565b60405180910390f35b610672600480360381019061066d9190613f8b565b611b9c565b60405161068294939291906148ee565b60405180910390f35b6106a560048036038101906106a091906141c5565b611cbc565b6040516106b3929190613fda565b60405180910390f35b6106c4611e0b565b6040516106d19190614227565b60405180910390f35b6106f460048036038101906106ef9190614a9d565b611e12565b005b610710600480360381019061070b91906141c5565b6124f4565b60405161071d9190614c12565b60405180910390f35b61072e6126fc565b60405161073b91906148d3565b60405180910390f35b61075e60048036038101906107599190613f8b565b612722565b60405161076b9190614c12565b60405180910390f35b61078e60048036038101906107899190614242565b612928565b005b6107aa60048036038101906107a591906141c5565b612949565b6040516107b79190614680565b60405180910390f35b6107da60048036038101906107d59190614066565b612e60565b6040516107ed9796959493929190614c34565b60405180910390f35b610810600480360381019061080b9190613f8b565b612fef565b005b61082c60048036038101906108279190614198565b613180565b005b61084860048036038101906108439190614198565b613203565b005b610864600480360381019061085f9190614282565b6132f5565b005b60007f7965db0b000000000000000000000000000000000000000000000000000000007bffffffffffffffffffffffffffffffffffffffffffffffffffffffff1916827bffffffffffffffffffffffffffffffffffffffffffffffffffffffff191614806108d957506108d882613498565b5b9050919050565b60008060006108ef8585613502565b9050600060096000838152602001908152602001600020604051806040016040529081600082015481526020016001820154815250509050806000015181602001519350935050509250929050565b60076020528060005260406000206000915090508060000154908060010154905082565b600a602052816000526040600020818154811061097e57600080fd5b9060005260206000209060040201600091509150508060000180546109a290614ce0565b80601f01602080910402602001604051908101604052809291908181526020018280546109ce90614ce0565b8015610a1b5780601f106109f057610100808354040283529160200191610a1b565b820191906000526020600020905b8154815290600101906020018083116109fe57829003601f168201915b5050505050908060010160009054906101000a900473ffffffffffffffffffffffffffffffffffffffff1690806002015490806003018054610a5c90614ce0565b80601f0160208091040260200160405190810160405280929190818152602001828054610a8890614ce0565b8015610ad55780601f10610aaa57610100808354040283529160200191610ad5565b820191906000526020600020905b815481529060010190602001808311610ab857829003601f168201915b5050505050905084565b600b6020528160005260406000208181548110610afb57600080fd5b906000526020600020906004020160009150915050806000018054610b1f90614ce0565b80601f0160208091040260200160405190810160405280929190818152602001828054610b4b90614ce0565b8015610b985780601f10610b6d57610100808354040283529160200191610b98565b820191906000526020600020905b815481529060010190602001808311610b7b57829003601f168201915b5050505050908060010160009054906101000a900473ffffffffffffffffffffffffffffffffffffffff1690806002015490806003018054610bd990614ce0565b80601f0160208091040260200160405190810160405280929190818152602001828054610c0590614ce0565b8015610c525780601f10610c2757610100808354040283529160200191610c52565b820191906000526020600020905b815481529060010190602001808311610c3557829003601f168201915b5050505050905084565b610c64613535565b610c8e7fa49807205ce4d355092ef5a8a18f56e8913cf4a201fbe287825b095693c2177582611b31565b610ccd576040517f08c379a0000000000000000000000000000000000000000000000000000000008152600401610cc490614d83565b60405180910390fd5b610cf77fa49807205ce4d355092ef5a8a18f56e8913cf4a201fbe287825b095693c2177582612928565b7fa3b62bc36326052d97ea62d63c3d60308ed4c3ea8ac079dd8499f1e9c4f80c0f81604051610d2691906148d3565b60405180910390a150565b6000806000610d418686866135b3565b905060006008600083815260200190815260200160002060405180604001604052908160008201548152602001600182015481525050905080600001518160200151935093505050935093915050565b600060036000838152602001908152602001600020600101549050919050565b60086020528060005260406000206000915090508060000154908060010154905082565b610dde82610d91565b610de7816135e9565b610df183836135fd565b505050565b610dfe6136de565b73ffffffffffffffffffffffffffffffffffffffff168173ffffffffffffffffffffffffffffffffffffffff1614610e6b576040517f08c379a0000000000000000000000000000000000000000000000000000000008152600401610e6290614e15565b60405180910390fd5b610e7582826136e6565b5050565b610ea37fa49807205ce4d355092ef5a8a18f56e8913cf4a201fbe287825b095693c2177533611b31565b610ee2576040517f08c379a0000000000000000000000000000000000000000000000000000000008152600401610ed990614ea7565b60405180910390fd5b610eea6137c8565b565b60608060608060606000610f00600d61382b565b90508067ffffffffffffffff811115610f1c57610f1b6144be565b5b604051908082528060200260200182016040528015610f4a5781602001602082028036833780820191505090505b5095508067ffffffffffffffff811115610f6757610f666144be565b5b604051908082528060200260200182016040528015610f955781602001602082028036833780820191505090505b5094508067ffffffffffffffff811115610fb257610fb16144be565b5b604051908082528060200260200182016040528015610fe05781602001602082028036833780820191505090505b5093508067ffffffffffffffff811115610ffd57610ffc6144be565b5b60405190808252806020026020018201604052801561102b5781602001602082028036833780820191505090505b5092508067ffffffffffffffff811115611048576110476144be565b5b6040519080825280602002602001820160405280156110765781602001602082028036833780820191505090505b50915060005b8181101561130357600061109a82600d61384090919063ffffffff16565b9050808883815181106110b0576110af614ec7565b5b602002602001019073ffffffffffffffffffffffffffffffffffffffff16908173ffffffffffffffffffffffffffffffffffffffff168152505060006110f7828c8c6135b3565b90506000600860008381526020019081526020016000206000015414158061113657506000600860008381526020019081526020016000206001015414155b156111ac57600860008281526020019081526020016000206000015488848151811061116557611164614ec7565b5b602002602001018181525050600860008281526020019081526020016000206001015487848151811061119b5761119a614ec7565b5b6020026020010181815250506111ef565b60008884815181106111c1576111c0614ec7565b5b60200260200101818152505060008784815181106111e2576111e1614ec7565b5b6020026020010181815250505b60006111fb838c613502565b90506000600960008381526020019081526020016000206000015414158061123a57506000600960008381526020019081526020016000206001015414155b156112b057600960008281526020019081526020016000206000015487858151811061126957611268614ec7565b5b602002602001018181525050600960008281526020019081526020016000206001015486858151811061129f5761129e614ec7565b5b6020026020010181815250506112f3565b60008785815181106112c5576112c4614ec7565b5b60200260200101818152505060008685815181106112e6576112e5614ec7565b5b6020026020010181815250505b505050808060010191505061107c565b50509295509295909350565b6000806000611321888888888861385a565b9050600060076000838152602001908152602001600020604051806040016040529081600082015481526020016001820154815250509050806000015181602001519350935050509550959350505050565b6000600260009054906101000a900460ff16905090565b6113b47fa49807205ce4d355092ef5a8a18f56e8913cf4a201fbe287825b095693c2177533611b31565b6113f3576040517f08c379a00000000000000000000000000000000000000000000000000000000081526004016113ea90614ea7565b60405180910390fd5b6113fb613896565b600260015403611440576040517f08c379a000000000000000000000000000000000000000000000000000000000815260040161143790614f42565b60405180910390fd5b6002600181905550600073ffffffffffffffffffffffffffffffffffffffff168273ffffffffffffffffffffffffffffffffffffffff16036114b7576040517f08c379a00000000000000000000000000000000000000000000000000000000081526004016114ae90614fae565b60405180910390fd5b80600460008473ffffffffffffffffffffffffffffffffffffffff1673ffffffffffffffffffffffffffffffffffffffff16815260200190815260200160002060008282546115069190614ffd565b9250508190555061152182600d6138e090919063ffffffff16565b50600180819055505050565b611535613535565b600073ffffffffffffffffffffffffffffffffffffffff168173ffffffffffffffffffffffffffffffffffffffff16036115a4576040517f08c379a000000000000000000000000000000000000000000000000000000000815260040161159b9061507d565b60405180910390fd5b6115ce7fa49807205ce4d355092ef5a8a18f56e8913cf4a201fbe287825b095693c2177582610dd5565b7f44d6d25963f097ad14f29f06854a01f575648a1ef82f30e562ccd3889717e339816040516115fd91906148d3565b60405180910390a150565b611610613535565b61161a6000613910565b565b7fa49807205ce4d355092ef5a8a18f56e8913cf4a201fbe287825b095693c2177581565b60096020528060005260406000206000915090508060000154908060010154905082565b60066020528060005260406000206000915090505481565b6116a67fa49807205ce4d355092ef5a8a18f56e8913cf4a201fbe287825b095693c2177533611b31565b6116e5576040517f08c379a00000000000000000000000000000000000000000000000000000000081526004016116dc90614ea7565b60405180910390fd5b60005b6116f2600d61382b565b81101561181a57600061170f82600d61384090919063ffffffff16565b9050600061171e8286866135b3565b9050600061172c8386613502565b90507fb545172a58c326b4a7140f5d4f97f38b584093af0bc3bbc408856ceb89de903183878760006008600088815260200190815260200160002060000154600860008981526020019081526020016000206001015460405161179496959493929190615108565b60405180910390a17fb545172a58c326b4a7140f5d4f97f38b584093af0bc3bbc408856ceb89de903183878760006009600087815260200190815260200160002060000154600960008881526020019081526020016000206001015460405161180296959493929190615108565b60405180910390a150505080806001019150506116e8565b505050565b6118497fa49807205ce4d355092ef5a8a18f56e8913cf4a201fbe287825b095693c2177533611b31565b611888576040517f08c379a000000000000000000000000000000000000000000000000000000000815260040161187f90614ea7565b60405180910390fd5b6118906139d4565b565b60046020528060005260406000206000915090505481565b606060006118f0868686866040518060400160405280600181526020017f300000000000000000000000000000000000000000000000000000000000000081525061385a565b9050600c6000828152602001908152602001600020805480602002602001604051908101604052809291908181526020016000905b82821015611af957838290600052602060002090600702016040518060e001604052908160008201548152602001600182015481526020016002820154815260200160038201805461197690614ce0565b80601f01602080910402602001604051908101604052809291908181526020018280546119a290614ce0565b80156119ef5780601f106119c4576101008083540402835291602001916119ef565b820191906000526020600020905b8154815290600101906020018083116119d257829003601f168201915b505050505081526020016004820160009054906101000a900473ffffffffffffffffffffffffffffffffffffffff1673ffffffffffffffffffffffffffffffffffffffff1673ffffffffffffffffffffffffffffffffffffffff16815260200160058201548152602001600682018054611a6890614ce0565b80601f0160208091040260200160405190810160405280929190818152602001828054611a9490614ce0565b8015611ae15780601f10611ab657610100808354040283529160200191611ae1565b820191906000526020600020905b815481529060010190602001808311611ac457829003601f168201915b50505050508152505081526020019060010190611925565b50505050915050949350505050565b60008060009054906101000a900473ffffffffffffffffffffffffffffffffffffffff16905090565b60006003600084815260200190815260200160002060000160008373ffffffffffffffffffffffffffffffffffffffff1673ffffffffffffffffffffffffffffffffffffffff16815260200190815260200160002060009054906101000a900460ff16905092915050565b600080600080600460008773ffffffffffffffffffffffffffffffffffffffff1673ffffffffffffffffffffffffffffffffffffffff168152602001908152602001600020549350600660008773ffffffffffffffffffffffffffffffffffffffff1673ffffffffffffffffffffffffffffffffffffffff16815260200190815260200160002054925060006107e590505b858111611cb2576000611c418883613502565b9050600060096000838152602001908152602001600020604051806040016040529081600082015481526020016001820154815250509050806000015185611c899190614ffd565b9450806020015184611c9b9190614ffd565b935050508080611caa9061517c565b915050611c2e565b5092959194509250565b600080600091506000905060008414611d25576000611cdc8686866135b3565b9050600060086000838152602001908152602001600020604051806040016040529081600082015481526020016001820154815250509050806000015193508060200151925050505b6000611d318685613502565b9050600060096000838152602001908152602001600020604051806040016040529081600082015481526020016001820154815250509050806000015184611d799190614ffd565b9350806020015183611d8b9190614ffd565b925060008614611e01576000611da28888886135b3565b9050600060086000838152602001908152602001600020604051806040016040529081600082015481526020016001820154815250509050806000015186611dea91906151c4565b9550806020015185611dfc91906151c4565b945050505b5050935093915050565b6000801b81565b611e3c7fa49807205ce4d355092ef5a8a18f56e8913cf4a201fbe287825b095693c2177533611b31565b611e7b576040517f08c379a0000000000000000000000000000000000000000000000000000000008152600401611e7290614ea7565b60405180910390fd5b611e83613896565b600260015403611ec8576040517f08c379a0000000000000000000000000000000000000000000000000000000008152600401611ebf90614f42565b60405180910390fd5b60026001819055506000611ef38260000151836020015184604001518560600151866080015161385a565b90506000611f0e8360000151846020015185604001516135b3565b90506000611f2484600001518560400151613502565b90508360a00151600760008581526020019081526020016000206000016000828254611f509190614ffd565b925050819055508360c00151600760008581526020019081526020016000206001016000828254611f819190614ffd565b925050819055508360a00151600860008481526020019081526020016000206000016000828254611fb29190614ffd565b925050819055508360c00151600860008481526020019081526020016000206001016000828254611fe39190614ffd565b925050819055508360a001516009600083815260200190815260200160002060000160008282546120149190614ffd565b925050819055508360c001516009600083815260200190815260200160002060010160008282546120459190614ffd565b925050819055507fb545172a58c326b4a7140f5d4f97f38b584093af0bc3bbc408856ceb89de9031846000015185602001518660400151876060015188608001518960a001518a60c001516040516120a397969594939291906151f8565b60405180910390a16120c38460000151600d6138e090919063ffffffff16565b50600a600083815260200190815260200160002060405180608001604052808660e00151815260200186610100015173ffffffffffffffffffffffffffffffffffffffff16815260200186610120015181526020018661014001518152509080600181540180825580915050600190039060005260206000209060040201600090919091909150600082015181600001908161215f9190615410565b5060208201518160010160006101000a81548173ffffffffffffffffffffffffffffffffffffffff021916908373ffffffffffffffffffffffffffffffffffffffff1602179055506040820151816002015560608201518160030190816121c69190615410565b5050507ffa56ab7a7274f82e783f651a8ff35abcc9f770ffb744562fa9802fa63bd6ad6484600001518560200151866040015187606001518860e001518961010001518a61012001518b61014001516040516122299897969594939291906154e2565b60405180910390a1600b600082815260200190815260200160002060405180608001604052808660e00151815260200186610100015173ffffffffffffffffffffffffffffffffffffffff1681526020018661012001518152602001866101400151815250908060018154018082558091505060019003906000526020600020906004020160009091909190915060008201518160000190816122cc9190615410565b5060208201518160010160006101000a81548173ffffffffffffffffffffffffffffffffffffffff021916908373ffffffffffffffffffffffffffffffffffffffff1602179055506040820151816002015560608201518160030190816123339190615410565b505050600061238a85600001518660200151876040015188606001516040518060400160405280600181526020017f300000000000000000000000000000000000000000000000000000000000000081525061385a565b9050600c60008281526020019081526020016000206040518060e001604052808760600151815260200187602001518152602001876040015181526020018760e00151815260200187610100015173ffffffffffffffffffffffffffffffffffffffff1681526020018761012001518152602001876101400151815250908060018154018082558091505060019003906000526020600020906007020160009091909190915060008201518160000155602082015181600101556040820151816002015560608201518160030190816124639190615410565b5060808201518160040160006101000a81548173ffffffffffffffffffffffffffffffffffffffff021916908373ffffffffffffffffffffffffffffffffffffffff16021790555060a0820151816005015560c08201518160060190816124ca9190615410565b5050506124e58560000151600d6138e090919063ffffffff16565b50505050506001808190555050565b606060006125038585856135b3565b9050600a6000828152602001908152602001600020805480602002602001604051908101604052809291908181526020016000905b828210156126ee578382906000526020600020906004020160405180608001604052908160008201805461256b90614ce0565b80601f016020809104026020016040519081016040528092919081815260200182805461259790614ce0565b80156125e45780601f106125b9576101008083540402835291602001916125e4565b820191906000526020600020905b8154815290600101906020018083116125c757829003601f168201915b505050505081526020016001820160009054906101000a900473ffffffffffffffffffffffffffffffffffffffff1673ffffffffffffffffffffffffffffffffffffffff1673ffffffffffffffffffffffffffffffffffffffff1681526020016002820154815260200160038201805461265d90614ce0565b80601f016020809104026020016040519081016040528092919081815260200182805461268990614ce0565b80156126d65780601f106126ab576101008083540402835291602001916126d6565b820191906000526020600020905b8154815290600101906020018083116126b957829003601f168201915b50505050508152505081526020019060010190612538565b505050509150509392505050565b600560009054906101000a900473ffffffffffffffffffffffffffffffffffffffff1681565b606060006127308484613502565b9050600b6000828152602001908152602001600020805480602002602001604051908101604052809291908181526020016000905b8282101561291b578382906000526020600020906004020160405180608001604052908160008201805461279890614ce0565b80601f01602080910402602001604051908101604052809291908181526020018280546127c490614ce0565b80156128115780601f106127e657610100808354040283529160200191612811565b820191906000526020600020905b8154815290600101906020018083116127f457829003601f168201915b505050505081526020016001820160009054906101000a900473ffffffffffffffffffffffffffffffffffffffff1673ffffffffffffffffffffffffffffffffffffffff1673ffffffffffffffffffffffffffffffffffffffff1681526020016002820154815260200160038201805461288a90614ce0565b80601f01602080910402602001604051908101604052809291908181526020018280546128b690614ce0565b80156129035780601f106128d857610100808354040283529160200191612903565b820191906000526020600020905b8154815290600101906020018083116128e657829003601f168201915b50505050508152505081526020019060010190612765565b5050505091505092915050565b61293182610d91565b61293a816135e9565b61294483836136e6565b505050565b6000806129578585856135b3565b90506000600a6000838152602001908152602001600020805480602002602001604051908101604052809291908181526020016000905b82821015612b4457838290600052602060002090600402016040518060800160405290816000820180546129c190614ce0565b80601f01602080910402602001604051908101604052809291908181526020018280546129ed90614ce0565b8015612a3a5780601f10612a0f57610100808354040283529160200191612a3a565b820191906000526020600020905b815481529060010190602001808311612a1d57829003601f168201915b505050505081526020016001820160009054906101000a900473ffffffffffffffffffffffffffffffffffffffff1673ffffffffffffffffffffffffffffffffffffffff1673ffffffffffffffffffffffffffffffffffffffff16815260200160028201548152602001600382018054612ab390614ce0565b80601f0160208091040260200160405190810160405280929190818152602001828054612adf90614ce0565b8015612b2c5780601f10612b0157610100808354040283529160200191612b2c565b820191906000526020600020905b815481529060010190602001808311612b0f57829003601f168201915b5050505050815250508152602001906001019061298e565b5050505090506000612b568786613502565b90506000600b6000838152602001908152602001600020805480602002602001604051908101604052809291908181526020016000905b82821015612d435783829060005260206000209060040201604051806080016040529081600082018054612bc090614ce0565b80601f0160208091040260200160405190810160405280929190818152602001828054612bec90614ce0565b8015612c395780601f10612c0e57610100808354040283529160200191612c39565b820191906000526020600020905b815481529060010190602001808311612c1c57829003601f168201915b505050505081526020016001820160009054906101000a900473ffffffffffffffffffffffffffffffffffffffff1673ffffffffffffffffffffffffffffffffffffffff1673ffffffffffffffffffffffffffffffffffffffff16815260200160028201548152602001600382018054612cb290614ce0565b80601f0160208091040260200160405190810160405280929190818152602001828054612cde90614ce0565b8015612d2b5780601f10612d0057610100808354040283529160200191612d2b565b820191906000526020600020905b815481529060010190602001808311612d0e57829003601f168201915b50505050508152505081526020019060010190612b8d565b50505050905060008351148015612d5b575060008151145b15612d6d576000945050505050612e59565b8251945060008151905060005b8451811015612e445760005b8351811015612e3657838181518110612da257612da1614ec7565b5b6020026020010151604051602001612dba91906155d8565b60405160208183030381529060405280519060200120868381518110612de357612de2614ec7565b5b6020026020010151604051602001612dfb91906155d8565b6040516020818303038152906040528051906020012003612e29578280612e21906155fa565b935050612e36565b8080600101915050612d86565b508080600101915050612d7a565b508086612e519190614ffd565b955050505050505b9392505050565b600c6020528160005260406000208181548110612e7c57600080fd5b906000526020600020906007020160009150915050806000015490806001015490806002015490806003018054612eb290614ce0565b80601f0160208091040260200160405190810160405280929190818152602001828054612ede90614ce0565b8015612f2b5780601f10612f0057610100808354040283529160200191612f2b565b820191906000526020600020905b815481529060010190602001808311612f0e57829003601f168201915b5050505050908060040160009054906101000a900473ffffffffffffffffffffffffffffffffffffffff1690806005015490806006018054612f6c90614ce0565b80601f0160208091040260200160405190810160405280929190818152602001828054612f9890614ce0565b8015612fe55780601f10612fba57610100808354040283529160200191612fe5565b820191906000526020600020905b815481529060010190602001808311612fc857829003601f168201915b5050505050905087565b6130197fa49807205ce4d355092ef5a8a18f56e8913cf4a201fbe287825b095693c2177533611b31565b613058576040517f08c379a000000000000000000000000000000000000000000000000000000000815260040161304f90614ea7565b60405180910390fd5b613060613896565b6002600154036130a5576040517f08c379a000000000000000000000000000000000000000000000000000000000815260040161309c90614f42565b60405180910390fd5b6002600181905550600073ffffffffffffffffffffffffffffffffffffffff168273ffffffffffffffffffffffffffffffffffffffff160361311c576040517f08c379a000000000000000000000000000000000000000000000000000000000815260040161311390614fae565b60405180910390fd5b80600460008473ffffffffffffffffffffffffffffffffffffffff1673ffffffffffffffffffffffffffffffffffffffff1681526020019081526020016000208190555061317482600d6138e090919063ffffffff16565b50600180819055505050565b613188613535565b600073ffffffffffffffffffffffffffffffffffffffff168173ffffffffffffffffffffffffffffffffffffffff16036131f7576040517f08c379a00000000000000000000000000000000000000000000000000000000081526004016131ee90615695565b60405180910390fd5b61320081613910565b50565b61320b613535565b600073ffffffffffffffffffffffffffffffffffffffff168173ffffffffffffffffffffffffffffffffffffffff160361327a576040517f08c379a000000000000000000000000000000000000000000000000000000000815260040161327190615701565b60405180910390fd5b80600560006101000a81548173ffffffffffffffffffffffffffffffffffffffff021916908373ffffffffffffffffffffffffffffffffffffffff1602179055507fd5f4c713589e8a5f8772f81c9a5189b03f01a579e559d0a3c9f6306a26d1eb33816040516132ea91906148d3565b60405180910390a150565b61331f7fa49807205ce4d355092ef5a8a18f56e8913cf4a201fbe287825b095693c2177533611b31565b61335e576040517f08c379a000000000000000000000000000000000000000000000000000000000815260040161335590614ea7565b60405180910390fd5b60005b61336b600d61382b565b81101561349357600061338882600d61384090919063ffffffff16565b905060006133978286866135b3565b905060006133a58386613502565b90507fb545172a58c326b4a7140f5d4f97f38b584093af0bc3bbc408856ceb89de903183878760006008600088815260200190815260200160002060000154600860008981526020019081526020016000206001015460405161340d96959493929190615108565b60405180910390a17fb545172a58c326b4a7140f5d4f97f38b584093af0bc3bbc408856ceb89de903183878760006009600087815260200190815260200160002060000154600960008881526020019081526020016000206001015460405161347b96959493929190615108565b60405180910390a15050508080600101915050613361565b505050565b60007f01ffc9a7000000000000000000000000000000000000000000000000000000007bffffffffffffffffffffffffffffffffffffffffffffffffffffffff1916827bffffffffffffffffffffffffffffffffffffffffffffffffffffffff1916149050919050565b6000828260405160200161351792919061578a565b60405160208183030381529060405280519060200120905092915050565b61353d6136de565b73ffffffffffffffffffffffffffffffffffffffff1661355b611b08565b73ffffffffffffffffffffffffffffffffffffffff16146135b1576040517f08c379a00000000000000000000000000000000000000000000000000000000081526004016135a890615802565b60405180910390fd5b565b60008383836040516020016135ca93929190615822565b6040516020818303038152906040528051906020012090509392505050565b6135fa816135f56136de565b613a37565b50565b6136078282611b31565b6136da5760016003600084815260200190815260200160002060000160008373ffffffffffffffffffffffffffffffffffffffff1673ffffffffffffffffffffffffffffffffffffffff16815260200190815260200160002060006101000a81548160ff02191690831515021790555061367f6136de565b73ffffffffffffffffffffffffffffffffffffffff168173ffffffffffffffffffffffffffffffffffffffff16837f2f8788117e7eff1d82e926ec794901d17c78024a50270940304540a733656f0d60405160405180910390a45b5050565b600033905090565b6136f08282611b31565b156137c45760006003600084815260200190815260200160002060000160008373ffffffffffffffffffffffffffffffffffffffff1673ffffffffffffffffffffffffffffffffffffffff16815260200190815260200160002060006101000a81548160ff0219169083151502179055506137696136de565b73ffffffffffffffffffffffffffffffffffffffff168173ffffffffffffffffffffffffffffffffffffffff16837ff6391f5c32d9c69d2a47ea670b442974b53935d1edc7fd64eb21e047a839171b60405160405180910390a45b5050565b6137d0613ad4565b6000600260006101000a81548160ff0219169083151502179055507f5db9ee0a495bf2e6ff9c91a7834c1ba4fdd244a5e8aa4e537bd38aeae4b073aa6138146136de565b60405161382191906148d3565b60405180910390a1565b600061383982600001613b1d565b9050919050565b600061384f8360000183613b2e565b60001c905092915050565b6000858585858560405160200161387595949392919061589b565b60405160208183030381529060405280519060200120905095945050505050565b61389e611373565b156138de576040517f08c379a00000000000000000000000000000000000000000000000000000000081526004016138d590615942565b60405180910390fd5b565b6000613908836000018373ffffffffffffffffffffffffffffffffffffffff1660001b613b59565b905092915050565b60008060009054906101000a900473ffffffffffffffffffffffffffffffffffffffff169050816000806101000a81548173ffffffffffffffffffffffffffffffffffffffff021916908373ffffffffffffffffffffffffffffffffffffffff1602179055508173ffffffffffffffffffffffffffffffffffffffff168173ffffffffffffffffffffffffffffffffffffffff167f8be0079c531659141344cd1fd0a4f28419497f9722a3daafe3b4186f6b6457e060405160405180910390a35050565b6139dc613896565b6001600260006101000a81548160ff0219169083151502179055507f62e78cea01bee320cd4e420270b5ea74000d11b0c9f74754ebdbfc544b05a258613a206136de565b604051613a2d91906148d3565b60405180910390a1565b613a418282611b31565b613ad057613a668173ffffffffffffffffffffffffffffffffffffffff166014613bc9565b613a748360001c6020613bc9565b604051602001613a859291906159fa565b6040516020818303038152906040526040517f08c379a0000000000000000000000000000000000000000000000000000000008152600401613ac79190615a34565b60405180910390fd5b5050565b613adc611373565b613b1b576040517f08c379a0000000000000000000000000000000000000000000000000000000008152600401613b1290615aa2565b60405180910390fd5b565b600081600001805490509050919050565b6000826000018281548110613b4657613b45614ec7565b5b9060005260206000200154905092915050565b6000613b658383613e05565b613bbe578260000182908060018154018082558091505060019003906000526020600020016000909190919091505582600001805490508360010160008481526020019081526020016000208190555060019050613bc3565b600090505b92915050565b606060006002836002613bdc9190615ac2565b613be69190614ffd565b67ffffffffffffffff811115613bff57613bfe6144be565b5b6040519080825280601f01601f191660200182016040528015613c315781602001600182028036833780820191505090505b5090507f300000000000000000000000000000000000000000000000000000000000000081600081518110613c6957613c68614ec7565b5b60200101907effffffffffffffffffffffffffffffffffffffffffffffffffffffffffffff1916908160001a9053507f780000000000000000000000000000000000000000000000000000000000000081600181518110613ccd57613ccc614ec7565b5b60200101907effffffffffffffffffffffffffffffffffffffffffffffffffffffffffffff1916908160001a90535060006001846002613d0d9190615ac2565b613d179190614ffd565b90505b6001811115613db7577f3031323334353637383961626364656600000000000000000000000000000000600f861660108110613d5957613d58614ec7565b5b1a60f81b828281518110613d7057613d6f614ec7565b5b60200101907effffffffffffffffffffffffffffffffffffffffffffffffffffffffffffff1916908160001a905350600485901c945080613db0906155fa565b9050613d1a565b5060008414613dfb576040517f08c379a0000000000000000000000000000000000000000000000000000000008152600401613df290615b50565b60405180910390fd5b8091505092915050565b600080836001016000848152602001908152602001600020541415905092915050565b6000604051905090565b600080fd5b600080fd5b60007fffffffff0000000000000000000000000000000000000000000000000000000082169050919050565b613e7181613e3c565b8114613e7c57600080fd5b50565b600081359050613e8e81613e68565b92915050565b600060208284031215613eaa57613ea9613e32565b5b6000613eb884828501613e7f565b91505092915050565b60008115159050919050565b613ed681613ec1565b82525050565b6000602082019050613ef16000830184613ecd565b92915050565b600073ffffffffffffffffffffffffffffffffffffffff82169050919050565b6000613f2282613ef7565b9050919050565b613f3281613f17565b8114613f3d57600080fd5b50565b600081359050613f4f81613f29565b92915050565b6000819050919050565b613f6881613f55565b8114613f7357600080fd5b50565b600081359050613f8581613f5f565b92915050565b60008060408385031215613fa257613fa1613e32565b5b6000613fb085828601613f40565b9250506020613fc185828601613f76565b9150509250929050565b613fd481613f55565b82525050565b6000604082019050613fef6000830185613fcb565b613ffc6020830184613fcb565b9392505050565b6000819050919050565b61401681614003565b811461402157600080fd5b50565b6000813590506140338161400d565b92915050565b60006020828403121561404f5761404e613e32565b5b600061405d84828501614024565b91505092915050565b6000806040838503121561407d5761407c613e32565b5b600061408b85828601614024565b925050602061409c85828601613f76565b9150509250929050565b600081519050919050565b600082825260208201905092915050565b60005b838110156140e05780820151818401526020810190506140c5565b60008484015250505050565b6000601f19601f8301169050919050565b6000614108826140a6565b61411281856140b1565b93506141228185602086016140c2565b61412b816140ec565b840191505092915050565b61413f81613f17565b82525050565b6000608082019050818103600083015261415f81876140fd565b905061416e6020830186614136565b61417b6040830185613fcb565b818103606083015261418d81846140fd565b905095945050505050565b6000602082840312156141ae576141ad613e32565b5b60006141bc84828501613f40565b91505092915050565b6000806000606084860312156141de576141dd613e32565b5b60006141ec86828701613f40565b93505060206141fd86828701613f76565b925050604061420e86828701613f76565b9150509250925092565b61422181614003565b82525050565b600060208201905061423c6000830184614218565b92915050565b6000806040838503121561425957614258613e32565b5b600061426785828601614024565b925050602061427885828601613f40565b9150509250929050565b6000806040838503121561429957614298613e32565b5b60006142a785828601613f76565b92505060206142b885828601613f76565b9150509250929050565b600081519050919050565b600082825260208201905092915050565b6000819050602082019050919050565b6142f781613f17565b82525050565b600061430983836142ee565b60208301905092915050565b6000602082019050919050565b600061432d826142c2565b61433781856142cd565b9350614342836142de565b8060005b8381101561437357815161435a88826142fd565b975061436583614315565b925050600181019050614346565b5085935050505092915050565b600081519050919050565b600082825260208201905092915050565b6000819050602082019050919050565b6143b581613f55565b82525050565b60006143c783836143ac565b60208301905092915050565b6000602082019050919050565b60006143eb82614380565b6143f5818561438b565b93506144008361439c565b8060005b8381101561443157815161441888826143bb565b9750614423836143d3565b925050600181019050614404565b5085935050505092915050565b600060a08201905081810360008301526144588188614322565b9050818103602083015261446c81876143e0565b9050818103604083015261448081866143e0565b9050818103606083015261449481856143e0565b905081810360808301526144a881846143e0565b90509695505050505050565b600080fd5b600080fd5b7f4e487b7100000000000000000000000000000000000000000000000000000000600052604160045260246000fd5b6144f6826140ec565b810181811067ffffffffffffffff82111715614515576145146144be565b5b80604052505050565b6000614528613e28565b905061453482826144ed565b919050565b600067ffffffffffffffff821115614554576145536144be565b5b61455d826140ec565b9050602081019050919050565b82818337600083830152505050565b600061458c61458784614539565b61451e565b9050828152602081018484840111156145a8576145a76144b9565b5b6145b384828561456a565b509392505050565b600082601f8301126145d0576145cf6144b4565b5b81356145e0848260208601614579565b91505092915050565b600080600080600060a0868803121561460557614604613e32565b5b600061461388828901613f40565b955050602061462488828901613f76565b945050604061463588828901613f76565b935050606061464688828901613f76565b925050608086013567ffffffffffffffff81111561466757614666613e37565b5b614673888289016145bb565b9150509295509295909350565b60006020820190506146956000830184613fcb565b92915050565b600080600080608085870312156146b5576146b4613e32565b5b60006146c387828801613f40565b94505060206146d487828801613f76565b93505060406146e587828801613f76565b92505060606146f687828801613f76565b91505092959194509250565b600081519050919050565b600082825260208201905092915050565b6000819050602082019050919050565b600082825260208201905092915050565b600061474a826140a6565b614754818561472e565b93506147648185602086016140c2565b61476d816140ec565b840191505092915050565b600060e08301600083015161479060008601826143ac565b5060208301516147a360208601826143ac565b5060408301516147b660408601826143ac565b50606083015184820360608601526147ce828261473f565b91505060808301516147e360808601826142ee565b5060a08301516147f660a08601826143ac565b5060c083015184820360c086015261480e828261473f565b9150508091505092915050565b60006148278383614778565b905092915050565b6000602082019050919050565b600061484782614702565b614851818561470d565b9350836020820285016148638561471e565b8060005b8581101561489f5784840389528151614880858261481b565b945061488b8361482f565b925060208a01995050600181019050614867565b50829750879550505050505092915050565b600060208201905081810360008301526148cb818461483c565b905092915050565b60006020820190506148e86000830184614136565b92915050565b60006080820190506149036000830187613fcb565b6149106020830186613fcb565b61491d6040830185613fcb565b61492a6060830184613fcb565b95945050505050565b600080fd5b600080fd5b6000610160828403121561495457614953614933565b5b61495f61016061451e565b9050600061496f84828501613f40565b600083015250602061498384828501613f76565b602083015250604061499784828501613f76565b60408301525060606149ab84828501613f76565b606083015250608082013567ffffffffffffffff8111156149cf576149ce614938565b5b6149db848285016145bb565b60808301525060a06149ef84828501613f76565b60a08301525060c0614a0384828501613f76565b60c08301525060e082013567ffffffffffffffff811115614a2757614a26614938565b5b614a33848285016145bb565b60e083015250610100614a4884828501613f40565b61010083015250610120614a5e84828501613f76565b6101208301525061014082013567ffffffffffffffff811115614a8457614a83614938565b5b614a90848285016145bb565b6101408301525092915050565b600060208284031215614ab357614ab2613e32565b5b600082013567ffffffffffffffff811115614ad157614ad0613e37565b5b614add8482850161493d565b91505092915050565b600081519050919050565b600082825260208201905092915050565b6000819050602082019050919050565b60006080830160008301518482036000860152614b2f828261473f565b9150506020830151614b4460208601826142ee565b506040830151614b5760408601826143ac565b5060608301518482036060860152614b6f828261473f565b9150508091505092915050565b6000614b888383614b12565b905092915050565b6000602082019050919050565b6000614ba882614ae6565b614bb28185614af1565b935083602082028501614bc485614b02565b8060005b85811015614c005784840389528151614be18582614b7c565b9450614bec83614b90565b925060208a01995050600181019050614bc8565b50829750879550505050505092915050565b60006020820190508181036000830152614c2c8184614b9d565b905092915050565b600060e082019050614c49600083018a613fcb565b614c566020830189613fcb565b614c636040830188613fcb565b8181036060830152614c7581876140fd565b9050614c846080830186614136565b614c9160a0830185613fcb565b81810360c0830152614ca381846140fd565b905098975050505050505050565b7f4e487b7100000000000000000000000000000000000000000000000000000000600052602260045260246000fd5b60006002820490506001821680614cf857607f821691505b602082108103614d0b57614d0a614cb1565b5b50919050565b7f4f6e6c79206578697374696e672061646d696e2063616e2062652072656d6f7660008201527f6564000000000000000000000000000000000000000000000000000000000000602082015250565b6000614d6d6022836140b1565b9150614d7882614d11565b604082019050919050565b60006020820190508181036000830152614d9c81614d60565b9050919050565b7f416363657373436f6e74726f6c3a2063616e206f6e6c792072656e6f756e636560008201527f20726f6c657320666f722073656c660000000000000000000000000000000000602082015250565b6000614dff602f836140b1565b9150614e0a82614da3565b604082019050919050565b60006020820190508181036000830152614e2e81614df2565b9050919050565b7f4f6e6c792061646d696e2063616e2063616c6c20746869732066756e6374696f60008201527f6e00000000000000000000000000000000000000000000000000000000000000602082015250565b6000614e916021836140b1565b9150614e9c82614e35565b604082019050919050565b60006020820190508181036000830152614ec081614e84565b9050919050565b7f4e487b7100000000000000000000000000000000000000000000000000000000600052603260045260246000fd5b7f5265656e7472616e637947756172643a207265656e7472616e742063616c6c00600082015250565b6000614f2c601f836140b1565b9150614f3782614ef6565b602082019050919050565b60006020820190508181036000830152614f5b81614f1f565b9050919050565b7f496e76616c696420757365722061646472657373000000000000000000000000600082015250565b6000614f986014836140b1565b9150614fa382614f62565b602082019050919050565b60006020820190508181036000830152614fc781614f8b565b9050919050565b7f4e487b7100000000000000000000000000000000000000000000000000000000600052601160045260246000fd5b600061500882613f55565b915061501383613f55565b925082820190508082111561502b5761502a614fce565b5b92915050565b7f496e76616c69642061646d696e20616464726573730000000000000000000000600082015250565b60006150676015836140b1565b915061507282615031565b602082019050919050565b600060208201905081810360008301526150968161505a565b9050919050565b6000819050919050565b6000819050919050565b60006150cc6150c76150c28461509d565b6150a7565b613f55565b9050919050565b6150dc816150b1565b82525050565b50565b60006150f26000836140b1565b91506150fd826150e2565b600082019050919050565b600060e08201905061511d6000830189614136565b61512a6020830188613fcb565b6151376040830187613fcb565b61514460608301866150d3565b8181036080830152615155816150e5565b905061516460a0830185613fcb565b61517160c0830184613fcb565b979650505050505050565b600061518782613f55565b91507fffffffffffffffffffffffffffffffffffffffffffffffffffffffffffffffff82036151b9576151b8614fce565b5b600182019050919050565b60006151cf82613f55565b91506151da83613f55565b92508282039050818111156151f2576151f1614fce565b5b92915050565b600060e08201905061520d600083018a614136565b61521a6020830189613fcb565b6152276040830188613fcb565b6152346060830187613fcb565b818103608083015261524681866140fd565b905061525560a0830185613fcb565b61526260c0830184613fcb565b98975050505050505050565b60008190508160005260206000209050919050565b60006020601f8301049050919050565b600082821b905092915050565b6000600883026152d07fffffffffffffffffffffffffffffffffffffffffffffffffffffffffffffffff82615293565b6152da8683615293565b95508019841693508086168417925050509392505050565b600061530d61530861530384613f55565b6150a7565b613f55565b9050919050565b6000819050919050565b615327836152f2565b61533b61533382615314565b8484546152a0565b825550505050565b600090565b615350615343565b61535b81848461531e565b505050565b5b8181101561537f57615374600082615348565b600181019050615361565b5050565b601f8211156153c4576153958161526e565b61539e84615283565b810160208510156153ad578190505b6153c16153b985615283565b830182615360565b50505b505050565b600082821c905092915050565b60006153e7600019846008026153c9565b1980831691505092915050565b600061540083836153d6565b9150826002028217905092915050565b615419826140a6565b67ffffffffffffffff811115615432576154316144be565b5b61543c8254614ce0565b615447828285615383565b600060209050601f83116001811461547a5760008415615468578287015190505b61547285826153f4565b8655506154da565b601f1984166154888661526e565b60005b828110156154b05784890151825560018201915060208501945060208101905061548b565b868310156154cd57848901516154c9601f8916826153d6565b8355505b6001600288020188555050505b505050505050565b6000610100820190506154f8600083018b614136565b615505602083018a613fcb565b6155126040830189613fcb565b61551f6060830188613fcb565b818103608083015261553181876140fd565b905061554060a0830186614136565b61554d60c0830185613fcb565b81810360e083015261555f81846140fd565b90509998505050505050505050565b6000608083016000830151848203600086015261558b828261473f565b91505060208301516155a060208601826142ee565b5060408301516155b360408601826143ac565b50606083015184820360608601526155cb828261473f565b9150508091505092915050565b600060208201905081810360008301526155f2818461556e565b905092915050565b600061560582613f55565b91506000820361561857615617614fce565b5b600182039050919050565b7f4f776e61626c653a206e6577206f776e657220697320746865207a65726f206160008201527f6464726573730000000000000000000000000000000000000000000000000000602082015250565b600061567f6026836140b1565b915061568a82615623565b604082019050919050565b600060208201905081810360008301526156ae81615672565b9050919050565b7f496e76616c696420746f6b656e2061646d696e20616464726573730000000000600082015250565b60006156eb601b836140b1565b91506156f6826156b5565b602082019050919050565b6000602082019050818103600083015261571a816156de565b9050919050565b60008160601b9050919050565b600061573982615721565b9050919050565b600061574b8261572e565b9050919050565b61576361575e82613f17565b615740565b82525050565b6000819050919050565b61578461577f82613f55565b615769565b82525050565b60006157968285615752565b6014820191506157a68284615773565b6020820191508190509392505050565b7f4f776e61626c653a2063616c6c6572206973206e6f7420746865206f776e6572600082015250565b60006157ec6020836140b1565b91506157f7826157b6565b602082019050919050565b6000602082019050818103600083015261581b816157df565b9050919050565b600061582e8286615752565b60148201915061583e8285615773565b60208201915061584e8284615773565b602082019150819050949350505050565b600081905092915050565b6000615875826140a6565b61587f818561585f565b935061588f8185602086016140c2565b80840191505092915050565b60006158a78288615752565b6014820191506158b78287615773565b6020820191506158c78286615773565b6020820191506158d78285615773565b6020820191506158e7828461586a565b91508190509695505050505050565b7f5061757361626c653a2070617573656400000000000000000000000000000000600082015250565b600061592c6010836140b1565b9150615937826158f6565b602082019050919050565b6000602082019050818103600083015261595b8161591f565b9050919050565b7f416363657373436f6e74726f6c3a206163636f756e7420000000000000000000600082015250565b600061599860178361585f565b91506159a382615962565b601782019050919050565b7f206973206d697373696e6720726f6c6520000000000000000000000000000000600082015250565b60006159e460118361585f565b91506159ef826159ae565b601182019050919050565b6000615a058261598b565b9150615a11828561586a565b9150615a1c826159d7565b9150615a28828461586a565b91508190509392505050565b60006020820190508181036000830152615a4e81846140fd565b905092915050565b7f5061757361626c653a206e6f7420706175736564000000000000000000000000600082015250565b6000615a8c6014836140b1565b9150615a9782615a56565b602082019050919050565b60006020820190508181036000830152615abb81615a7f565b9050919050565b6000615acd82613f55565b9150615ad883613f55565b9250828202615ae681613f55565b91508282048414831517615afd57615afc614fce565b5b5092915050565b7f537472696e67733a20686578206c656e67746820696e73756666696369656e74600082015250565b6000615b3a6020836140b1565b9150615b4582615b04565b602082019050919050565b60006020820190508181036000830152615b6981615b2d565b905091905056fea2646970667358221220cc839eddb32c298b3957ff6030ac976f67d3e13f205ed8bd26102585f0a0508864736f6c63430008180033",
  "linkReferences": {},
  "deployedLinkReferences": {}
}